{
  "_format": "hh-sol-artifact-1",
  "contractName": "ArtistSharesFactory",
  "sourceName": "contracts/ArtistSharesFactory.sol",
  "abi": [
    {
      "inputs": [
        {
          "internalType": "address",
          "name": "_platformAddress",
          "type": "address"
        },
        {
          "internalType": "address",
          "name": "_priceFeedAddress",
          "type": "address"
        }
      ],
      "stateMutability": "nonpayable",
      "type": "constructor"
    },
    {
      "anonymous": false,
      "inputs": [
        {
          "indexed": false,
          "internalType": "address",
          "name": "tokenAddress",
          "type": "address"
        },
        {
          "indexed": false,
          "internalType": "string",
          "name": "artistId",
          "type": "string"
        },
        {
          "indexed": false,
          "internalType": "string",
          "name": "artistName",
          "type": "string"
        }
      ],
      "name": "ArtistTokenCreated",
      "type": "event"
    },
    {
      "inputs": [
        {
          "internalType": "string",
          "name": "",
          "type": "string"
        }
      ],
      "name": "artistToToken",
      "outputs": [
        {
          "internalType": "address",
          "name": "",
          "type": "address"
        }
      ],
      "stateMutability": "view",
      "type": "function"
    },
    {
      "inputs": [
        {
          "internalType": "string",
          "name": "artistId",
          "type": "string"
        },
        {
          "internalType": "string",
          "name": "name",
          "type": "string"
        },
        {
          "internalType": "string",
          "name": "symbol",
          "type": "string"
        },
        {
          "internalType": "address",
          "name": "teamWallet",
          "type": "address"
        },
        {
          "internalType": "uint256",
          "name": "popularity",
          "type": "uint256"
        }
      ],
      "name": "createArtistToken",
      "outputs": [
        {
          "internalType": "address",
          "name": "",
          "type": "address"
        }
      ],
      "stateMutability": "nonpayable",
      "type": "function"
    },
    {
      "inputs": [
        {
          "internalType": "uint256",
          "name": "",
          "type": "uint256"
        }
      ],
      "name": "deployedTokens",
      "outputs": [
        {
          "internalType": "address",
          "name": "",
          "type": "address"
        }
      ],
      "stateMutability": "view",
      "type": "function"
    },
    {
      "inputs": [],
      "name": "getDeployedTokens",
      "outputs": [
        {
          "internalType": "address[]",
          "name": "",
          "type": "address[]"
        }
      ],
      "stateMutability": "view",
      "type": "function"
    },
    {
      "inputs": [],
      "name": "getPlatformAddress",
      "outputs": [
        {
          "internalType": "address",
          "name": "",
          "type": "address"
        }
      ],
      "stateMutability": "view",
      "type": "function"
    },
    {
      "inputs": [
        {
          "internalType": "string",
          "name": "artistId",
          "type": "string"
        }
      ],
      "name": "getTokenByArtistId",
      "outputs": [
        {
          "internalType": "address",
          "name": "",
          "type": "address"
        }
      ],
      "stateMutability": "view",
      "type": "function"
    },
    {
      "inputs": [],
      "name": "platformAddress",
      "outputs": [
        {
          "internalType": "address",
          "name": "",
          "type": "address"
        }
      ],
      "stateMutability": "view",
      "type": "function"
    },
    {
      "inputs": [],
      "name": "priceFeedAddress",
      "outputs": [
        {
          "internalType": "address",
          "name": "",
          "type": "address"
        }
      ],
      "stateMutability": "view",
      "type": "function"
    }
  ],
  "bytecode": "0x608060405234801561001057600080fd5b5060405161452d38038061452d83398101604081905261002f9161007c565b600180546001600160a01b039384166001600160a01b031991821617909155600280549290931691161790556100af565b80516001600160a01b038116811461007757600080fd5b919050565b6000806040838503121561008f57600080fd5b61009883610060565b91506100a660208401610060565b90509250929050565b61446f806100be6000396000f3fe60806040523480156200001157600080fd5b5060043610620000825760003560e01c80633c0c45661462000087578063622ae7aa14620000b1578063a759f26214620000ca578063cef0b26014620000e1578063d24c9aa114620000f8578063dbe55e56146200012f578063e0abca0b1462000143578063ec81aadb1462000157575b600080fd5b6001546001600160a01b03165b6040516001600160a01b0390911681526020015b60405180910390f35b620000bb6200016e565b604051620000a8919062000415565b62000094620000db3660046200050f565b620001d2565b62000094620000f2366004620005c9565b620003a9565b6200009462000109366004620005c9565b80516020818301810180516003825292820191909301209152546001600160a01b031681565b60015462000094906001600160a01b031681565b60025462000094906001600160a01b031681565b62000094620001683660046200060a565b620003dc565b60606000805480602002602001604051908101604052809291908181526020018280548015620001c857602002820191906000526020600020905b81546001600160a01b03168152600190910190602001808311620001a9575b5050505050905090565b6000806001600160a01b0316600387604051620001f091906200064a565b908152604051908190036020019020546001600160a01b031614620002575760405162461bcd60e51b8152602060048201526019602482015278105c9d1a5cdd08185b1c9958591e481c9959da5cdd195c9959603a1b604482015260640160405180910390fd5b6001546002546040516b033b2e3c9fd0803ce80000009266038d7ea4c68000926000928a928a92879287926001600160a01b03908116928d928d9290911690620002a19062000407565b620002b498979695949392919062000696565b604051809103906000f080158015620002d1573d6000803e3d6000fd5b50600080546001810182559080527f290decd9548b62a8d60345a988386fc84ba6bc95484008f6362f93160ef3e5630180546001600160a01b0319166001600160a01b038316179055604051909150819060039062000332908c906200064a565b90815260405190819003602001812080546001600160a01b03939093166001600160a01b0319909316929092179091557f960b76257dfac4eb2914f47ddd2c449dfa01a195f10313f0aaa5b08d9c26972e90620003959083908c908c90620006fe565b60405180910390a198975050505050505050565b6000600382604051620003bd91906200064a565b908152604051908190036020019020546001600160a01b031692915050565b60008181548110620003ed57600080fd5b6000918252602090912001546001600160a01b0316905081565b613cf7806200074383390190565b6020808252825182820181905260009190848201906040850190845b81811015620004585783516001600160a01b03168352928401929184019160010162000431565b50909695505050505050565b634e487b7160e01b600052604160045260246000fd5b600082601f8301126200048c57600080fd5b813567ffffffffffffffff80821115620004aa57620004aa62000464565b604051601f8301601f19908116603f01168101908282118183101715620004d557620004d562000464565b81604052838152866020858801011115620004ef57600080fd5b836020870160208301376000602085830101528094505050505092915050565b600080600080600060a086880312156200052857600080fd5b853567ffffffffffffffff808211156200054157600080fd5b6200054f89838a016200047a565b965060208801359150808211156200056657600080fd5b6200057489838a016200047a565b955060408801359150808211156200058b57600080fd5b506200059a888289016200047a565b93505060608601356001600160a01b0381168114620005b857600080fd5b949793965091946080013592915050565b600060208284031215620005dc57600080fd5b813567ffffffffffffffff811115620005f457600080fd5b62000602848285016200047a565b949350505050565b6000602082840312156200061d57600080fd5b5035919050565b60005b838110156200064157818101518382015260200162000627565b50506000910152565b600082516200065e81846020870162000624565b9190910192915050565b600081518084526200068281602086016020860162000624565b601f01601f19169290920160200192915050565b6000610100808352620006ac8184018c62000668565b90508281036020840152620006c2818b62000668565b6040840199909952505060608101959095526001600160a01b03938416608086015291831660a085015260c08401521660e09091015292915050565b6001600160a01b0384168152606060208201819052600090620007249083018562000668565b828103604084015262000738818562000668565b969550505050505056fe60806040523480156200001157600080fd5b5060405162003cf738038062003cf783398101604081905262000034916200058c565b3388886003620000458382620006da565b506004620000548282620006da565b5050506001600160a01b0381166200008757604051631e4fbdf760e01b8152600060048201526024015b60405180910390fd5b6200009281620002e7565b5060008511620000ef5760405162461bcd60e51b815260206004820152602160248201527f42617365207072696365206d7573742062652067726561746572207468616e206044820152600360fc1b60648201526084016200007e565b6064821115620001425760405162461bcd60e51b815260206004820152601860248201527f506f70756c6172697479206d75737420626520302d313030000000000000000060448201526064016200007e565b60168054336001600160a01b031991821617909155600f805482166001600160a01b038781169190911790915560068054909216908316179055600e859055600060646200019288600a620007bc565b6200019e9190620007dc565b9050620001ac848262000339565b6064620001bb886005620007bc565b620001c79190620007dc565b6007819055600f54620001e6916001600160a01b039091169062000339565b6064620001f5886005620007bc565b620002019190620007dc565b60088190556200021390309062000339565b606462000222886050620007bc565b6200022e9190620007dc565b60098190556200024090309062000339565b600c86905560646032841015620002595760056200025c565b600a5b60ff16600c546200026e9190620007bc565b6200027a9190620007dc565b600d556200028c6201518042620007dc565b601255600c54600954600091601491620002a79190620007bc565b620002b39190620007dc565b90506032841015620002c65780620002d3565b620002d3816002620007bc565b600a55506200081598505050505050505050565b600580546001600160a01b038381166001600160a01b0319831681179093556040519116919082907f8be0079c531659141344cd1fd0a4f28419497f9722a3daafe3b4186f6b6457e090600090a35050565b6001600160a01b038216620003655760405163ec442f0560e01b8152600060048201526024016200007e565b620003736000838362000377565b5050565b6001600160a01b038316620003a65780600260008282546200039a9190620007ff565b909155506200041a9050565b6001600160a01b03831660009081526020819052604090205481811015620003fb5760405163391434e360e21b81526001600160a01b038516600482015260248101829052604481018390526064016200007e565b6001600160a01b03841660009081526020819052604090209082900390555b6001600160a01b038216620004385760028054829003905562000457565b6001600160a01b03821660009081526020819052604090208054820190555b816001600160a01b0316836001600160a01b03167fddf252ad1be2c89b69c2b068fc378daa952ba7f163c4a11628f55a4df523b3ef836040516200049d91815260200190565b60405180910390a3505050565b634e487b7160e01b600052604160045260246000fd5b600082601f830112620004d257600080fd5b81516001600160401b0380821115620004ef57620004ef620004aa565b604051601f8301601f19908116603f011681019082821181831017156200051a576200051a620004aa565b816040528381526020925086838588010111156200053757600080fd5b600091505b838210156200055b57858201830151818301840152908201906200053c565b600093810190920192909252949350505050565b80516001600160a01b03811681146200058757600080fd5b919050565b600080600080600080600080610100898b031215620005aa57600080fd5b88516001600160401b0380821115620005c257600080fd5b620005d08c838d01620004c0565b995060208b0151915080821115620005e757600080fd5b50620005f68b828c01620004c0565b97505060408901519550606089015194506200061560808a016200056f565b93506200062560a08a016200056f565b925060c089015191506200063c60e08a016200056f565b90509295985092959890939650565b600181811c908216806200066057607f821691505b6020821081036200068157634e487b7160e01b600052602260045260246000fd5b50919050565b601f821115620006d557600081815260208120601f850160051c81016020861015620006b05750805b601f850160051c820191505b81811015620006d157828155600101620006bc565b5050505b505050565b81516001600160401b03811115620006f657620006f6620004aa565b6200070e816200070784546200064b565b8462000687565b602080601f8311600181146200074657600084156200072d5750858301515b600019600386901b1c1916600185901b178555620006d1565b600085815260208120601f198616915b82811015620007775788860151825594840194600190910190840162000756565b5085821015620007965787850151600019600388901b60f8161c191681555b5050505050600190811b01905550565b634e487b7160e01b600052601160045260246000fd5b8082028115828204841417620007d657620007d6620007a6565b92915050565b600082620007fa57634e487b7160e01b600052601260045260246000fd5b500490565b80820180821115620007d657620007d6620007a6565b6134d280620008256000396000f3fe6080604052600436106102b65760003560e01c806379f1f08d1161016f578063c7876ea4116100d1578063e5387de911610082578063e5387de914610819578063e7664af91461082f578063eb91d37e14610845578063f0e1ba2c1461085a578063f2fde38b14610870578063f7c38d1e14610890578063fb3ed5c7146108a557005b8063c7876ea414610740578063c9d0523014610756578063d1a93d1814610786578063d5f3948814610799578063d748d497146107b9578063dbe55e56146107d9578063dd62ed3e146107f957005b8063a0a8045e1161012b578063a0a8045e14610682578063a3aabeab14610697578063a9059cbb146106ad578063b202be43146106cd578063b26a0bf8146106e2578063b607958714610714578063bde8d2621461072a57005b806379f1f08d146105de5780637cfa439e146105f45780638da5cb5b1461062c57806395d89b411461064157806396d2e240146106565780639d1b464a1461066c57005b80634329a345116102185780635adc19c7116101d45780635adc19c7146105305780635e1775581461054657806367eeba0c1461055d57806370a0823114610573578063715018a6146105935780637185c677146105a857806375288d95146105c857005b80634329a3451461048d5780634a7248fa146104a35780634ba8ae81146104b857806350dd48df146104d85780635510ccba146104ed578063567d642c1461050357005b80632736e888116102725780632736e888146103885780632dcbd1c3146103d5578063313ce567146103e85780633278239b14610404578063365b98b21461041a578063411e314e146104475780634209fff11461045d57005b806306fdde03146102bf578063095ea7b3146102ea578063126d42b01461031a5780631451fd6f1461033e57806318160ddd1461035357806323b872dd1461036857005b366102bd57005b005b3480156102cb57600080fd5b506102d46108bb565b6040516102e19190612e42565b60405180910390f35b3480156102f657600080fd5b5061030a610305366004612ea7565b61094d565b60405190151581526020016102e1565b34801561032657600080fd5b5061033061025881565b6040519081526020016102e1565b34801561034a57600080fd5b50610330610967565b34801561035f57600080fd5b50600254610330565b34801561037457600080fd5b5061030a610383366004612ed1565b610976565b34801561039457600080fd5b506103a86103a3366004612f0d565b6109d4565b604080519687526020870195909552938501929092526060840152608083015260a082015260c0016102e1565b6102bd6103e3366004612f2f565b610a28565b3480156103f457600080fd5b50604051601281526020016102e1565b34801561041057600080fd5b5061033060125481565b34801561042657600080fd5b5061043a610435366004612f62565b610bf6565b6040516102e19190612f7b565b34801561045357600080fd5b5061033061019081565b34801561046957600080fd5b5061030a610478366004612f8f565b60156020526000908152604090205460ff1681565b34801561049957600080fd5b50610330610e1081565b3480156104af57600080fd5b50601154610330565b3480156104c457600080fd5b506102bd6104d3366004612f62565b610c20565b3480156104e457600080fd5b506102bd6114b5565b3480156104f957600080fd5b5061033061012c81565b34801561050f57600080fd5b5061033061051e366004612f8f565b600b6020526000908152604090205481565b34801561053c57600080fd5b5061033060115481565b34801561055257600080fd5b506103306201518081565b34801561056957600080fd5b50610330600a5481565b34801561057f57600080fd5b5061033061058e366004612f8f565b611616565b34801561059f57600080fd5b506102bd611631565b3480156105b457600080fd5b506102bd6105c3366004612ea7565b611645565b3480156105d457600080fd5b5061033060075481565b3480156105ea57600080fd5b5061033061032081565b34801561060057600080fd5b5061033061060f366004612ea7565b601760209081526000928352604080842090915290825290205481565b34801561063857600080fd5b5061043a611740565b34801561064d57600080fd5b506102d461174f565b34801561066257600080fd5b506103306103e881565b34801561067857600080fd5b50610330600e5481565b34801561068e57600080fd5b5061033061175e565b3480156106a357600080fd5b506103306101f481565b3480156106b957600080fd5b5061030a6106c8366004612ea7565b611833565b3480156106d957600080fd5b50610330603c81565b3480156106ee57600080fd5b506107026106fd366004612f62565b61187f565b6040516102e196959493929190612fec565b34801561072057600080fd5b5061033061384081565b34801561073657600080fd5b5061033061038481565b34801561074c57600080fd5b50610330600c5481565b34801561076257600080fd5b5061030a610771366004612f8f565b60136020526000908152604090205460ff1681565b6102bd610794366004612f62565b611b59565b3480156107a557600080fd5b5060165461043a906001600160a01b031681565b3480156107c557600080fd5b506102bd6107d4366004612f8f565b612465565b3480156107e557600080fd5b50600f5461043a906001600160a01b031681565b34801561080557600080fd5b5061033061081436600461306e565b612487565b34801561082557600080fd5b5061033060095481565b34801561083b57600080fd5b5061033061016d81565b34801561085157600080fd5b506103306124b2565b34801561086657600080fd5b50610330600d5481565b34801561087c57600080fd5b506102bd61088b366004612f8f565b6124e6565b34801561089c57600080fd5b50610330600881565b3480156108b157600080fd5b5061033060085481565b6060600380546108ca906130a1565b80601f01602080910402602001604051908101604052809291908181526020018280546108f6906130a1565b80156109435780601f1061091857610100808354040283529160200191610943565b820191906000526020600020905b81548152906001019060200180831161092657829003601f168201915b5050505050905090565b60003361095b818585612524565b60019150505b92915050565b60006109716124b2565b905090565b60008060646109868460026130f1565b610990919061311e565b9050600061099e8285613132565b90506109ab863386612536565b6109b686868361258a565b6109c8866109c2611740565b8461258a565b50600195945050505050565b601060205281600052604060002081815481106109f057600080fd5b600091825260209091206006909102018054600182015460028301546003840154600485015460059095015493965091945092909186565b6001600160a01b038316600090815260176020908152604080832085845290915281205490610a5783836130f1565b905080341015610aa35760405162461bcd60e51b8152602060048201526012602482015271496e73756666696369656e742066756e647360701b60448201526064015b60405180910390fd5b82610aad86611616565b1015610af15760405162461bcd60e51b815260206004820152601360248201527253656c6c6572206c61636b732073686172657360681b6044820152606401610a9a565b610afc85338561258a565b6040516001600160a01b0386169082156108fc029083906000818181858888f19350505050158015610b32573d6000803e3d6000fd5b506001600160a01b0385166000908152601760209081526040808320878452909152812081905560118054859290610b6b908490613145565b9091555050600e5460405181815260008051602061345d8339815191529060200160405180910390a1610ba2600e5485603c6125e9565b610bb1600e548561012c6125e9565b610bc0600e54856103846125e9565b610bcf600e5485610e106125e9565b610bde600e54856138406125e9565b610bee600e5485620151806125e9565b505050505050565b60148181548110610c0657600080fd5b6000918252602090912001546001600160a01b0316905081565b604080516080808252601290820152713d3d205b53454c4c5d205374617274203d3d60701b60a082015260208101839052600081830152426060820152905160008051602061347d8339815191529181900360c00190a1610c8033612a1c565b610c88612aa3565b6000610c926124b2565b905060008051602061347d83398151915281600042604051610cb693929190613158565b60405180910390a160008211610cde5760405162461bcd60e51b8152600401610a9a90613194565b604080516080808252600f908201526e105b5bdd5b9d081d995c9a599a5959608a1b60a082015260208101849052600081830152426060820152905160008051602061347d8339815191529181900360c00190a16000610d3d33611616565b60408051608080825260129082015271557365722073686172652062616c616e636560701b60a08201526020810183905290810185905242606082015290915060008051602061347d8339815191529060c00160405180910390a182811015610de45760405162461bcd60e51b8152602060048201526019602482015278139bdd08195b9bdd59da081cda185c995cc81d1bc81cd95b1b603a1b6044820152606401610a9a565b6000610df26008600a6132a4565b610dfc85856130f1565b610e06919061311e565b60408051608080825260169082015275546f74616c2063616c63756c6174656420287765692960501b60a082015260208101839052600081830152426060820152905191925060008051602061347d833981519152919081900360c00190a160006064610e748360026130f1565b610e7e919061311e565b905081811115610ecc5760405162461bcd60e51b815260206004820152601960248201527816d4d15313174811995948195e18d959591cc81c185e5bdd5d603a1b6044820152606401610a9a565b604080516080808252601490820152734665652063616c63756c6174656420287765692960601b60a082015260208101839052600081830152426060820152905160008051602061347d8339815191529181900360c00190a16000610f318284613132565b6040805160808082526010908201526f4e6574207061796f757420287765692960801b60a0820152602081018390524781830152426060820152905191925060008051602061347d833981519152919081900360c00190a180471015610fd95760405162461bcd60e51b815260206004820152601d60248201527f496e73756666696369656e7420636f6e74726163742062616c616e63650000006044820152606401610a9a565b336000908152600b60205260409081902054600a54915160008051602061347d8339815191529261100c929142906132b0565b60405180910390a1600a54336000908152600b6020526040902054611032908390613145565b11156110505760405162461bcd60e51b8152600401610a9a906132f0565b61105b33308861258a565b60008051602061347d8339815191528660004260405161107d93929190613323565b60405180910390a1600f546040516000916001600160a01b03169084908381818185875af1925050503d80600081146110d2576040519150601f19603f3d011682016040523d82523d6000602084013e6110d7565b606091505b50509050806111285760405162461bcd60e51b815260206004820152601a60248201527f5b53454c4c5d20466565207472616e73666572206661696c65640000000000006044820152606401610a9a565b604080516080808252601490820152734665652073656e7420746f20706c6174666f726d60601b60a082015260208101859052600081830152426060820152905160008051602061347d8339815191529181900360c00190a1604051600090339084908381818185875af1925050503d80600081146111c3576040519150601f19603f3d011682016040523d82523d6000602084013e6111c8565b606091505b50509050806112105760405162461bcd60e51b815260206004820152601460248201527316d4d15313174814185e5bdd5d0819985a5b195960621b6044820152606401610a9a565b604080516080808252601390820152722830bcb7baba1039b2b73a103a37903ab9b2b960691b60a082015260208101859052600081830152426060820152905160008051602061347d8339815191529181900360c00190a1336000908152600b602052604081208054859290611287908490613145565b9250508190555087601160008282546112a09190613145565b90915550506009546000906112b8906127109061311e565b6112c28a8a6130f1565b6112cd90600a6130f1565b6112d7919061311e565b905060006112e5828a613132565b9050600d54896112f59190613132565b81101561130c57600d54611309908a613132565b90505b600c5481101561131b5750600c545b670de0b6b3a764000061132c61175e565b611336919061311e565b611340908261311e565b600e81905560405190815260008051602061345d8339815191529060200160405180910390a1600e54604080516080808252600d908201526c141c9a58d9481d5c19185d1959609a1b60a0820152602081018c9052808201929092524260608301525160008051602061347d8339815191529181900360c00190a16113c7818b603c6125e9565b6113d4818b61012c6125e9565b6113e1818b6103846125e9565b6113ee818b610e106125e9565b6113fb818b6138406125e9565b611409818b620151806125e9565b604080516080808252601590820152743d3d205b53454c4c5d20436f6d706c657465203d3d60581b60a0820152602081018c9052333181830152426060820152905160008051602061347d8339815191529181900360c00190a1600e54604080518c81526020810192909252429082015233907f019eed797248695407e185a0977fa0dba8bbaaba6c2f6f4a8bdf6fb32e62ba239060600160405180910390a250505050505050505050565b6114bd611740565b6001600160a01b0316336001600160a01b031614806114e65750600f546001600160a01b031633145b6115235760405162461bcd60e51b815260206004820152600e60248201526d139bdd08185d5d1a1bdc9a5e995960921b6044820152606401610a9a565b6000600a600954611534919061311e565b90508061154030611616565b1061158d5760405162461bcd60e51b815260206004820152601d60248201527f537570706c79206e6f74206c6f7720656e6f75676820746f206d696e740000006044820152606401610a9a565b60006305f5e100905080600960008282546115a89190613145565b909155506115b890503082612b21565b600954604080516080808252601290820152714d696e74656420666f722074726164696e6760701b60a082015260208101849052808201929092524260608301525160008051602061347d8339815191529181900360c00190a15050565b6001600160a01b031660009081526020819052604090205490565b611639612b5b565b6116436000612b8d565b565b61164d612b5b565b60085481111561169b5760405162461bcd60e51b81526020600482015260196024820152784e6f7420656e6f7567682061697264726f7020746f6b656e7360381b6044820152606401610a9a565b6001600160a01b03821660009081526013602052604090205460ff16156116f75760405162461bcd60e51b815260206004820152601060248201526f105b1c9958591e481c9958d95a5d995960821b6044820152606401610a9a565b61170230838361258a565b6001600160a01b0382166000908152601360205260408120805460ff1916600117905560088054839290611737908490613132565b90915550505050565b6005546001600160a01b031690565b6060600480546108ca906130a1565b600080600660009054906101000a90046001600160a01b03166001600160a01b031663feaf968c6040518163ffffffff1660e01b815260040160a060405180830381865afa1580156117b4573d6000803e3d6000fd5b505050506040513d601f19601f820116820180604052508101906117d8919061337c565b5050509150506000811361182e5760405162461bcd60e51b815260206004820152601c60248201527f496e76616c69642070726963652066726f6d20436861696e6c696e6b000000006044820152606401610a9a565b919050565b60008060646118438460026130f1565b61184d919061311e565b9050600061185b8285613132565b905061186833868361258a565b611874336109c2611740565b506001949350505050565b60008181526010602052604090208054606091829182918291829182918067ffffffffffffffff8111156118b5576118b56133cc565b6040519080825280602002602001820160405280156118de578160200160208202803683370190505b5097508067ffffffffffffffff8111156118fa576118fa6133cc565b604051908082528060200260200182016040528015611923578160200160208202803683370190505b5096508067ffffffffffffffff81111561193f5761193f6133cc565b604051908082528060200260200182016040528015611968578160200160208202803683370190505b5095508067ffffffffffffffff811115611984576119846133cc565b6040519080825280602002602001820160405280156119ad578160200160208202803683370190505b5094508067ffffffffffffffff8111156119c9576119c96133cc565b6040519080825280602002602001820160405280156119f2578160200160208202803683370190505b5093508067ffffffffffffffff811115611a0e57611a0e6133cc565b604051908082528060200260200182016040528015611a37578160200160208202803683370190505b50925060005b81811015611b4d576000838281548110611a5957611a596133e2565b9060005260206000209060060201905080600001548a8381518110611a8057611a806133e2565b6020026020010181815250508060010154898381518110611aa357611aa36133e2565b6020026020010181815250508060020154888381518110611ac657611ac66133e2565b6020026020010181815250508060030154878381518110611ae957611ae96133e2565b6020026020010181815250508060040154868381518110611b0c57611b0c6133e2565b6020026020010181815250508060050154858381518110611b2f57611b2f6133e2565b60209081029190910101525080611b45816133f8565b915050611a3d565b50505091939550919395565b60408051608080825260119082015270456e74657265642062757953686172657360781b60a0820152602081018390523481830152426060820152905160008051602061347d8339815191529181900360c00190a160008111611bce5760405162461bcd60e51b8152600401610a9a90613194565b611bd733612a1c565b611bdf612aa3565b6000611be96124b2565b905060008111611c2f5760405162461bcd60e51b815260206004820152601160248201527005072696365206d757374206265203e203607c1b6044820152606401610a9a565b60008051602061347d83398151915281600042604051611c5193929190613158565b60405180910390a16000611c676008600a6132a4565b611c7184846130f1565b611c7b919061311e565b60408051608080825260159082015274151bdd185b0818dbdcdd0818d85b18dd5b185d1959605a1b60a0820152602081018390523481830152426060820152905191925060008051602061347d833981519152919081900360c00190a180341015611d225760405162461bcd60e51b8152602060048201526017602482015276125b9cdd59999a58da595b9d08199d5b991cc81cd95b9d604a1b6044820152606401610a9a565b6000611d2d30611616565b60408051608080825260169082015275436f6e74726163742073686172652062616c616e636560501b60a08201526020810183905290810186905242606082015290915060008051602061347d8339815191529060c00160405180910390a183811015611de65760405162461bcd60e51b815260206004820152602160248201527f5b4255595d204e6f7420656e6f7567682073686172657320617661696c61626c6044820152606560f81b6064820152608401610a9a565b60006064611df58460026130f1565b611dff919061311e565b905082811115611e515760405162461bcd60e51b815260206004820152601c60248201527f5b4255595d20466565206578636565647320746f74616c20636f7374000000006044820152606401610a9a565b6000611e5d8285613132565b6040805160808082526010908201526f11995948185b99081b995d0818dbdcdd60821b60a08201526020810185905290810182905242606082015290915060008051602061347d8339815191529060c00160405180910390a16000611ec133611616565b905060006064611ed060025490565b611edb9060056130f1565b611ee5919061311e565b604080516080808252601390820152720aae6cae440c4c2d8c2dcc6ca40ece640dac2f606b1b60a08201526020810185905290810182905242606082015290915060008051602061347d8339815191529060c00160405180910390a180611f4c8984613145565b1115611f9a5760405162461bcd60e51b815260206004820152601c60248201527f5b4255595d20486f6c64696e67206c696d6974206578636565646564000000006044820152606401610a9a565b336000908152600b60205260409081902054600a54915160008051602061347d83398151915292611fcd929142906132b0565b60405180910390a1600a54336000908152600b6020526040902054611ff3908590613145565b11156120115760405162461bcd60e51b8152600401610a9a906132f0565b61201c30338a61258a565b60008051602061347d8339815191528860004260405161203e93929190613323565b60405180910390a1600f546040516000916001600160a01b03169086908381818185875af1925050503d8060008114612093576040519150601f19603f3d011682016040523d82523d6000602084013e612098565b606091505b50509050806120e55760405162461bcd60e51b815260206004820152601960248201527816d095565748119959481d1c985b9cd9995c8819985a5b1959603a1b6044820152606401610a9a565b60408051608080825260089082015267119959481cd95b9d60c21b60a082015260208101879052600081830152426060820152905160008051602061347d8339815191529181900360c00190a1336000908152600b602052604081208054869290612151908490613145565b92505081905550886011600082825461216a9190613145565b9091555050348710156122675760006121838834613132565b604051909150600090339083908381818185875af1925050503d80600081146121c8576040519150601f19603f3d011682016040523d82523d6000602084013e6121cd565b606091505b50509050806122145760405162461bcd60e51b815260206004820152601360248201527216d0955657481499599d5b990819985a5b1959606a1b6044820152606401610a9a565b604080516080808252600b908201526a1499599d5b99081cd95b9d60aa1b60a082015260208101849052600081830152426060820152905160008051602061347d8339815191529181900360c00190a150505b6000612710600954612279919061311e565b6122838b8b6130f1565b61228e90600a6130f1565b612298919061311e565b905060006122a6828b613145565b9050600d548a6122b69190613145565b8111156122cd57600d546122ca908b613145565b90505b670de0b6b3a76400006122de61175e565b6122e8919061311e565b6122f2908261311e565b600e81905560405190815260008051602061345d8339815191529060200160405180910390a1600e54604080516080808252601390820152725072696365207570646174656420287765692960681b60a0820152602081018d9052808201929092524260608301525160008051602061347d8339815191529181900360c00190a161237f818c603c6125e9565b61238c818c61012c6125e9565b612399818c6103846125e9565b6123a6818c610e106125e9565b6123b3818c6138406125e9565b6123c1818c620151806125e9565b604080516080808252600c908201526b42757920636f6d706c65746560a01b60a0820152602081018d9052333181830152426060820152905160008051602061347d8339815191529181900360c00190a1600e54604080518d81526020810192909252429082015233907f849165c18b9d0fb161bcb145e4ab523d350e5c98f1dbbb1960331e7ee3ca67679060600160405180910390a25050505050505050505050565b61246d612b5b565b6001600160a01b03166000908152600b6020526040812055565b6001600160a01b03918216600090815260016020908152604080832093909416825291909152205490565b6000806124bd61175e565b9050670de0b6b3a764000081600e546124d691906130f1565b6124e0919061311e565b91505090565b6124ee612b5b565b6001600160a01b038116612518576000604051631e4fbdf760e01b8152600401610a9a9190612f7b565b61252181612b8d565b50565b6125318383836001612bdf565b505050565b60006125428484612487565b9050600019811015612584578181101561257557828183604051637dc7a0d960e11b8152600401610a9a93929190613411565b61258484848484036000612bdf565b50505050565b6001600160a01b0383166125b4576000604051634b637e8f60e11b8152600401610a9a9190612f7b565b6001600160a01b0382166125de57600060405163ec442f0560e01b8152600401610a9a9190612f7b565b612531838383612cb4565b8215806125f4575081155b156125fe57505050565b8042600061260c8383613432565b6126169083613132565b600085815260106020526040812080549293509190811580159061266657508383612642600185613132565b81548110612652576126526133e2565b906000526020600020906006020160000154145b612670578861269f565b8261267c600184613132565b8154811061268c5761268c6133e2565b9060005260206000209060060201600101545b9050816000036126ae5750600c545b8115806126e7575083836126c3600185613132565b815481106126d3576126d36133e2565b906000526020600020906006020160000154105b15612764576040805160c08101825285815260208082018481529282018c8152606083018d8152608084018e815260a085018e8152895460018181018c5560008c815296909620965160069091029096019586559551938501939093559051600284015551600383015551600482015590516005909101556127ef565b600083612772600185613132565b81548110612782576127826133e2565b9060005260206000209060060201905080600201548a116127a75780600201546127a9565b895b600282015560038101548a106127c35780600301546127c5565b895b6003820155600481018a90556005810180548a91906000906127e8908490613145565b9091555050505b60006127fa88612dcb565b84549091508110156128fc5760015b84548110156128b057848181548110612824576128246133e2565b9060005260206000209060060201856001836128409190613132565b81548110612850576128506133e2565b906000526020600020906006020160008201548160000155600182015481600101556002820154816002015560038201548160030155600482015481600401556005820154816005015590505080806128a8906133f8565b915050612809565b50838054806128c1576128c1613446565b600082815260208120600660001990930192830201818155600181018290556002810182905560038101829055600481018290556005015590555b8354600090859061290f90600190613132565b8154811061291f5761291f6133e2565b906000526020600020906006020190507f0a6c631b67056f9b60b6c373fdb9dd5bc434cdac6594093a678b17c1f4eb70c08987836001015484600201548560030154866004015487600501546040516129a99796959493929190968752602087019590955260408601939093526060850191909152608084015260a083015260c082015260e00190565b60405180910390a160018101546004820154604080516080808252600e908201526d10d85b991b1948155c19185d195960921b60a0820152602081018a905290810192909252606082015260008051602061347d8339815191529060c00160405180910390a15050505050505050505050565b6001600160a01b03811660009081526015602052604090205460ff16612521576014805460018181019092557fce6d7b5282bd9a3661ae061feed1dbda4e52ab073b1f9285be6e155d9c38d4ec0180546001600160a01b0384166001600160a01b031990911681179091556000908152601560205260409020805460ff1916909117905550565b6000612ab2620151804261311e565b90506012548111156125215760005b601454811015612b1b576000600b600060148481548110612ae457612ae46133e2565b60009182526020808320909101546001600160a01b0316835282019290925260400190205580612b13816133f8565b915050612ac1565b50601255565b6001600160a01b038216612b4b57600060405163ec442f0560e01b8152600401610a9a9190612f7b565b612b5760008383612cb4565b5050565b33612b64611740565b6001600160a01b031614611643573360405163118cdaa760e01b8152600401610a9a9190612f7b565b600580546001600160a01b038381166001600160a01b0319831681179093556040519116919082907f8be0079c531659141344cd1fd0a4f28419497f9722a3daafe3b4186f6b6457e090600090a35050565b6001600160a01b038416612c0957600060405163e602df0560e01b8152600401610a9a9190612f7b565b6001600160a01b038316612c33576000604051634a1406b160e11b8152600401610a9a9190612f7b565b6001600160a01b038085166000908152600160209081526040808320938716835292905220829055801561258457826001600160a01b0316846001600160a01b03167f8c5be1e5ebec7d5bd14f71427d1e84f3dd0314c0f7b2291e5b200ac8c7c3b92584604051612ca691815260200190565b60405180910390a350505050565b6001600160a01b038316612cdf578060026000828254612cd49190613145565b90915550612d3e9050565b6001600160a01b03831660009081526020819052604090205481811015612d1f5783818360405163391434e360e21b8152600401610a9a93929190613411565b6001600160a01b03841660009081526020819052604090209082900390555b6001600160a01b038216612d5a57600280548290039055612d79565b6001600160a01b03821660009081526020819052604090208054820190555b816001600160a01b0316836001600160a01b03167fddf252ad1be2c89b69c2b068fc378daa952ba7f163c4a11628f55a4df523b3ef83604051612dbe91815260200190565b60405180910390a3505050565b6000603c8203612dde57506103e8919050565b61012c8203612df05750610320919050565b6103848203612e025750610258919050565b610e108203612e1457506101f4919050565b6138408203612e265750610190919050565b620151808203612e39575061016d919050565b506101f4919050565b600060208083528351808285015260005b81811015612e6f57858101830151858201604001528201612e53565b506000604082860101526040601f19601f8301168501019250505092915050565b80356001600160a01b038116811461182e57600080fd5b60008060408385031215612eba57600080fd5b612ec383612e90565b946020939093013593505050565b600080600060608486031215612ee657600080fd5b612eef84612e90565b9250612efd60208501612e90565b9150604084013590509250925092565b60008060408385031215612f2057600080fd5b50508035926020909101359150565b600080600060608486031215612f4457600080fd5b612f4d84612e90565b95602085013595506040909401359392505050565b600060208284031215612f7457600080fd5b5035919050565b6001600160a01b0391909116815260200190565b600060208284031215612fa157600080fd5b612faa82612e90565b9392505050565b600081518084526020808501945080840160005b83811015612fe157815187529582019590820190600101612fc5565b509495945050505050565b60c081526000612fff60c0830189612fb1565b82810360208401526130118189612fb1565b905082810360408401526130258188612fb1565b905082810360608401526130398187612fb1565b9050828103608084015261304d8186612fb1565b905082810360a08401526130618185612fb1565b9998505050505050505050565b6000806040838503121561308157600080fd5b61308a83612e90565b915061309860208401612e90565b90509250929050565b600181811c908216806130b557607f821691505b6020821081036130d557634e487b7160e01b600052602260045260246000fd5b50919050565b634e487b7160e01b600052601160045260246000fd5b8082028115828204841417610961576109616130db565b634e487b7160e01b600052601260045260246000fd5b60008261312d5761312d613108565b500490565b81810381811115610961576109616130db565b80820180821115610961576109616130db565b6080808252600d908201526c141c9a58d94819995d18da1959609a1b60a082015260208101939093526040830191909152606082015260c00190565b6020808252601290820152710416d6f756e74206d757374206265203e20360741b604082015260600190565b600181815b808511156131fb5781600019048211156131e1576131e16130db565b808516156131ee57918102915b93841c93908002906131c5565b509250929050565b60008261321257506001610961565b8161321f57506000610961565b8160018114613235576002811461323f5761325b565b6001915050610961565b60ff841115613250576132506130db565b50506001821b610961565b5060208310610133831016604e8410600b841016171561327e575081810a610961565b61328883836131c0565b806000190482111561329c5761329c6130db565b029392505050565b6000612faa8383613203565b6080808252601190820152704461696c7920747261646520636865636b60781b60a082015260208101939093526040830191909152606082015260c00190565b602080825260199082015278115e18d959591cc819185a5b1e481d1c985919481b1a5b5a5d603a1b604082015260600190565b60808082526010908201526f5472616e73666572207375636365737360801b60a082015260208101939093526040830191909152606082015260c00190565b805169ffffffffffffffffffff8116811461182e57600080fd5b600080600080600060a0868803121561339457600080fd5b61339d86613362565b94506020860151935060408601519250606086015191506133c060808701613362565b90509295509295909350565b634e487b7160e01b600052604160045260246000fd5b634e487b7160e01b600052603260045260246000fd5b60006001820161340a5761340a6130db565b5060010190565b6001600160a01b039390931683526020830191909152604082015260600190565b60008261344157613441613108565b500690565b634e487b7160e01b600052603160045260246000fdfe66cbca4f3c64fecf1dcb9ce094abcf7f68c3450a1d4e3a8e917dd621edb4ebe0642e664bea9ee78301be12e9bc0aa41edc30a395961aefab2f62ea99d82703f2a264697066735822122077b26917ce39202aea0092dca65d1b3aefd5a7d4ef11f031adefaceae29f694e64736f6c63430008140033a2646970667358221220c5279b672f69b4224f418b940cd4ec5d17007fd3e87f3262553cf2783cee58c164736f6c63430008140033",
  "linkReferences": {},
  "deployedLinkReferences": {}
}