{
  "_format": "hh-sol-artifact-1",
  "contractName": "ArtistSharesToken",
  "sourceName": "contracts/ArtistSharesToken.sol",
  "abi": [
    {
      "inputs": [
        {
          "internalType": "string",
          "name": "name",
          "type": "string"
        },
        {
          "internalType": "string",
          "name": "symbol",
          "type": "string"
        },
        {
          "internalType": "uint256",
          "name": "initialSupply",
          "type": "uint256"
        },
        {
          "internalType": "uint256",
          "name": "_basePrice",
          "type": "uint256"
        },
        {
          "internalType": "address",
          "name": "_platformAddress",
          "type": "address"
        },
        {
          "internalType": "address",
          "name": "_teamWallet",
          "type": "address"
        },
        {
          "internalType": "uint256",
          "name": "popularity",
          "type": "uint256"
        },
        {
          "internalType": "address",
          "name": "_priceFeedAddress",
          "type": "address"
        }
      ],
      "stateMutability": "nonpayable",
      "type": "constructor"
    },
    {
      "inputs": [
        {
          "internalType": "address",
          "name": "spender",
          "type": "address"
        },
        {
          "internalType": "uint256",
          "name": "allowance",
          "type": "uint256"
        },
        {
          "internalType": "uint256",
          "name": "needed",
          "type": "uint256"
        }
      ],
      "name": "ERC20InsufficientAllowance",
      "type": "error"
    },
    {
      "inputs": [
        {
          "internalType": "address",
          "name": "sender",
          "type": "address"
        },
        {
          "internalType": "uint256",
          "name": "balance",
          "type": "uint256"
        },
        {
          "internalType": "uint256",
          "name": "needed",
          "type": "uint256"
        }
      ],
      "name": "ERC20InsufficientBalance",
      "type": "error"
    },
    {
      "inputs": [
        {
          "internalType": "address",
          "name": "approver",
          "type": "address"
        }
      ],
      "name": "ERC20InvalidApprover",
      "type": "error"
    },
    {
      "inputs": [
        {
          "internalType": "address",
          "name": "receiver",
          "type": "address"
        }
      ],
      "name": "ERC20InvalidReceiver",
      "type": "error"
    },
    {
      "inputs": [
        {
          "internalType": "address",
          "name": "sender",
          "type": "address"
        }
      ],
      "name": "ERC20InvalidSender",
      "type": "error"
    },
    {
      "inputs": [
        {
          "internalType": "address",
          "name": "spender",
          "type": "address"
        }
      ],
      "name": "ERC20InvalidSpender",
      "type": "error"
    },
    {
      "inputs": [
        {
          "internalType": "address",
          "name": "owner",
          "type": "address"
        }
      ],
      "name": "OwnableInvalidOwner",
      "type": "error"
    },
    {
      "inputs": [
        {
          "internalType": "address",
          "name": "account",
          "type": "address"
        }
      ],
      "name": "OwnableUnauthorizedAccount",
      "type": "error"
    },
    {
      "anonymous": false,
      "inputs": [
        {
          "indexed": true,
          "internalType": "address",
          "name": "owner",
          "type": "address"
        },
        {
          "indexed": true,
          "internalType": "address",
          "name": "spender",
          "type": "address"
        },
        {
          "indexed": false,
          "internalType": "uint256",
          "name": "value",
          "type": "uint256"
        }
      ],
      "name": "Approval",
      "type": "event"
    },
    {
      "anonymous": false,
      "inputs": [
        {
          "indexed": false,
          "internalType": "uint256",
          "name": "timeframe",
          "type": "uint256"
        },
        {
          "indexed": false,
          "internalType": "uint256",
          "name": "timestamp",
          "type": "uint256"
        },
        {
          "indexed": false,
          "internalType": "uint256",
          "name": "open",
          "type": "uint256"
        },
        {
          "indexed": false,
          "internalType": "uint256",
          "name": "high",
          "type": "uint256"
        },
        {
          "indexed": false,
          "internalType": "uint256",
          "name": "low",
          "type": "uint256"
        },
        {
          "indexed": false,
          "internalType": "uint256",
          "name": "close",
          "type": "uint256"
        },
        {
          "indexed": false,
          "internalType": "uint256",
          "name": "volume",
          "type": "uint256"
        }
      ],
      "name": "CandleUpdated",
      "type": "event"
    },
    {
      "anonymous": false,
      "inputs": [
        {
          "indexed": false,
          "internalType": "uint256",
          "name": "newDailyLimit",
          "type": "uint256"
        },
        {
          "indexed": false,
          "internalType": "uint256",
          "name": "newTargetDailyLimitUsd",
          "type": "uint256"
        },
        {
          "indexed": false,
          "internalType": "uint256",
          "name": "timestamp",
          "type": "uint256"
        }
      ],
      "name": "DailyLimitAdjusted",
      "type": "event"
    },
    {
      "anonymous": false,
      "inputs": [
        {
          "indexed": false,
          "internalType": "string",
          "name": "message",
          "type": "string"
        },
        {
          "indexed": false,
          "internalType": "uint256",
          "name": "value1",
          "type": "uint256"
        },
        {
          "indexed": false,
          "internalType": "uint256",
          "name": "value2",
          "type": "uint256"
        },
        {
          "indexed": false,
          "internalType": "uint256",
          "name": "value3",
          "type": "uint256"
        }
      ],
      "name": "DebugLog",
      "type": "event"
    },
    {
      "anonymous": false,
      "inputs": [
        {
          "indexed": true,
          "internalType": "address",
          "name": "previousOwner",
          "type": "address"
        },
        {
          "indexed": true,
          "internalType": "address",
          "name": "newOwner",
          "type": "address"
        }
      ],
      "name": "OwnershipTransferred",
      "type": "event"
    },
    {
      "anonymous": false,
      "inputs": [
        {
          "indexed": false,
          "internalType": "uint256",
          "name": "newPrice",
          "type": "uint256"
        }
      ],
      "name": "PriceUpdated",
      "type": "event"
    },
    {
      "anonymous": false,
      "inputs": [
        {
          "indexed": true,
          "internalType": "address",
          "name": "buyer",
          "type": "address"
        },
        {
          "indexed": false,
          "internalType": "uint256",
          "name": "amount",
          "type": "uint256"
        },
        {
          "indexed": false,
          "internalType": "uint256",
          "name": "price",
          "type": "uint256"
        },
        {
          "indexed": false,
          "internalType": "uint256",
          "name": "timestamp",
          "type": "uint256"
        }
      ],
      "name": "SharesBought",
      "type": "event"
    },
    {
      "anonymous": false,
      "inputs": [
        {
          "indexed": true,
          "internalType": "address",
          "name": "user",
          "type": "address"
        },
        {
          "indexed": true,
          "internalType": "uint256",
          "name": "shareId",
          "type": "uint256"
        },
        {
          "indexed": false,
          "internalType": "uint256",
          "name": "price",
          "type": "uint256"
        }
      ],
      "name": "SharesListed",
      "type": "event"
    },
    {
      "anonymous": false,
      "inputs": [
        {
          "indexed": true,
          "internalType": "address",
          "name": "seller",
          "type": "address"
        },
        {
          "indexed": false,
          "internalType": "uint256",
          "name": "amount",
          "type": "uint256"
        },
        {
          "indexed": false,
          "internalType": "uint256",
          "name": "price",
          "type": "uint256"
        },
        {
          "indexed": false,
          "internalType": "uint256",
          "name": "timestamp",
          "type": "uint256"
        }
      ],
      "name": "SharesSold",
      "type": "event"
    },
    {
      "anonymous": false,
      "inputs": [
        {
          "indexed": true,
          "internalType": "address",
          "name": "from",
          "type": "address"
        },
        {
          "indexed": true,
          "internalType": "address",
          "name": "to",
          "type": "address"
        },
        {
          "indexed": false,
          "internalType": "uint256",
          "name": "value",
          "type": "uint256"
        }
      ],
      "name": "Transfer",
      "type": "event"
    },
    {
      "stateMutability": "payable",
      "type": "fallback"
    },
    {
      "inputs": [],
      "name": "ETH_USD_DECIMALS",
      "outputs": [
        {
          "internalType": "uint256",
          "name": "",
          "type": "uint256"
        }
      ],
      "stateMutability": "view",
      "type": "function"
    },
    {
      "inputs": [],
      "name": "MAX_CANDLES_15M",
      "outputs": [
        {
          "internalType": "uint256",
          "name": "",
          "type": "uint256"
        }
      ],
      "stateMutability": "view",
      "type": "function"
    },
    {
      "inputs": [],
      "name": "MAX_CANDLES_1D",
      "outputs": [
        {
          "internalType": "uint256",
          "name": "",
          "type": "uint256"
        }
      ],
      "stateMutability": "view",
      "type": "function"
    },
    {
      "inputs": [],
      "name": "MAX_CANDLES_1H",
      "outputs": [
        {
          "internalType": "uint256",
          "name": "",
          "type": "uint256"
        }
      ],
      "stateMutability": "view",
      "type": "function"
    },
    {
      "inputs": [],
      "name": "MAX_CANDLES_1M",
      "outputs": [
        {
          "internalType": "uint256",
          "name": "",
          "type": "uint256"
        }
      ],
      "stateMutability": "view",
      "type": "function"
    },
    {
      "inputs": [],
      "name": "MAX_CANDLES_4H",
      "outputs": [
        {
          "internalType": "uint256",
          "name": "",
          "type": "uint256"
        }
      ],
      "stateMutability": "view",
      "type": "function"
    },
    {
      "inputs": [],
      "name": "MAX_CANDLES_5M",
      "outputs": [
        {
          "internalType": "uint256",
          "name": "",
          "type": "uint256"
        }
      ],
      "stateMutability": "view",
      "type": "function"
    },
    {
      "inputs": [],
      "name": "PRICE_INCREASE_PER_TOKEN",
      "outputs": [
        {
          "internalType": "uint256",
          "name": "",
          "type": "uint256"
        }
      ],
      "stateMutability": "view",
      "type": "function"
    },
    {
      "inputs": [],
      "name": "TF_15MIN",
      "outputs": [
        {
          "internalType": "uint256",
          "name": "",
          "type": "uint256"
        }
      ],
      "stateMutability": "view",
      "type": "function"
    },
    {
      "inputs": [],
      "name": "TF_1DAY",
      "outputs": [
        {
          "internalType": "uint256",
          "name": "",
          "type": "uint256"
        }
      ],
      "stateMutability": "view",
      "type": "function"
    },
    {
      "inputs": [],
      "name": "TF_1H",
      "outputs": [
        {
          "internalType": "uint256",
          "name": "",
          "type": "uint256"
        }
      ],
      "stateMutability": "view",
      "type": "function"
    },
    {
      "inputs": [],
      "name": "TF_1MIN",
      "outputs": [
        {
          "internalType": "uint256",
          "name": "",
          "type": "uint256"
        }
      ],
      "stateMutability": "view",
      "type": "function"
    },
    {
      "inputs": [],
      "name": "TF_4H",
      "outputs": [
        {
          "internalType": "uint256",
          "name": "",
          "type": "uint256"
        }
      ],
      "stateMutability": "view",
      "type": "function"
    },
    {
      "inputs": [],
      "name": "TF_5MIN",
      "outputs": [
        {
          "internalType": "uint256",
          "name": "",
          "type": "uint256"
        }
      ],
      "stateMutability": "view",
      "type": "function"
    },
    {
      "inputs": [
        {
          "internalType": "uint256",
          "name": "newTargetDailyLimitUsd",
          "type": "uint256"
        }
      ],
      "name": "adjustDailyLimit",
      "outputs": [],
      "stateMutability": "nonpayable",
      "type": "function"
    },
    {
      "inputs": [],
      "name": "airdropSupply",
      "outputs": [
        {
          "internalType": "uint256",
          "name": "",
          "type": "uint256"
        }
      ],
      "stateMutability": "view",
      "type": "function"
    },
    {
      "inputs": [
        {
          "internalType": "address",
          "name": "owner",
          "type": "address"
        },
        {
          "internalType": "address",
          "name": "spender",
          "type": "address"
        }
      ],
      "name": "allowance",
      "outputs": [
        {
          "internalType": "uint256",
          "name": "",
          "type": "uint256"
        }
      ],
      "stateMutability": "view",
      "type": "function"
    },
    {
      "inputs": [
        {
          "internalType": "address",
          "name": "spender",
          "type": "address"
        },
        {
          "internalType": "uint256",
          "name": "value",
          "type": "uint256"
        }
      ],
      "name": "approve",
      "outputs": [
        {
          "internalType": "bool",
          "name": "",
          "type": "bool"
        }
      ],
      "stateMutability": "nonpayable",
      "type": "function"
    },
    {
      "inputs": [
        {
          "internalType": "address",
          "name": "account",
          "type": "address"
        }
      ],
      "name": "balanceOf",
      "outputs": [
        {
          "internalType": "uint256",
          "name": "",
          "type": "uint256"
        }
      ],
      "stateMutability": "view",
      "type": "function"
    },
    {
      "inputs": [],
      "name": "basePrice",
      "outputs": [
        {
          "internalType": "uint256",
          "name": "",
          "type": "uint256"
        }
      ],
      "stateMutability": "view",
      "type": "function"
    },
    {
      "inputs": [
        {
          "internalType": "address",
          "name": "seller",
          "type": "address"
        },
        {
          "internalType": "uint256",
          "name": "shareId",
          "type": "uint256"
        },
        {
          "internalType": "uint256",
          "name": "amount",
          "type": "uint256"
        }
      ],
      "name": "buyListedShares",
      "outputs": [],
      "stateMutability": "payable",
      "type": "function"
    },
    {
      "inputs": [
        {
          "internalType": "uint256",
          "name": "amount",
          "type": "uint256"
        }
      ],
      "name": "buyShares",
      "outputs": [],
      "stateMutability": "payable",
      "type": "function"
    },
    {
      "inputs": [
        {
          "internalType": "uint256",
          "name": "",
          "type": "uint256"
        },
        {
          "internalType": "uint256",
          "name": "",
          "type": "uint256"
        }
      ],
      "name": "candlesByTimeframe",
      "outputs": [
        {
          "internalType": "uint256",
          "name": "timestamp",
          "type": "uint256"
        },
        {
          "internalType": "uint256",
          "name": "open",
          "type": "uint256"
        },
        {
          "internalType": "uint256",
          "name": "high",
          "type": "uint256"
        },
        {
          "internalType": "uint256",
          "name": "low",
          "type": "uint256"
        },
        {
          "internalType": "uint256",
          "name": "close",
          "type": "uint256"
        },
        {
          "internalType": "uint256",
          "name": "volume",
          "type": "uint256"
        }
      ],
      "stateMutability": "view",
      "type": "function"
    },
    {
      "inputs": [],
      "name": "currentPrice",
      "outputs": [
        {
          "internalType": "uint256",
          "name": "",
          "type": "uint256"
        }
      ],
      "stateMutability": "view",
      "type": "function"
    },
    {
      "inputs": [],
      "name": "dailyLimit",
      "outputs": [
        {
          "internalType": "uint256",
          "name": "",
          "type": "uint256"
        }
      ],
      "stateMutability": "view",
      "type": "function"
    },
    {
      "inputs": [
        {
          "internalType": "address",
          "name": "",
          "type": "address"
        }
      ],
      "name": "dailyTrades",
      "outputs": [
        {
          "internalType": "uint256",
          "name": "",
          "type": "uint256"
        }
      ],
      "stateMutability": "view",
      "type": "function"
    },
    {
      "inputs": [],
      "name": "decimals",
      "outputs": [
        {
          "internalType": "uint8",
          "name": "",
          "type": "uint8"
        }
      ],
      "stateMutability": "view",
      "type": "function"
    },
    {
      "inputs": [],
      "name": "deployer",
      "outputs": [
        {
          "internalType": "address",
          "name": "",
          "type": "address"
        }
      ],
      "stateMutability": "view",
      "type": "function"
    },
    {
      "inputs": [
        {
          "internalType": "address",
          "name": "user",
          "type": "address"
        },
        {
          "internalType": "uint256",
          "name": "amount",
          "type": "uint256"
        }
      ],
      "name": "distributeAirdrop",
      "outputs": [],
      "stateMutability": "nonpayable",
      "type": "function"
    },
    {
      "inputs": [
        {
          "internalType": "uint256",
          "name": "timeframe",
          "type": "uint256"
        }
      ],
      "name": "getCandleHistory",
      "outputs": [
        {
          "internalType": "uint256[]",
          "name": "timestamps",
          "type": "uint256[]"
        },
        {
          "internalType": "uint256[]",
          "name": "opens",
          "type": "uint256[]"
        },
        {
          "internalType": "uint256[]",
          "name": "highs",
          "type": "uint256[]"
        },
        {
          "internalType": "uint256[]",
          "name": "lows",
          "type": "uint256[]"
        },
        {
          "internalType": "uint256[]",
          "name": "closes",
          "type": "uint256[]"
        },
        {
          "internalType": "uint256[]",
          "name": "volumes",
          "type": "uint256[]"
        }
      ],
      "stateMutability": "view",
      "type": "function"
    },
    {
      "inputs": [],
      "name": "getCurrentPrice",
      "outputs": [
        {
          "internalType": "uint256",
          "name": "",
          "type": "uint256"
        }
      ],
      "stateMutability": "view",
      "type": "function"
    },
    {
      "inputs": [],
      "name": "getEthUsdPrice",
      "outputs": [
        {
          "internalType": "uint256",
          "name": "",
          "type": "uint256"
        }
      ],
      "stateMutability": "view",
      "type": "function"
    },
    {
      "inputs": [],
      "name": "getTotalVolumeTraded",
      "outputs": [
        {
          "internalType": "uint256",
          "name": "",
          "type": "uint256"
        }
      ],
      "stateMutability": "view",
      "type": "function"
    },
    {
      "inputs": [],
      "name": "getUsers",
      "outputs": [
        {
          "internalType": "address[]",
          "name": "",
          "type": "address[]"
        }
      ],
      "stateMutability": "view",
      "type": "function"
    },
    {
      "inputs": [],
      "name": "globalDailyTrades",
      "outputs": [
        {
          "internalType": "uint256",
          "name": "",
          "type": "uint256"
        }
      ],
      "stateMutability": "view",
      "type": "function"
    },
    {
      "inputs": [
        {
          "internalType": "address",
          "name": "",
          "type": "address"
        }
      ],
      "name": "hasReceivedAirdrop",
      "outputs": [
        {
          "internalType": "bool",
          "name": "",
          "type": "bool"
        }
      ],
      "stateMutability": "view",
      "type": "function"
    },
    {
      "inputs": [
        {
          "internalType": "address",
          "name": "",
          "type": "address"
        }
      ],
      "name": "isUser",
      "outputs": [
        {
          "internalType": "bool",
          "name": "",
          "type": "bool"
        }
      ],
      "stateMutability": "view",
      "type": "function"
    },
    {
      "inputs": [],
      "name": "lastRecordedDay",
      "outputs": [
        {
          "internalType": "uint256",
          "name": "",
          "type": "uint256"
        }
      ],
      "stateMutability": "view",
      "type": "function"
    },
    {
      "inputs": [],
      "name": "mintForTrading",
      "outputs": [],
      "stateMutability": "nonpayable",
      "type": "function"
    },
    {
      "inputs": [],
      "name": "name",
      "outputs": [
        {
          "internalType": "string",
          "name": "",
          "type": "string"
        }
      ],
      "stateMutability": "view",
      "type": "function"
    },
    {
      "inputs": [],
      "name": "owner",
      "outputs": [
        {
          "internalType": "address",
          "name": "",
          "type": "address"
        }
      ],
      "stateMutability": "view",
      "type": "function"
    },
    {
      "inputs": [],
      "name": "platformAddress",
      "outputs": [
        {
          "internalType": "address",
          "name": "",
          "type": "address"
        }
      ],
      "stateMutability": "view",
      "type": "function"
    },
    {
      "inputs": [],
      "name": "platformSupply",
      "outputs": [
        {
          "internalType": "uint256",
          "name": "",
          "type": "uint256"
        }
      ],
      "stateMutability": "view",
      "type": "function"
    },
    {
      "inputs": [],
      "name": "priceLimit",
      "outputs": [
        {
          "internalType": "uint256",
          "name": "",
          "type": "uint256"
        }
      ],
      "stateMutability": "view",
      "type": "function"
    },
    {
      "inputs": [],
      "name": "renounceOwnership",
      "outputs": [],
      "stateMutability": "nonpayable",
      "type": "function"
    },
    {
      "inputs": [
        {
          "internalType": "address",
          "name": "user",
          "type": "address"
        }
      ],
      "name": "resetDailyLimits",
      "outputs": [],
      "stateMutability": "nonpayable",
      "type": "function"
    },
    {
      "inputs": [
        {
          "internalType": "uint256",
          "name": "amount",
          "type": "uint256"
        }
      ],
      "name": "sellShares",
      "outputs": [],
      "stateMutability": "nonpayable",
      "type": "function"
    },
    {
      "inputs": [
        {
          "internalType": "address",
          "name": "",
          "type": "address"
        },
        {
          "internalType": "uint256",
          "name": "",
          "type": "uint256"
        }
      ],
      "name": "sharesForSale",
      "outputs": [
        {
          "internalType": "uint256",
          "name": "",
          "type": "uint256"
        }
      ],
      "stateMutability": "view",
      "type": "function"
    },
    {
      "inputs": [],
      "name": "symbol",
      "outputs": [
        {
          "internalType": "string",
          "name": "",
          "type": "string"
        }
      ],
      "stateMutability": "view",
      "type": "function"
    },
    {
      "inputs": [],
      "name": "totalSupply",
      "outputs": [
        {
          "internalType": "uint256",
          "name": "",
          "type": "uint256"
        }
      ],
      "stateMutability": "view",
      "type": "function"
    },
    {
      "inputs": [],
      "name": "totalVolumeTraded",
      "outputs": [
        {
          "internalType": "uint256",
          "name": "",
          "type": "uint256"
        }
      ],
      "stateMutability": "view",
      "type": "function"
    },
    {
      "inputs": [
        {
          "internalType": "address",
          "name": "recipient",
          "type": "address"
        },
        {
          "internalType": "uint256",
          "name": "amount",
          "type": "uint256"
        }
      ],
      "name": "transfer",
      "outputs": [
        {
          "internalType": "bool",
          "name": "",
          "type": "bool"
        }
      ],
      "stateMutability": "nonpayable",
      "type": "function"
    },
    {
      "inputs": [
        {
          "internalType": "address",
          "name": "sender",
          "type": "address"
        },
        {
          "internalType": "address",
          "name": "recipient",
          "type": "address"
        },
        {
          "internalType": "uint256",
          "name": "amount",
          "type": "uint256"
        }
      ],
      "name": "transferFrom",
      "outputs": [
        {
          "internalType": "bool",
          "name": "",
          "type": "bool"
        }
      ],
      "stateMutability": "nonpayable",
      "type": "function"
    },
    {
      "inputs": [
        {
          "internalType": "address",
          "name": "newOwner",
          "type": "address"
        }
      ],
      "name": "transferOwnership",
      "outputs": [],
      "stateMutability": "nonpayable",
      "type": "function"
    },
    {
      "inputs": [],
      "name": "userTradingSupply",
      "outputs": [
        {
          "internalType": "uint256",
          "name": "",
          "type": "uint256"
        }
      ],
      "stateMutability": "view",
      "type": "function"
    },
    {
      "inputs": [
        {
          "internalType": "uint256",
          "name": "",
          "type": "uint256"
        }
      ],
      "name": "users",
      "outputs": [
        {
          "internalType": "address",
          "name": "",
          "type": "address"
        }
      ],
      "stateMutability": "view",
      "type": "function"
    },
    {
      "stateMutability": "payable",
      "type": "receive"
    }
  ],
  "bytecode": "0x60806040523480156200001157600080fd5b5060405162004bb138038062004bb1833981016040819052620000349162000a4a565b338888600362000045838262000b98565b50600462000054828262000b98565b5050506001600160a01b0381166200008757604051631e4fbdf760e01b8152600060048201526024015b60405180910390fd5b6200009281620006d0565b5060008511620000ef5760405162461bcd60e51b815260206004820152602160248201527f42617365207072696365206d7573742062652067726561746572207468616e206044820152600360fc1b60648201526084016200007e565b6064821115620001425760405162461bcd60e51b815260206004820152601860248201527f506f70756c6172697479206d75737420626520302d313030000000000000000060448201526064016200007e565b60178054336001600160a01b0319918216179091556010805482166001600160a01b038781169190911790915560068054909216908316179055600f859055600060646200019288600a62000c7a565b6200019e919062000cb0565b9050620001ac848262000722565b6064620001bb88600562000c7a565b620001c7919062000cb0565b6007819055601054620001e6916001600160a01b039091169062000722565b6064620001f588600562000c7a565b62000201919062000cb0565b60088190556200021390309062000722565b60646200022288605062000c7a565b6200022e919062000cb0565b60098190556200024090309062000722565b600954604080516080808252601d908201527f7573657254726164696e67537570706c7920696e697469616c697a656400000060a08201526020810192909252810188905242606082015260008051602062004b918339815191529060c00160405180910390a1600d86905560646032841015620002c0576005620002c3565b600a5b60ff16600d54620002d5919062000c7a565b620002e1919062000cb0565b600e55620002f3620151804262000cb0565b60135560006200030262000760565b905060008111620003565760405162461bcd60e51b815260206004820152601560248201527f496e76616c6964204554482f555344207072696365000000000000000000000060448201526064016200007e565b600062000366856101f462000c7a565b620003749061c35062000cc7565b9050816200038b82670de0b6b3a764000062000c7a565b6200039b906305f5e10062000c7a565b620003a7919062000cb0565b600a819055604080516080808252600e908201526d19185a5b1e531a5b5a5d081cd95d60921b60a08201526020810192909252810183905242606082015260008051602062004b918339815191529060c00160405180910390a16040805160c081018252603c815261012c602082015261038491810191909152610e10606082015261384060808201526201518060a08201526000670de0b6b3a764000062000451858c62000c7a565b6200045d919062000cb0565b905060008111620004b15760405162461bcd60e51b815260206004820152601960248201527f496e76616c696420696e697469616c205553442070726963650000000000000060448201526064016200007e565b60408051608080825260119082015270496e697469616c2055534420707269636560781b60a0820152602081018390529081018b90526060810185905260008051602062004b918339815191529060c00160405180910390a160005b6006811015620006bc5760008382600681106200052e576200052e62000cdd565b60200201519050600062000543824262000cf3565b6200054f904262000d0a565b6000838152601160209081526040808320815160c0810183528581528084018a81528184018b8152606083018c8152608084018d815260a08501898152865460018181018955978b52988a2095516006909902909501978855925194870194909455516002860155915160038501559051600484015551600590920191909155519192507f0a6c631b67056f9b60b6c373fdb9dd5bc434cdac6594093a678b17c1f4eb70c091620006379185918591899182918291829190968752602087019590955260408601939093526060850191909152608084015260a083015260c082015260e00190565b60405180910390a16040805160808082526016908201527f496e697469616c2063616e646c6520637265617465640000000000000000000060a0820152602081018490529081018290526060810185905260008051602062004b918339815191529060c00160405180910390a150508080620006b39062000d20565b9150506200050d565b505050505050505050505050505062000da9565b600580546001600160a01b038381166001600160a01b0319831681179093556040519116919082907f8be0079c531659141344cd1fd0a4f28419497f9722a3daafe3b4186f6b6457e090600090a35050565b6001600160a01b0382166200074e5760405163ec442f0560e01b8152600060048201526024016200007e565b6200075c600083836200083a565b5050565b600080600660009054906101000a90046001600160a01b03166001600160a01b031663feaf968c6040518163ffffffff1660e01b815260040160a060405180830381865afa158015620007b7573d6000803e3d6000fd5b505050506040513d601f19601f82011682018060405250810190620007dd919062000d54565b50505091505060008113620008355760405162461bcd60e51b815260206004820152601c60248201527f496e76616c69642070726963652066726f6d20436861696e6c696e6b0000000060448201526064016200007e565b919050565b6001600160a01b038316620008695780600260008282546200085d919062000cc7565b90915550620008dd9050565b6001600160a01b03831660009081526020819052604090205481811015620008be5760405163391434e360e21b81526001600160a01b038516600482015260248101829052604481018390526064016200007e565b6001600160a01b03841660009081526020819052604090209082900390555b6001600160a01b038216620008fb576002805482900390556200091a565b6001600160a01b03821660009081526020819052604090208054820190555b816001600160a01b0316836001600160a01b03167fddf252ad1be2c89b69c2b068fc378daa952ba7f163c4a11628f55a4df523b3ef836040516200096091815260200190565b60405180910390a3505050565b634e487b7160e01b600052604160045260246000fd5b600082601f8301126200099557600080fd5b81516001600160401b0380821115620009b257620009b26200096d565b604051601f8301601f19908116603f01168101908282118183101715620009dd57620009dd6200096d565b81604052838152602092508683858801011115620009fa57600080fd5b600091505b8382101562000a1e5785820183015181830184015290820190620009ff565b600093810190920192909252949350505050565b80516001600160a01b03811681146200083557600080fd5b600080600080600080600080610100898b03121562000a6857600080fd5b88516001600160401b038082111562000a8057600080fd5b62000a8e8c838d0162000983565b995060208b015191508082111562000aa557600080fd5b5062000ab48b828c0162000983565b975050604089015195506060890151945062000ad360808a0162000a32565b935062000ae360a08a0162000a32565b925060c0890151915062000afa60e08a0162000a32565b90509295985092959890939650565b600181811c9082168062000b1e57607f821691505b60208210810362000b3f57634e487b7160e01b600052602260045260246000fd5b50919050565b601f82111562000b9357600081815260208120601f850160051c8101602086101562000b6e5750805b601f850160051c820191505b8181101562000b8f5782815560010162000b7a565b5050505b505050565b81516001600160401b0381111562000bb45762000bb46200096d565b62000bcc8162000bc5845462000b09565b8462000b45565b602080601f83116001811462000c04576000841562000beb5750858301515b600019600386901b1c1916600185901b17855562000b8f565b600085815260208120601f198616915b8281101562000c355788860151825594840194600190910190840162000c14565b508582101562000c545787850151600019600388901b60f8161c191681555b5050505050600190811b01905550565b634e487b7160e01b600052601160045260246000fd5b808202811582820484141762000c945762000c9462000c64565b92915050565b634e487b7160e01b600052601260045260246000fd5b60008262000cc25762000cc262000c9a565b500490565b8082018082111562000c945762000c9462000c64565b634e487b7160e01b600052603260045260246000fd5b60008262000d055762000d0562000c9a565b500690565b8181038181111562000c945762000c9462000c64565b60006001820162000d355762000d3562000c64565b5060010190565b80516001600160501b03811681146200083557600080fd5b600080600080600060a0868803121562000d6d57600080fd5b62000d788662000d3c565b945060208601519350604086015192506060860151915062000d9d6080870162000d3c565b90509295509295909350565b613dd88062000db96000396000f3fe60806040526004361061033e5760003560e01c806379f1f08d116101ae578063c7876ea4116100eb578063e5387de91161008f578063f0e1ba2c1161006c578063f0e1ba2c1461098c578063f2fde38b146109a2578063f7c38d1e146109c2578063fb3ed5c7146109d757005b8063e5387de91461094b578063e7664af914610961578063eb91d37e1461097757005b8063d5f39488116100c8578063d5f39488146108a5578063d748d497146108c5578063dbe55e56146108e5578063dd62ed3e1461090557005b8063c7876ea41461084c578063c9d0523014610862578063d1a93d181461089257005b8063a0a8045e11610152578063b202be431161012f578063b202be43146107d9578063b26a0bf8146107ee578063b607958714610820578063bde8d2621461083657005b8063a0a8045e1461078e578063a3aabeab146107a3578063a9059cbb146107b957005b806393945dba1161018b57806393945dba1461073757806395d89b411461074d57806396d2e240146107625780639d1b464a1461077857005b806379f1f08d146106cb5780637cfa439e146106e15780638da5cb5b1461071957005b80634a7248fa1161027c5780635e6ee81e11610220578063715018a6116101fd578063715018a6146106605780637185c6771461067557806375288d95146106955780637972962b146106ab57005b80635e6ee81e146105fd57806367eeba0c1461061457806370a082311461062a57005b80635510ccba116102595780635510ccba1461058d578063567d642c146105a35780635adc19c7146105d05780635e177558146105e657005b80634a7248fa146105435780634ba8ae811461055857806350dd48df1461057857005b80632dcbd1c3116102e3578063365b98b2116102c0578063365b98b2146104af578063411e314e146104e75780634209fff1146104fd5780634329a3451461052d57005b80632dcbd1c31461046a578063313ce5671461047d5780633278239b1461049957005b8063126d42b01161031c578063126d42b0146103c457806318160ddd146103e857806323b872dd146103fd5780632736e8881461041d57005b8062ce8e3e1461034757806306fdde0314610372578063095ea7b31461039457005b3661034557005b005b34801561035357600080fd5b5061035c6109ed565b604051610369919061395a565b60405180910390f35b34801561037e57600080fd5b50610387610a4f565b60405161036991906139a7565b3480156103a057600080fd5b506103b46103af366004613a0c565b610ad8565b6040519015158152602001610369565b3480156103d057600080fd5b506103da61025881565b604051908152602001610369565b3480156103f457600080fd5b506002546103da565b34801561040957600080fd5b506103b4610418366004613a36565b610af2565b34801561042957600080fd5b5061043d610438366004613a72565b610b5a565b604080519687526020870195909552938501929092526060840152608083015260a082015260c001610369565b610345610478366004613a94565b610bae565b34801561048957600080fd5b5060405160128152602001610369565b3480156104a557600080fd5b506103da60135481565b3480156104bb57600080fd5b506104cf6104ca366004613ac7565b611051565b6040516001600160a01b039091168152602001610369565b3480156104f357600080fd5b506103da61019081565b34801561050957600080fd5b506103b4610518366004613ae0565b60166020526000908152604090205460ff1681565b34801561053957600080fd5b506103da610e1081565b34801561054f57600080fd5b506012546103da565b34801561056457600080fd5b50610345610573366004613ac7565b61107b565b34801561058457600080fd5b506103456111b5565b34801561059957600080fd5b506103da61012c81565b3480156105af57600080fd5b506103da6105be366004613ae0565b600b6020526000908152604090205481565b3480156105dc57600080fd5b506103da60125481565b3480156105f257600080fd5b506103da6201518081565b34801561060957600080fd5b506103da6298968081565b34801561062057600080fd5b506103da600a5481565b34801561063657600080fd5b506103da610645366004613ae0565b6001600160a01b031660009081526020819052604090205490565b34801561066c57600080fd5b5061034561132d565b34801561068157600080fd5b50610345610690366004613a0c565b611341565b3480156106a157600080fd5b506103da60075481565b3480156106b757600080fd5b506103456106c6366004613ac7565b61144d565b3480156106d757600080fd5b506103da61032081565b3480156106ed57600080fd5b506103da6106fc366004613a0c565b601860209081526000928352604080842090915290825290205481565b34801561072557600080fd5b506005546001600160a01b03166104cf565b34801561074357600080fd5b506103da600c5481565b34801561075957600080fd5b50610387611626565b34801561076e57600080fd5b506103da6103e881565b34801561078457600080fd5b506103da600f5481565b34801561079a57600080fd5b506103da611635565b3480156107af57600080fd5b506103da6101f481565b3480156107c557600080fd5b506103b46107d4366004613a0c565b61170a565b3480156107e557600080fd5b506103da603c81565b3480156107fa57600080fd5b5061080e610809366004613ac7565b611760565b60405161036996959493929190613b3d565b34801561082c57600080fd5b506103da61384081565b34801561084257600080fd5b506103da61038481565b34801561085857600080fd5b506103da600d5481565b34801561086e57600080fd5b506103b461087d366004613ae0565b60146020526000908152604090205460ff1681565b6103456108a0366004613ac7565b611a3a565b3480156108b157600080fd5b506017546104cf906001600160a01b031681565b3480156108d157600080fd5b506103456108e0366004613ae0565b611b6c565b3480156108f157600080fd5b506010546104cf906001600160a01b031681565b34801561091157600080fd5b506103da610920366004613bbf565b6001600160a01b03918216600090815260016020908152604080832093909416825291909152205490565b34801561095757600080fd5b506103da60095481565b34801561096d57600080fd5b506103da61016d81565b34801561098357600080fd5b50600f546103da565b34801561099857600080fd5b506103da600e5481565b3480156109ae57600080fd5b506103456109bd366004613ae0565b611b8e565b3480156109ce57600080fd5b506103da600881565b3480156109e357600080fd5b506103da60085481565b60606015805480602002602001604051908101604052809291908181526020018280548015610a4557602002820191906000526020600020905b81546001600160a01b03168152600190910190602001808311610a27575b5050505050905090565b606060038054610a5e90613bf2565b80601f0160208091040260200160405190810160405280929190818152602001828054610a8a90613bf2565b8015610a455780601f10610aac57610100808354040283529160200191610a45565b820191906000526020600020905b815481529060010190602001808311610aba57509395945050505050565b600033610ae6818585611be5565b60019150505b92915050565b6000806064610b02846002613c42565b610b0c9190613c6f565b90506000610b1a8285613c83565b9050610b27863386611bf7565b610b32868683611c8f565b610b4e86610b486005546001600160a01b031690565b84611c8f565b50600195945050505050565b60116020528160005260406000208181548110610b7657600080fd5b600091825260209091206006909102018054600182015460028301546003840154600485015460059095015493965091945092909186565b610bb733611d07565b610bbf611d9b565b6001600160a01b038316600090815260186020908152604080832085845290915281205490610bee8383613c42565b905080341015610c455760405162461bcd60e51b815260206004820152601260248201527f496e73756666696369656e742066756e6473000000000000000000000000000060448201526064015b60405180910390fd5b82610c65866001600160a01b031660009081526020819052604090205490565b1015610cb35760405162461bcd60e51b815260206004820152601360248201527f53656c6c6572206c61636b7320736861726573000000000000000000000000006044820152606401610c3c565b60006064610cc2836002613c42565b610ccc9190613c6f565b90506000610cda8284613c83565b905060006064600a54600f610cef9190613c42565b610cf99190613c6f565b90506000610d05611635565b610d1c906c1f8def8808b02452c9a0000000613c6f565b9050808210610d2b5780610d2d565b815b915081831115610da55760405162461bcd60e51b815260206004820152603060248201527f5b4c4953544544204255595d205472616e73616374696f6e206578636565647360448201527f207065722d7472616465206c696d6974000000000000000000000000000000006064820152608401610c3c565b600a5483600c54610db69190613c96565b1115610e045760405162461bcd60e51b815260206004820181905260248201527f4578636565647320676c6f62616c206461696c79207472616465206c696d69746044820152606401610c3c565b610e0f893389611c8f565b6010546040516000916001600160a01b03169086908381818185875af1925050503d8060008114610e5c576040519150601f19603f3d011682016040523d82523d6000602084013e610e61565b606091505b5050905080610eb25760405162461bcd60e51b815260206004820181905260248201527f5b4c4953544544204255595d20466565207472616e73666572206661696c65646044820152606401610c3c565b60008a6001600160a01b03168560405160006040518083038185875af1925050503d8060008114610eff576040519150601f19603f3d011682016040523d82523d6000602084013e610f04565b606091505b5050905080610f555760405162461bcd60e51b815260206004820152601a60248201527f5b4c4953544544204255595d205061796f7574206661696c65640000000000006044820152606401610c3c565b336000908152600b602052604081208054879290610f74908490613c96565b9250508190555084600c6000828254610f8d9190613c96565b925050819055508860126000828254610fa69190613c96565b90915550506001600160a01b038b1660009081526018602090815260408083208d8452825280832092909255600f8a905590518981527f66cbca4f3c64fecf1dcb9ce094abcf7f68c3450a1d4e3a8e917dd621edb4ebe0910160405180910390a16000611011611635565b90506000670de0b6b3a764000082600f5461102c9190613c42565b6110369190613c6f565b9050611042818c611e86565b50505050505050505050505050565b6015818154811061106157600080fd5b6000918252602090912001546001600160a01b0316905081565b6040805160808082526012908201527f3d3d205b53454c4c5d205374617274203d3d000000000000000000000000000060a0820152602081018390526000818301524260608201529051600080516020613d838339815191529181900360c00190a16110e633611d07565b6110ee611d9b565b6110f7816125c8565b61110081612895565b61110981612af4565b6040805160808082526015908201527f3d3d205b53454c4c5d20436f6d706c657465203d3d000000000000000000000060a0820152602081018390523331818301524260608201529051600080516020613d838339815191529181900360c00190a1600f54604080518381526020810192909252429082015233907f019eed797248695407e185a0977fa0dba8bbaaba6c2f6f4a8bdf6fb32e62ba23906060015b60405180910390a250565b6005546001600160a01b03163314806111d857506010546001600160a01b031633145b6112245760405162461bcd60e51b815260206004820152600e60248201527f4e6f7420617574686f72697a65640000000000000000000000000000000000006044820152606401610c3c565b6000600a6009546112359190613c6f565b3060009081526020819052604090205490915081116112965760405162461bcd60e51b815260206004820152601d60248201527f537570706c79206e6f74206c6f7720656e6f75676820746f206d696e740000006044820152606401610c3c565b60006305f5e100905080600960008282546112b19190613c96565b909155506112c190503082612c64565b6009546040805160808082526012908201527f4d696e74656420666f722074726164696e67000000000000000000000000000060a08201526020810184905290810191909152426060820152600080516020613d838339815191529060c0015b60405180910390a15050565b611335612c9e565b61133f6000612ce4565b565b611349612c9e565b60085481111561139b5760405162461bcd60e51b815260206004820152601960248201527f4e6f7420656e6f7567682061697264726f7020746f6b656e73000000000000006044820152606401610c3c565b6001600160a01b03821660009081526014602052604090205460ff16156114045760405162461bcd60e51b815260206004820152601060248201527f416c7265616479207265636569766564000000000000000000000000000000006044820152606401610c3c565b61140f308383611c8f565b6001600160a01b0382166000908152601460205260408120805460ff1916600117905560088054839290611444908490613c83565b90915550505050565b6010546001600160a01b031633146114a75760405162461bcd60e51b815260206004820152601860248201527f4f6e6c7920706c6174666f726d2063616e2061646a75737400000000000000006044820152606401610c3c565b60006114b1611635565b9050600081116115035760405162461bcd60e51b815260206004820152601560248201527f496e76616c6964204554482f55534420707269636500000000000000000000006044820152606401610c3c565b6127108210156115555760405162461bcd60e51b815260206004820152601160248201527f4e6577206c696d697420746f6f206c6f770000000000000000000000000000006044820152606401610c3c565b8061156883670de0b6b3a7640000613c42565b611576906305f5e100613c42565b6115809190613c6f565b600a81905560408051918252602082018490524282820152517fbd57629dff28bba5c15eed210f7fc133000118c7d42ee405fe2a9129f20904aa9181900360600190a1600a546040805160808082526013908201527f6461696c794c696d69742061646a75737465640000000000000000000000000060a082015260208101929092528101839052426060820152600080516020613d838339815191529060c001611321565b606060048054610a5e90613bf2565b600080600660009054906101000a90046001600160a01b03166001600160a01b031663feaf968c6040518163ffffffff1660e01b815260040160a060405180830381865afa15801561168b573d6000803e3d6000fd5b505050506040513d601f19601f820116820180604052508101906116af9190613cc3565b505050915050600081136117055760405162461bcd60e51b815260206004820152601c60248201527f496e76616c69642070726963652066726f6d20436861696e6c696e6b000000006044820152606401610c3c565b919050565b600080606461171a846002613c42565b6117249190613c6f565b905060006117328285613c83565b905061173f338683611c8f565b61175533610b486005546001600160a01b031690565b506001949350505050565b60008181526011602052604090208054606091829182918291829182918067ffffffffffffffff81111561179657611796613d13565b6040519080825280602002602001820160405280156117bf578160200160208202803683370190505b5097508067ffffffffffffffff8111156117db576117db613d13565b604051908082528060200260200182016040528015611804578160200160208202803683370190505b5096508067ffffffffffffffff81111561182057611820613d13565b604051908082528060200260200182016040528015611849578160200160208202803683370190505b5095508067ffffffffffffffff81111561186557611865613d13565b60405190808252806020026020018201604052801561188e578160200160208202803683370190505b5094508067ffffffffffffffff8111156118aa576118aa613d13565b6040519080825280602002602001820160405280156118d3578160200160208202803683370190505b5093508067ffffffffffffffff8111156118ef576118ef613d13565b604051908082528060200260200182016040528015611918578160200160208202803683370190505b50925060005b81811015611a2e57600083828154811061193a5761193a613d29565b9060005260206000209060060201905080600001548a838151811061196157611961613d29565b602002602001018181525050806001015489838151811061198457611984613d29565b60200260200101818152505080600201548883815181106119a7576119a7613d29565b60200260200101818152505080600301548783815181106119ca576119ca613d29565b60200260200101818152505080600401548683815181106119ed576119ed613d29565b6020026020010181815250508060050154858381518110611a1057611a10613d29565b60209081029190910101525080611a2681613d3f565b91505061191e565b50505091939550919395565b6040805160808082526011908201527f456e74657265642062757953686172657300000000000000000000000000000060a08201526020810183905234818301524260608201529051600080516020613d838339815191529181900360c00190a1611aa433611d07565b611aac611d9b565b611ab581612d43565b611abe81613126565b611ac7816133fb565b604080516080808252600c908201527f42757920636f6d706c657465000000000000000000000000000000000000000060a0820152602081018390523331818301524260608201529051600080516020613d838339815191529181900360c00190a1600f54604080518381526020810192909252429082015233907f849165c18b9d0fb161bcb145e4ab523d350e5c98f1dbbb1960331e7ee3ca6767906060016111aa565b611b74612c9e565b6001600160a01b03166000908152600b6020526040812055565b611b96612c9e565b6001600160a01b038116611bd9576040517f1e4fbdf700000000000000000000000000000000000000000000000000000000815260006004820152602401610c3c565b611be281612ce4565b50565b611bf28383836001613699565b505050565b6001600160a01b03838116600090815260016020908152604080832093861683529290522054600019811015611c895781811015611c7a576040517ffb8f41b20000000000000000000000000000000000000000000000000000000081526001600160a01b03841660048201526024810182905260448101839052606401610c3c565b611c8984848484036000613699565b50505050565b6001600160a01b038316611cd2576040517f96c6fd1e00000000000000000000000000000000000000000000000000000000815260006004820152602401610c3c565b6001600160a01b038216611cfc5760405163ec442f0560e01b815260006004820152602401610c3c565b611bf28383836137a0565b6001600160a01b03811660009081526016602052604090205460ff16611be2576015805460018181019092557f55f448fdea98c4d29eb340757ef0a66cd03dbb9538908a6a81d96026b71ec4750180546001600160a01b03841673ffffffffffffffffffffffffffffffffffffffff1990911681179091556000908152601660205260409020805460ff1916909117905550565b6000611daa6201518042613c6f565b9050601354811115611be25760005b601554811015611e13576000600b600060158481548110611ddc57611ddc613d29565b60009182526020808320909101546001600160a01b0316835282019290925260400190205580611e0b81613d3f565b915050611db9565b506000600c5560138190556015546040805160808082526012908201527f4461696c7920747261646573207265736574000000000000000000000000000060a0820152602081018490528082019290925242606083015251600080516020613d838339815191529181900360c00190a150565b60008211611ed65760405162461bcd60e51b815260206004820152601260248201527f496e76616c6964207072696365496e55736400000000000000000000000000006044820152606401610c3c565b60008111611f265760405162461bcd60e51b815260206004820152600e60248201527f496e76616c696420616d6f756e740000000000000000000000000000000000006044820152606401610c3c565b604080516080808252601f908201527f757064617465416c6c43616e646c65486973746f7269657320696e707574730060a082015260208101849052908101829052426060820152600080516020613d838339815191529060c00160405180910390a16040805160c081018252603c815261012c602082015261038491810191909152610e10606082015261384060808201526201518060a082015260005b6006811015611c89576000828260068110611fe257611fe2613d29565b602002015190506000611ff58242613d58565b611fff9042613c83565b60008381526011602052604081208054929350911580612050575081548390839061202c90600190613c83565b8154811061203c5761203c613d29565b906000526020600020906006020160000154105b90506000811561222e57825461208d57670de0b6b3a7640000612071611635565b600d5461207e9190613c42565b6120889190613c6f565b6120c0565b8254839061209d90600190613c83565b815481106120ad576120ad613d29565b9060005260206000209060060201600401545b9050826040518060c00160405280868152602001838152602001838c116120e757836120e9565b8b5b8152602001838c106120fb57836120fd565b8b5b815260208082018d905260409182018c9052835460018082018655600095865294829020845160069092020190815583820151948101949094558282015160028501556060808401516003860155608080850151600487015560a09485015160059096019590955582518581526012958101959095527f4e65772063616e646c652063726561746564000000000000000000000000000093850193909352830188905282018690528101899052600080516020613d838339815191529060c00160405180910390a16040805160808082526011908201527f4e65772063616e646c6520766f6c756d6500000000000000000000000000000060a08201526020810187905290810185905260608101899052600080516020613d838339815191529060c00160405180910390a161238e565b8254600090849061224190600190613c83565b8154811061225157612251613d29565b9060005260206000209060060201905080600201548a11612276578060020154612278565b895b600282015560038101548a10612292578060030154612294565b895b6003820155600481018a90556005810180548a91906000906122b7908490613c96565b909155505060058101546040805160808082526017908201527f4578697374696e672063616e646c65207570646174656400000000000000000060a082015260208101899052808201889052606081019290925251600080516020613d838339815191529181900360c00190a160058101546040805160808082526016908201527f4578697374696e672063616e646c6520766f6c756d650000000000000000000060a082015260208101899052808201889052606081019290925251600080516020613d838339815191529181900360c00190a1505b6000612399866138e3565b90505b835481101561249f5760015b845481101561244f578481815481106123c3576123c3613d29565b9060005260206000209060060201856001836123df9190613c83565b815481106123ef576123ef613d29565b9060005260206000209060060201600082015481600001556001820154816001015560028201548160020155600382015481600301556004820154816004015560058201548160050155905050808061244790613d3f565b9150506123a8565b508380548061246057612460613d6c565b6000828152602081206006600019909301928302018181556001810182905560028101829055600381018290556004810182905560050155905561239c565b835460009085906124b290600190613c83565b815481106124c2576124c2613d29565b60009182526020918290206001600690920201908101546002820154600383015460048401546005850154604080518f81529788018e90528701949094526060860192909252608085015260a084015260c083015291507f0a6c631b67056f9b60b6c373fdb9dd5bc434cdac6594093a678b17c1f4eb70c09060e00160405180910390a16004810154604080516080808252600b908201527f43616e646c65206461746100000000000000000000000000000000000000000060a0820152602081018a9052808201899052606081019290925251600080516020613d838339815191529181900360c00190a15050505050505080806125c090613d3f565b915050611fc5565b600081116126185760405162461bcd60e51b815260206004820152601260248201527f416d6f756e74206d757374206265203e203000000000000000000000000000006044820152606401610c3c565b600f543360009081526020819052604090205461263d83670de0b6b3a7640000613c42565b81101561268c5760405162461bcd60e51b815260206004820152601960248201527f4e6f7420656e6f7567682073686172657320746f2073656c6c000000000000006044820152606401610c3c565b60006126988484613c42565b9050600060646126a9836002613c42565b6126b39190613c6f565b9050818111156127055760405162461bcd60e51b815260206004820152601960248201527f5b53454c4c5d204665652065786365656473207061796f7574000000000000006044820152606401610c3c565b60006127118284613c83565b9050804710156127635760405162461bcd60e51b815260206004820152601d60248201527f496e73756666696369656e7420636f6e74726163742062616c616e63650000006044820152606401610c3c565b60006064600a54600f6127769190613c42565b6127809190613c6f565b9050600061278c611635565b6127a3906c1f8def8808b02452c9a0000000613c6f565b90508082106127b257806127b4565b815b91508183111561282c5760405162461bcd60e51b815260206004820152602a60248201527f5b53454c4c5d205472616e73616374696f6e2065786365656473207065722d7460448201527f72616465206c696d6974000000000000000000000000000000000000000000006064820152608401610c3c565b600a5483600c5461283d9190613c96565b111561288b5760405162461bcd60e51b815260206004820181905260248201527f4578636565647320676c6f62616c206461696c79207472616465206c696d69746044820152606401610c3c565b5050505050505050565b600f5460006128a48383613c42565b9050600060646128b5836002613c42565b6128bf9190613c6f565b905060006128cd8284613c83565b90506128eb33306128e688670de0b6b3a7640000613c42565b611c8f565b33600090815260208181526040918290205482516080808252601d908201527f4166746572207472616e73666572202d20557365722062616c616e636500000060a0820152918201528082018790524260608201529051600080516020613d838339815191529181900360c00190a16010546040516000916001600160a01b03169084908381818185875af1925050503d80600081146129a7576040519150601f19603f3d011682016040523d82523d6000602084013e6129ac565b606091505b50509050806129fd5760405162461bcd60e51b815260206004820152601a60248201527f5b53454c4c5d20466565207472616e73666572206661696c65640000000000006044820152606401610c3c565b604051600090339084908381818185875af1925050503d8060008114612a3f576040519150601f19603f3d011682016040523d82523d6000602084013e612a44565b606091505b5050905080612a955760405162461bcd60e51b815260206004820152601460248201527f5b53454c4c5d205061796f7574206661696c65640000000000000000000000006044820152606401610c3c565b336000908152600b602052604081208054859290612ab4908490613c96565b9250508190555082600c6000828254612acd9190613c96565b925050819055508660126000828254612ae69190613c96565b909155505050505050505050565b600f546000612b066298968084613c42565b90506000612b148284613c83565b905060006064612b25856005613c42565b612b2f9190613c6f565b9050612b3b8185613c83565b821015612b4f57612b4c8185613c83565b91505b600e54612b5c9085613c83565b821015612b7357600e54612b709085613c83565b91505b600d54821015612b8357600d5491505b600f8290556040518281527f66cbca4f3c64fecf1dcb9ce094abcf7f68c3450a1d4e3a8e917dd621edb4ebe09060200160405180910390a1600f54604080516080808252600d908201527f507269636520757064617465640000000000000000000000000000000000000060a0820152602081018790528082019290925242606083015251600080516020613d838339815191529181900360c00190a16000612c2a611635565b90506000670de0b6b3a764000082600f54612c459190613c42565b612c4f9190613c6f565b9050612c5b8188611e86565b50505050505050565b6001600160a01b038216612c8e5760405163ec442f0560e01b815260006004820152602401610c3c565b612c9a600083836137a0565b5050565b6005546001600160a01b0316331461133f576040517f118cdaa7000000000000000000000000000000000000000000000000000000008152336004820152602401610c3c565b600580546001600160a01b0383811673ffffffffffffffffffffffffffffffffffffffff19831681179093556040519116919082907f8be0079c531659141344cd1fd0a4f28419497f9722a3daafe3b4186f6b6457e090600090a35050565b60008111612d935760405162461bcd60e51b815260206004820152601260248201527f416d6f756e74206d757374206265203e203000000000000000000000000000006044820152606401610c3c565b600f5480612de35760405162461bcd60e51b815260206004820152601160248201527f5072696365206d757374206265203e20300000000000000000000000000000006044820152606401610c3c565b6000612def8383613c42565b905080341015612e415760405162461bcd60e51b815260206004820152601760248201527f496e73756666696369656e742066756e64732073656e740000000000000000006044820152606401610c3c565b30600090815260208190526040902054612e6384670de0b6b3a7640000613c42565b811015612ed85760405162461bcd60e51b815260206004820152602160248201527f5b4255595d204e6f7420656e6f7567682073686172657320617661696c61626c60448201527f65000000000000000000000000000000000000000000000000000000000000006064820152608401610c3c565b60006064612ee7846002613c42565b612ef19190613c6f565b905082811115612f435760405162461bcd60e51b815260206004820152601c60248201527f5b4255595d20466565206578636565647320746f74616c20636f7374000000006044820152606401610c3c565b6000612f4f8285613c83565b905060006064600a54600f612f649190613c42565b612f6e9190613c6f565b90506000612f7a611635565b612f91906c1f8def8808b02452c9a0000000613c6f565b9050808210612fa05780612fa2565b815b91508183111561301a5760405162461bcd60e51b815260206004820152602960248201527f5b4255595d205472616e73616374696f6e2065786365656473207065722d747260448201527f616465206c696d697400000000000000000000000000000000000000000000006064820152608401610c3c565b3360009081526020819052604081205490506000606461303960025490565b613044906005613c42565b61304e9190613c6f565b9050806130638b670de0b6b3a7640000613c42565b61306d9084613c96565b11156130bb5760405162461bcd60e51b815260206004820152601c60248201527f5b4255595d20486f6c64696e67206c696d6974206578636565646564000000006044820152606401610c3c565b600a5485600c546130cc9190613c96565b111561311a5760405162461bcd60e51b815260206004820181905260248201527f4578636565647320676c6f62616c206461696c79207472616465206c696d69746044820152606401610c3c565b50505050505050505050565b600f5460006131358383613c42565b905060006064613146836002613c42565b6131509190613c6f565b9050600061315e8284613c83565b905061317730336128e688670de0b6b3a7640000613c42565b33600090815260208181526040918290205482516080808252601d908201527f4166746572207472616e73666572202d20557365722062616c616e636500000060a0820152918201528082018790524260608201529051600080516020613d838339815191529181900360c00190a16010546040516000916001600160a01b03169084908381818185875af1925050503d8060008114613233576040519150601f19603f3d011682016040523d82523d6000602084013e613238565b606091505b50509050806132895760405162461bcd60e51b815260206004820152601960248201527f5b4255595d20466565207472616e73666572206661696c6564000000000000006044820152606401610c3c565b336000908152600b6020526040812080548492906132a8908490613c96565b9250508190555081600c60008282546132c19190613c96565b9250508190555085601260008282546132da9190613c96565b9091555050348410156133f35760006132f38534613c83565b604051909150600090339083908381818185875af1925050503d8060008114613338576040519150601f19603f3d011682016040523d82523d6000602084013e61333d565b606091505b505090508061338e5760405162461bcd60e51b815260206004820152601360248201527f5b4255595d20526566756e64206661696c6564000000000000000000000000006044820152606401610c3c565b604080516080808252600b908201527f526566756e642073656e7400000000000000000000000000000000000000000060a0820152602081018490526000818301524260608201529051600080516020613d838339815191529181900360c00190a150505b505050505050565b600f54600061340d6298968084613c42565b9050600061341b8284613c96565b90506000606461342c856005613c42565b6134369190613c6f565b90506134428185613c96565b821115613456576134538185613c96565b91505b600e546134639085613c96565b82111561347a57600e546134779085613c96565b91505b600f8290556040518281527f66cbca4f3c64fecf1dcb9ce094abcf7f68c3450a1d4e3a8e917dd621edb4ebe09060200160405180910390a1600f546040805160808082526013908201527f507269636520757064617465642028776569290000000000000000000000000060a0820152602081018790528082019290925242606083015251600080516020613d838339815191529181900360c00190a16000613521611635565b9050600081116135735760405162461bcd60e51b815260206004820152601560248201527f496e76616c6964204554482f55534420707269636500000000000000000000006044820152606401610c3c565b6000670de0b6b3a764000082600f5461358c9190613c42565b6135969190613c6f565b90508060000361362c57670de0b6b3a764000082600d546135b79190613c42565b6135c19190613c6f565b600d5460408051608080825260209082018190527f5072696365496e5573642066616c6c6261636b20746f2062617365507269636560a0830152810184905290810191909152426060820152909150600080516020613d838339815191529060c00160405180910390a15b604080516080808252600c908201527f507269636520696e20555344000000000000000000000000000000000000000060a082015260208101839052908101839052426060820152600080516020613d838339815191529060c00160405180910390a1612c5b8188611e86565b6001600160a01b0384166136dc576040517fe602df0500000000000000000000000000000000000000000000000000000000815260006004820152602401610c3c565b6001600160a01b03831661371f576040517f94280d6200000000000000000000000000000000000000000000000000000000815260006004820152602401610c3c565b6001600160a01b0380851660009081526001602090815260408083209387168352929052208290558015611c8957826001600160a01b0316846001600160a01b03167f8c5be1e5ebec7d5bd14f71427d1e84f3dd0314c0f7b2291e5b200ac8c7c3b9258460405161379291815260200190565b60405180910390a350505050565b6001600160a01b0383166137cb5780600260008282546137c09190613c96565b909155506138569050565b6001600160a01b03831660009081526020819052604090205481811015613837576040517fe450d38c0000000000000000000000000000000000000000000000000000000081526001600160a01b03851660048201526024810182905260448101839052606401610c3c565b6001600160a01b03841660009081526020819052604090209082900390555b6001600160a01b03821661387257600280548290039055613891565b6001600160a01b03821660009081526020819052604090208054820190555b816001600160a01b0316836001600160a01b03167fddf252ad1be2c89b69c2b068fc378daa952ba7f163c4a11628f55a4df523b3ef836040516138d691815260200190565b60405180910390a3505050565b6000603c82036138f657506103e8919050565b61012c82036139085750610320919050565b610384820361391a5750610258919050565b610e10820361392c57506101f4919050565b613840820361393e5750610190919050565b620151808203613951575061016d919050565b506101f4919050565b6020808252825182820181905260009190848201906040850190845b8181101561399b5783516001600160a01b031683529284019291840191600101613976565b50909695505050505050565b600060208083528351808285015260005b818110156139d4578581018301518582016040015282016139b8565b506000604082860101526040601f19601f8301168501019250505092915050565b80356001600160a01b038116811461170557600080fd5b60008060408385031215613a1f57600080fd5b613a28836139f5565b946020939093013593505050565b600080600060608486031215613a4b57600080fd5b613a54846139f5565b9250613a62602085016139f5565b9150604084013590509250925092565b60008060408385031215613a8557600080fd5b50508035926020909101359150565b600080600060608486031215613aa957600080fd5b613ab2846139f5565b95602085013595506040909401359392505050565b600060208284031215613ad957600080fd5b5035919050565b600060208284031215613af257600080fd5b613afb826139f5565b9392505050565b600081518084526020808501945080840160005b83811015613b3257815187529582019590820190600101613b16565b509495945050505050565b60c081526000613b5060c0830189613b02565b8281036020840152613b628189613b02565b90508281036040840152613b768188613b02565b90508281036060840152613b8a8187613b02565b90508281036080840152613b9e8186613b02565b905082810360a0840152613bb28185613b02565b9998505050505050505050565b60008060408385031215613bd257600080fd5b613bdb836139f5565b9150613be9602084016139f5565b90509250929050565b600181811c90821680613c0657607f821691505b602082108103613c2657634e487b7160e01b600052602260045260246000fd5b50919050565b634e487b7160e01b600052601160045260246000fd5b8082028115828204841417610aec57610aec613c2c565b634e487b7160e01b600052601260045260246000fd5b600082613c7e57613c7e613c59565b500490565b81810381811115610aec57610aec613c2c565b80820180821115610aec57610aec613c2c565b805169ffffffffffffffffffff8116811461170557600080fd5b600080600080600060a08688031215613cdb57600080fd5b613ce486613ca9565b9450602086015193506040860151925060608601519150613d0760808701613ca9565b90509295509295909350565b634e487b7160e01b600052604160045260246000fd5b634e487b7160e01b600052603260045260246000fd5b600060018201613d5157613d51613c2c565b5060010190565b600082613d6757613d67613c59565b500690565b634e487b7160e01b600052603160045260246000fdfe642e664bea9ee78301be12e9bc0aa41edc30a395961aefab2f62ea99d82703f2a26469706673582212202fe332686e88be193688d7ac0bee7b30181665012af437daefb944d01f1ece7064736f6c63430008140033642e664bea9ee78301be12e9bc0aa41edc30a395961aefab2f62ea99d82703f2",
  "linkReferences": {},
  "deployedLinkReferences": {}
}