{
  "_format": "hh-sol-artifact-1",
  "contractName": "LiquidityTopUpManager",
  "sourceName": "contracts/LiquidityTopUpManager.sol",
  "abi": [
    {
      "inputs": [
        {
          "internalType": "uint256",
          "name": "_minimumBalance",
          "type": "uint256"
        },
        {
          "internalType": "uint256",
          "name": "_maxTopUpAmount",
          "type": "uint256"
        }
      ],
      "stateMutability": "nonpayable",
      "type": "constructor"
    },
    {
      "anonymous": false,
      "inputs": [
        {
          "indexed": true,
          "internalType": "address",
          "name": "oldOwner",
          "type": "address"
        },
        {
          "indexed": true,
          "internalType": "address",
          "name": "newOwner",
          "type": "address"
        }
      ],
      "name": "OwnerChanged",
      "type": "event"
    },
    {
      "anonymous": false,
      "inputs": [
        {
          "indexed": false,
          "internalType": "uint256",
          "name": "newMinimumBalance",
          "type": "uint256"
        },
        {
          "indexed": false,
          "internalType": "uint256",
          "name": "newMaxTopUpAmount",
          "type": "uint256"
        }
      ],
      "name": "ThresholdsUpdated",
      "type": "event"
    },
    {
      "anonymous": false,
      "inputs": [
        {
          "indexed": true,
          "internalType": "address",
          "name": "artistContract",
          "type": "address"
        },
        {
          "indexed": false,
          "internalType": "uint256",
          "name": "amount",
          "type": "uint256"
        }
      ],
      "name": "TopUpPerformed",
      "type": "event"
    },
    {
      "inputs": [
        {
          "internalType": "address",
          "name": "newOwner",
          "type": "address"
        }
      ],
      "name": "changeOwner",
      "outputs": [],
      "stateMutability": "nonpayable",
      "type": "function"
    },
    {
      "inputs": [],
      "name": "deposit",
      "outputs": [],
      "stateMutability": "payable",
      "type": "function"
    },
    {
      "inputs": [],
      "name": "getLiquidityManagerBalance",
      "outputs": [
        {
          "internalType": "uint256",
          "name": "",
          "type": "uint256"
        }
      ],
      "stateMutability": "view",
      "type": "function"
    },
    {
      "inputs": [],
      "name": "maxTopUpAmount",
      "outputs": [
        {
          "internalType": "uint256",
          "name": "",
          "type": "uint256"
        }
      ],
      "stateMutability": "view",
      "type": "function"
    },
    {
      "inputs": [],
      "name": "minimumBalance",
      "outputs": [
        {
          "internalType": "uint256",
          "name": "",
          "type": "uint256"
        }
      ],
      "stateMutability": "view",
      "type": "function"
    },
    {
      "inputs": [],
      "name": "owner",
      "outputs": [
        {
          "internalType": "address",
          "name": "",
          "type": "address"
        }
      ],
      "stateMutability": "view",
      "type": "function"
    },
    {
      "inputs": [
        {
          "internalType": "address payable",
          "name": "artistContract",
          "type": "address"
        },
        {
          "internalType": "uint256",
          "name": "amount",
          "type": "uint256"
        }
      ],
      "name": "topUp",
      "outputs": [],
      "stateMutability": "nonpayable",
      "type": "function"
    },
    {
      "inputs": [
        {
          "internalType": "uint256",
          "name": "_minimumBalance",
          "type": "uint256"
        },
        {
          "internalType": "uint256",
          "name": "_maxTopUpAmount",
          "type": "uint256"
        }
      ],
      "name": "updateThresholds",
      "outputs": [],
      "stateMutability": "nonpayable",
      "type": "function"
    },
    {
      "inputs": [
        {
          "internalType": "uint256",
          "name": "amount",
          "type": "uint256"
        }
      ],
      "name": "withdraw",
      "outputs": [],
      "stateMutability": "nonpayable",
      "type": "function"
    }
  ],
  "bytecode": "0x608060405234801561001057600080fd5b506040516106ab3803806106ab83398101604081905261002f9161004f565b600080546001600160a01b03191633179055600191909155600255610073565b6000806040838503121561006257600080fd5b505080516020909101519092909150565b610629806100826000396000f3fe6080604052600436106100765760003560e01c80632e1a7d4d1461007b578063885544c11461009d5780638da5cb5b146100bf578063a6f9dae1146100f7578063b9d1d49b14610117578063c14b8e9c1461012d578063c5dbb2e41461014d578063d0e30db014610163578063d6f7ddf91461016b575b600080fd5b34801561008757600080fd5b5061009b610096366004610528565b61018b565b005b3480156100a957600080fd5b50475b6040519081526020015b60405180910390f35b3480156100cb57600080fd5b506000546100df906001600160a01b031681565b6040516001600160a01b0390911681526020016100b6565b34801561010357600080fd5b5061009b610112366004610559565b610242565b34801561012357600080fd5b506100ac60015481565b34801561013957600080fd5b5061009b61014836600461057d565b6102c7565b34801561015957600080fd5b506100ac60025481565b61009b610338565b34801561017757600080fd5b5061009b61018636600461059f565b610364565b6000546001600160a01b031633146101be5760405162461bcd60e51b81526004016101b5906105cb565b60405180910390fd5b804710156102055760405162461bcd60e51b8152602060048201526014602482015273496e73756666696369656e742062616c616e636560601b60448201526064016101b5565b600080546040516001600160a01b039091169183156108fc02918491818181858888f1935050505015801561023e573d6000803e3d6000fd5b5050565b6000546001600160a01b0316331461026c5760405162461bcd60e51b81526004016101b5906105cb565b600080546040516001600160a01b03808516939216917fb532073b38c83145e3e5135377a08bf9aab55bc0fd7c1179cd4fb995d2a5159c91a3600080546001600160a01b0319166001600160a01b0392909216919091179055565b6000546001600160a01b031633146102f15760405162461bcd60e51b81526004016101b5906105cb565b6001829055600281905560408051838152602081018390527fd081f5afbf5e2859f2be3d6c573e1cdd6c8fb93b18ec6145427882fe51507b6a910160405180910390a15050565b6000546001600160a01b031633146103625760405162461bcd60e51b81526004016101b5906105cb565b565b6000546001600160a01b0316331461038e5760405162461bcd60e51b81526004016101b5906105cb565b6002548111156103db5760405162461bcd60e51b8152602060048201526018602482015277115e18d959591cc81b585e081d1bdc0b5d5c081b1a5b5a5d60421b60448201526064016101b5565b8047101561043a5760405162461bcd60e51b815260206004820152602660248201527f496e73756666696369656e74206c6971756964697479206d616e616765722062604482015265616c616e636560d01b60648201526084016101b5565b600154826001600160a01b031631106104aa5760405162461bcd60e51b815260206004820152602c60248201527f41727469737420636f6e7472616374207374696c6c206861732073756666696360448201526b69656e742062616c616e636560a01b60648201526084016101b5565b6040516001600160a01b0383169082156108fc029083906000818181858888f193505050501580156104e0573d6000803e3d6000fd5b50816001600160a01b03167fbd8bc87234682a107774ba6d27a92c920b0ccfee2e400663aede9a12fed13b5c8260405161051c91815260200190565b60405180910390a25050565b60006020828403121561053a57600080fd5b5035919050565b6001600160a01b038116811461055657600080fd5b50565b60006020828403121561056b57600080fd5b813561057681610541565b9392505050565b6000806040838503121561059057600080fd5b50508035926020909101359150565b600080604083850312156105b257600080fd5b82356105bd81610541565b946020939093013593505050565b6020808252600e908201526d139bdd08185d5d1a1bdc9a5e995960921b60408201526060019056fea2646970667358221220d8303773c40e1e656f2daf5ca396085ccb1809d47abf4e2df8a14950ac7a212064736f6c63430008140033",
  "linkReferences": {},
  "deployedLinkReferences": {}
}