{
  "_format": "hh-sol-artifact-1",
  "contractName": "ArtistSharesToken",
  "sourceName": "contracts/ArtistSharesToken.sol",
  "abi": [
    {
      "inputs": [
        {
          "internalType": "string",
          "name": "name",
          "type": "string"
        },
        {
          "internalType": "string",
          "name": "symbol",
          "type": "string"
        },
        {
          "internalType": "address",
          "name": "_teamWallet",
          "type": "address"
        },
        {
          "internalType": "address",
          "name": "_platformWallet",
          "type": "address"
        },
        {
          "internalType": "address",
          "name": "_priceFeed",
          "type": "address"
        },
        {
          "internalType": "address",
          "name": "_uniswapRouter",
          "type": "address"
        }
      ],
      "stateMutability": "nonpayable",
      "type": "constructor"
    },
    {
      "inputs": [
        {
          "internalType": "address",
          "name": "spender",
          "type": "address"
        },
        {
          "internalType": "uint256",
          "name": "allowance",
          "type": "uint256"
        },
        {
          "internalType": "uint256",
          "name": "needed",
          "type": "uint256"
        }
      ],
      "name": "ERC20InsufficientAllowance",
      "type": "error"
    },
    {
      "inputs": [
        {
          "internalType": "address",
          "name": "sender",
          "type": "address"
        },
        {
          "internalType": "uint256",
          "name": "balance",
          "type": "uint256"
        },
        {
          "internalType": "uint256",
          "name": "needed",
          "type": "uint256"
        }
      ],
      "name": "ERC20InsufficientBalance",
      "type": "error"
    },
    {
      "inputs": [
        {
          "internalType": "address",
          "name": "approver",
          "type": "address"
        }
      ],
      "name": "ERC20InvalidApprover",
      "type": "error"
    },
    {
      "inputs": [
        {
          "internalType": "address",
          "name": "receiver",
          "type": "address"
        }
      ],
      "name": "ERC20InvalidReceiver",
      "type": "error"
    },
    {
      "inputs": [
        {
          "internalType": "address",
          "name": "sender",
          "type": "address"
        }
      ],
      "name": "ERC20InvalidSender",
      "type": "error"
    },
    {
      "inputs": [
        {
          "internalType": "address",
          "name": "spender",
          "type": "address"
        }
      ],
      "name": "ERC20InvalidSpender",
      "type": "error"
    },
    {
      "inputs": [
        {
          "internalType": "address",
          "name": "owner",
          "type": "address"
        }
      ],
      "name": "OwnableInvalidOwner",
      "type": "error"
    },
    {
      "inputs": [
        {
          "internalType": "address",
          "name": "account",
          "type": "address"
        }
      ],
      "name": "OwnableUnauthorizedAccount",
      "type": "error"
    },
    {
      "anonymous": false,
      "inputs": [
        {
          "indexed": true,
          "internalType": "address",
          "name": "user",
          "type": "address"
        },
        {
          "indexed": false,
          "internalType": "uint256",
          "name": "amount",
          "type": "uint256"
        }
      ],
      "name": "AirdropDistributed",
      "type": "event"
    },
    {
      "anonymous": false,
      "inputs": [
        {
          "indexed": true,
          "internalType": "address",
          "name": "owner",
          "type": "address"
        },
        {
          "indexed": true,
          "internalType": "address",
          "name": "spender",
          "type": "address"
        },
        {
          "indexed": false,
          "internalType": "uint256",
          "name": "value",
          "type": "uint256"
        }
      ],
      "name": "Approval",
      "type": "event"
    },
    {
      "anonymous": false,
      "inputs": [
        {
          "indexed": false,
          "internalType": "uint256",
          "name": "timeframe",
          "type": "uint256"
        },
        {
          "indexed": false,
          "internalType": "uint256",
          "name": "timestamp",
          "type": "uint256"
        },
        {
          "indexed": false,
          "internalType": "uint256",
          "name": "open",
          "type": "uint256"
        },
        {
          "indexed": false,
          "internalType": "uint256",
          "name": "high",
          "type": "uint256"
        },
        {
          "indexed": false,
          "internalType": "uint256",
          "name": "low",
          "type": "uint256"
        },
        {
          "indexed": false,
          "internalType": "uint256",
          "name": "close",
          "type": "uint256"
        },
        {
          "indexed": false,
          "internalType": "uint256",
          "name": "volume",
          "type": "uint256"
        }
      ],
      "name": "CandleUpdated",
      "type": "event"
    },
    {
      "anonymous": false,
      "inputs": [
        {
          "indexed": false,
          "internalType": "uint256",
          "name": "ethLiquidity",
          "type": "uint256"
        },
        {
          "indexed": false,
          "internalType": "uint256",
          "name": "tokenLiquidity",
          "type": "uint256"
        }
      ],
      "name": "CurveCompleted",
      "type": "event"
    },
    {
      "anonymous": false,
      "inputs": [
        {
          "indexed": false,
          "internalType": "uint256",
          "name": "newLimitUsd",
          "type": "uint256"
        },
        {
          "indexed": false,
          "internalType": "uint256",
          "name": "timestamp",
          "type": "uint256"
        }
      ],
      "name": "DailySellLimitUpdated",
      "type": "event"
    },
    {
      "anonymous": false,
      "inputs": [
        {
          "indexed": true,
          "internalType": "address",
          "name": "previousOwner",
          "type": "address"
        },
        {
          "indexed": true,
          "internalType": "address",
          "name": "newOwner",
          "type": "address"
        }
      ],
      "name": "OwnershipTransferred",
      "type": "event"
    },
    {
      "anonymous": false,
      "inputs": [
        {
          "indexed": true,
          "internalType": "address",
          "name": "buyer",
          "type": "address"
        },
        {
          "indexed": false,
          "internalType": "uint256",
          "name": "amount",
          "type": "uint256"
        },
        {
          "indexed": false,
          "internalType": "uint256",
          "name": "priceMicroCents",
          "type": "uint256"
        },
        {
          "indexed": false,
          "internalType": "uint256",
          "name": "timestamp",
          "type": "uint256"
        },
        {
          "indexed": false,
          "internalType": "uint256",
          "name": "ethSpent",
          "type": "uint256"
        }
      ],
      "name": "SharesBought",
      "type": "event"
    },
    {
      "anonymous": false,
      "inputs": [
        {
          "indexed": true,
          "internalType": "address",
          "name": "seller",
          "type": "address"
        },
        {
          "indexed": false,
          "internalType": "uint256",
          "name": "amount",
          "type": "uint256"
        },
        {
          "indexed": false,
          "internalType": "uint256",
          "name": "priceMicroCents",
          "type": "uint256"
        },
        {
          "indexed": false,
          "internalType": "uint256",
          "name": "timestamp",
          "type": "uint256"
        },
        {
          "indexed": false,
          "internalType": "uint256",
          "name": "ethReceived",
          "type": "uint256"
        }
      ],
      "name": "SharesSold",
      "type": "event"
    },
    {
      "anonymous": false,
      "inputs": [
        {
          "indexed": true,
          "internalType": "address",
          "name": "from",
          "type": "address"
        },
        {
          "indexed": true,
          "internalType": "address",
          "name": "to",
          "type": "address"
        },
        {
          "indexed": false,
          "internalType": "uint256",
          "name": "value",
          "type": "uint256"
        }
      ],
      "name": "Transfer",
      "type": "event"
    },
    {
      "inputs": [],
      "name": "AIRDROP_SUPPLY",
      "outputs": [
        {
          "internalType": "uint256",
          "name": "",
          "type": "uint256"
        }
      ],
      "stateMutability": "view",
      "type": "function"
    },
    {
      "inputs": [],
      "name": "BUY_FEE",
      "outputs": [
        {
          "internalType": "uint256",
          "name": "",
          "type": "uint256"
        }
      ],
      "stateMutability": "view",
      "type": "function"
    },
    {
      "inputs": [],
      "name": "CURVE_TOKENS",
      "outputs": [
        {
          "internalType": "uint256",
          "name": "",
          "type": "uint256"
        }
      ],
      "stateMutability": "view",
      "type": "function"
    },
    {
      "inputs": [],
      "name": "DAILY_SELL_LIMIT",
      "outputs": [
        {
          "internalType": "uint256",
          "name": "",
          "type": "uint256"
        }
      ],
      "stateMutability": "view",
      "type": "function"
    },
    {
      "inputs": [],
      "name": "MAX_CANDLES_15M",
      "outputs": [
        {
          "internalType": "uint256",
          "name": "",
          "type": "uint256"
        }
      ],
      "stateMutability": "view",
      "type": "function"
    },
    {
      "inputs": [],
      "name": "MAX_CANDLES_1D",
      "outputs": [
        {
          "internalType": "uint256",
          "name": "",
          "type": "uint256"
        }
      ],
      "stateMutability": "view",
      "type": "function"
    },
    {
      "inputs": [],
      "name": "MAX_CANDLES_1H",
      "outputs": [
        {
          "internalType": "uint256",
          "name": "",
          "type": "uint256"
        }
      ],
      "stateMutability": "view",
      "type": "function"
    },
    {
      "inputs": [],
      "name": "MAX_CANDLES_1M",
      "outputs": [
        {
          "internalType": "uint256",
          "name": "",
          "type": "uint256"
        }
      ],
      "stateMutability": "view",
      "type": "function"
    },
    {
      "inputs": [],
      "name": "MAX_CANDLES_1W",
      "outputs": [
        {
          "internalType": "uint256",
          "name": "",
          "type": "uint256"
        }
      ],
      "stateMutability": "view",
      "type": "function"
    },
    {
      "inputs": [],
      "name": "MAX_CANDLES_30M",
      "outputs": [
        {
          "internalType": "uint256",
          "name": "",
          "type": "uint256"
        }
      ],
      "stateMutability": "view",
      "type": "function"
    },
    {
      "inputs": [],
      "name": "MAX_CANDLES_4H",
      "outputs": [
        {
          "internalType": "uint256",
          "name": "",
          "type": "uint256"
        }
      ],
      "stateMutability": "view",
      "type": "function"
    },
    {
      "inputs": [],
      "name": "MAX_CANDLES_5M",
      "outputs": [
        {
          "internalType": "uint256",
          "name": "",
          "type": "uint256"
        }
      ],
      "stateMutability": "view",
      "type": "function"
    },
    {
      "inputs": [],
      "name": "MAX_SELL_FEE",
      "outputs": [
        {
          "internalType": "uint256",
          "name": "",
          "type": "uint256"
        }
      ],
      "stateMutability": "view",
      "type": "function"
    },
    {
      "inputs": [],
      "name": "MIN_TOKENS_FOR_LP",
      "outputs": [
        {
          "internalType": "uint256",
          "name": "",
          "type": "uint256"
        }
      ],
      "stateMutability": "view",
      "type": "function"
    },
    {
      "inputs": [],
      "name": "PLATFORM_SUPPLY",
      "outputs": [
        {
          "internalType": "uint256",
          "name": "",
          "type": "uint256"
        }
      ],
      "stateMutability": "view",
      "type": "function"
    },
    {
      "inputs": [],
      "name": "SELL_COOLDOWN",
      "outputs": [
        {
          "internalType": "uint256",
          "name": "",
          "type": "uint256"
        }
      ],
      "stateMutability": "view",
      "type": "function"
    },
    {
      "inputs": [],
      "name": "SELL_FEE_BASE",
      "outputs": [
        {
          "internalType": "uint256",
          "name": "",
          "type": "uint256"
        }
      ],
      "stateMutability": "view",
      "type": "function"
    },
    {
      "inputs": [],
      "name": "SLOPE_NUMERATOR",
      "outputs": [
        {
          "internalType": "uint256",
          "name": "",
          "type": "uint256"
        }
      ],
      "stateMutability": "view",
      "type": "function"
    },
    {
      "inputs": [],
      "name": "TARGET_FDV_USD",
      "outputs": [
        {
          "internalType": "uint256",
          "name": "",
          "type": "uint256"
        }
      ],
      "stateMutability": "view",
      "type": "function"
    },
    {
      "inputs": [],
      "name": "TEAM_SUPPLY",
      "outputs": [
        {
          "internalType": "uint256",
          "name": "",
          "type": "uint256"
        }
      ],
      "stateMutability": "view",
      "type": "function"
    },
    {
      "inputs": [],
      "name": "TF_15MIN",
      "outputs": [
        {
          "internalType": "uint256",
          "name": "",
          "type": "uint256"
        }
      ],
      "stateMutability": "view",
      "type": "function"
    },
    {
      "inputs": [],
      "name": "TF_1DAY",
      "outputs": [
        {
          "internalType": "uint256",
          "name": "",
          "type": "uint256"
        }
      ],
      "stateMutability": "view",
      "type": "function"
    },
    {
      "inputs": [],
      "name": "TF_1H",
      "outputs": [
        {
          "internalType": "uint256",
          "name": "",
          "type": "uint256"
        }
      ],
      "stateMutability": "view",
      "type": "function"
    },
    {
      "inputs": [],
      "name": "TF_1MIN",
      "outputs": [
        {
          "internalType": "uint256",
          "name": "",
          "type": "uint256"
        }
      ],
      "stateMutability": "view",
      "type": "function"
    },
    {
      "inputs": [],
      "name": "TF_1WEEK",
      "outputs": [
        {
          "internalType": "uint256",
          "name": "",
          "type": "uint256"
        }
      ],
      "stateMutability": "view",
      "type": "function"
    },
    {
      "inputs": [],
      "name": "TF_30MIN",
      "outputs": [
        {
          "internalType": "uint256",
          "name": "",
          "type": "uint256"
        }
      ],
      "stateMutability": "view",
      "type": "function"
    },
    {
      "inputs": [],
      "name": "TF_4H",
      "outputs": [
        {
          "internalType": "uint256",
          "name": "",
          "type": "uint256"
        }
      ],
      "stateMutability": "view",
      "type": "function"
    },
    {
      "inputs": [],
      "name": "TF_5MIN",
      "outputs": [
        {
          "internalType": "uint256",
          "name": "",
          "type": "uint256"
        }
      ],
      "stateMutability": "view",
      "type": "function"
    },
    {
      "inputs": [],
      "name": "TOTAL_SUPPLY",
      "outputs": [
        {
          "internalType": "uint256",
          "name": "",
          "type": "uint256"
        }
      ],
      "stateMutability": "view",
      "type": "function"
    },
    {
      "inputs": [],
      "name": "USD_FRACTIONAL_DECIMALS",
      "outputs": [
        {
          "internalType": "uint256",
          "name": "",
          "type": "uint256"
        }
      ],
      "stateMutability": "view",
      "type": "function"
    },
    {
      "inputs": [],
      "name": "VESTING_DURATION",
      "outputs": [
        {
          "internalType": "uint256",
          "name": "",
          "type": "uint256"
        }
      ],
      "stateMutability": "view",
      "type": "function"
    },
    {
      "inputs": [],
      "name": "VESTING_PERIODS",
      "outputs": [
        {
          "internalType": "uint256",
          "name": "",
          "type": "uint256"
        }
      ],
      "stateMutability": "view",
      "type": "function"
    },
    {
      "inputs": [
        {
          "internalType": "address",
          "name": "",
          "type": "address"
        }
      ],
      "name": "airdropVested",
      "outputs": [
        {
          "internalType": "uint256",
          "name": "",
          "type": "uint256"
        }
      ],
      "stateMutability": "view",
      "type": "function"
    },
    {
      "inputs": [
        {
          "internalType": "address",
          "name": "owner",
          "type": "address"
        },
        {
          "internalType": "address",
          "name": "spender",
          "type": "address"
        }
      ],
      "name": "allowance",
      "outputs": [
        {
          "internalType": "uint256",
          "name": "",
          "type": "uint256"
        }
      ],
      "stateMutability": "view",
      "type": "function"
    },
    {
      "inputs": [
        {
          "internalType": "address",
          "name": "spender",
          "type": "address"
        },
        {
          "internalType": "uint256",
          "name": "value",
          "type": "uint256"
        }
      ],
      "name": "approve",
      "outputs": [
        {
          "internalType": "bool",
          "name": "",
          "type": "bool"
        }
      ],
      "stateMutability": "nonpayable",
      "type": "function"
    },
    {
      "inputs": [
        {
          "internalType": "address",
          "name": "account",
          "type": "address"
        }
      ],
      "name": "balanceOf",
      "outputs": [
        {
          "internalType": "uint256",
          "name": "",
          "type": "uint256"
        }
      ],
      "stateMutability": "view",
      "type": "function"
    },
    {
      "inputs": [
        {
          "internalType": "uint256",
          "name": "minTokensOut",
          "type": "uint256"
        }
      ],
      "name": "buy",
      "outputs": [],
      "stateMutability": "payable",
      "type": "function"
    },
    {
      "inputs": [
        {
          "internalType": "uint256",
          "name": "tokensIn",
          "type": "uint256"
        }
      ],
      "name": "calculateSellFee",
      "outputs": [
        {
          "internalType": "uint256",
          "name": "",
          "type": "uint256"
        }
      ],
      "stateMutability": "view",
      "type": "function"
    },
    {
      "inputs": [
        {
          "internalType": "uint256",
          "name": "",
          "type": "uint256"
        },
        {
          "internalType": "uint256",
          "name": "",
          "type": "uint256"
        }
      ],
      "name": "candlesByTimeframe",
      "outputs": [
        {
          "internalType": "uint256",
          "name": "timestamp",
          "type": "uint256"
        },
        {
          "internalType": "uint256",
          "name": "open",
          "type": "uint256"
        },
        {
          "internalType": "uint256",
          "name": "high",
          "type": "uint256"
        },
        {
          "internalType": "uint256",
          "name": "low",
          "type": "uint256"
        },
        {
          "internalType": "uint256",
          "name": "close",
          "type": "uint256"
        },
        {
          "internalType": "uint256",
          "name": "volume",
          "type": "uint256"
        }
      ],
      "stateMutability": "view",
      "type": "function"
    },
    {
      "inputs": [],
      "name": "claimTeamVested",
      "outputs": [],
      "stateMutability": "nonpayable",
      "type": "function"
    },
    {
      "inputs": [],
      "name": "curveComplete",
      "outputs": [
        {
          "internalType": "bool",
          "name": "",
          "type": "bool"
        }
      ],
      "stateMutability": "view",
      "type": "function"
    },
    {
      "inputs": [],
      "name": "dailySellLimitUsd",
      "outputs": [
        {
          "internalType": "uint256",
          "name": "",
          "type": "uint256"
        }
      ],
      "stateMutability": "view",
      "type": "function"
    },
    {
      "inputs": [
        {
          "internalType": "address",
          "name": "",
          "type": "address"
        }
      ],
      "name": "dailySellVolume",
      "outputs": [
        {
          "internalType": "uint256",
          "name": "",
          "type": "uint256"
        }
      ],
      "stateMutability": "view",
      "type": "function"
    },
    {
      "inputs": [],
      "name": "decimals",
      "outputs": [
        {
          "internalType": "uint8",
          "name": "",
          "type": "uint8"
        }
      ],
      "stateMutability": "view",
      "type": "function"
    },
    {
      "inputs": [
        {
          "internalType": "address",
          "name": "user",
          "type": "address"
        },
        {
          "internalType": "uint256",
          "name": "amount",
          "type": "uint256"
        }
      ],
      "name": "distributeAirdrop",
      "outputs": [],
      "stateMutability": "nonpayable",
      "type": "function"
    },
    {
      "inputs": [],
      "name": "ethInCurve",
      "outputs": [
        {
          "internalType": "uint256",
          "name": "",
          "type": "uint256"
        }
      ],
      "stateMutability": "view",
      "type": "function"
    },
    {
      "inputs": [
        {
          "internalType": "uint256",
          "name": "tokenAmount",
          "type": "uint256"
        }
      ],
      "name": "getCurrentPriceAfterSell",
      "outputs": [
        {
          "internalType": "uint256",
          "name": "",
          "type": "uint256"
        }
      ],
      "stateMutability": "view",
      "type": "function"
    },
    {
      "inputs": [],
      "name": "getCurrentPriceMicroUSD",
      "outputs": [
        {
          "internalType": "uint256",
          "name": "",
          "type": "uint256"
        }
      ],
      "stateMutability": "view",
      "type": "function"
    },
    {
      "inputs": [
        {
          "internalType": "uint256",
          "name": "tokenAmount",
          "type": "uint256"
        }
      ],
      "name": "getEthForTokens",
      "outputs": [
        {
          "internalType": "uint256",
          "name": "",
          "type": "uint256"
        }
      ],
      "stateMutability": "view",
      "type": "function"
    },
    {
      "inputs": [
        {
          "internalType": "uint256",
          "name": "tokenAmount",
          "type": "uint256"
        }
      ],
      "name": "getEthNeededForBuy",
      "outputs": [
        {
          "internalType": "uint256",
          "name": "",
          "type": "uint256"
        }
      ],
      "stateMutability": "view",
      "type": "function"
    },
    {
      "inputs": [],
      "name": "getEthUsdPrice",
      "outputs": [
        {
          "internalType": "uint256",
          "name": "",
          "type": "uint256"
        }
      ],
      "stateMutability": "view",
      "type": "function"
    },
    {
      "inputs": [],
      "name": "getPriceUsd",
      "outputs": [
        {
          "internalType": "uint256",
          "name": "",
          "type": "uint256"
        }
      ],
      "stateMutability": "view",
      "type": "function"
    },
    {
      "inputs": [
        {
          "internalType": "uint256",
          "name": "ethIn",
          "type": "uint256"
        }
      ],
      "name": "getTokensForEth",
      "outputs": [
        {
          "internalType": "uint256",
          "name": "",
          "type": "uint256"
        }
      ],
      "stateMutability": "view",
      "type": "function"
    },
    {
      "inputs": [],
      "name": "getUnlockedAirdrop",
      "outputs": [
        {
          "internalType": "uint256",
          "name": "",
          "type": "uint256"
        }
      ],
      "stateMutability": "view",
      "type": "function"
    },
    {
      "inputs": [
        {
          "internalType": "address",
          "name": "team",
          "type": "address"
        }
      ],
      "name": "getUnlockedTeam",
      "outputs": [
        {
          "internalType": "uint256",
          "name": "",
          "type": "uint256"
        }
      ],
      "stateMutability": "view",
      "type": "function"
    },
    {
      "inputs": [],
      "name": "lastResetDay",
      "outputs": [
        {
          "internalType": "uint256",
          "name": "",
          "type": "uint256"
        }
      ],
      "stateMutability": "view",
      "type": "function"
    },
    {
      "inputs": [
        {
          "internalType": "address",
          "name": "",
          "type": "address"
        }
      ],
      "name": "lastSellTime",
      "outputs": [
        {
          "internalType": "uint256",
          "name": "",
          "type": "uint256"
        }
      ],
      "stateMutability": "view",
      "type": "function"
    },
    {
      "inputs": [],
      "name": "name",
      "outputs": [
        {
          "internalType": "string",
          "name": "",
          "type": "string"
        }
      ],
      "stateMutability": "view",
      "type": "function"
    },
    {
      "inputs": [],
      "name": "owner",
      "outputs": [
        {
          "internalType": "address",
          "name": "",
          "type": "address"
        }
      ],
      "stateMutability": "view",
      "type": "function"
    },
    {
      "inputs": [],
      "name": "platformWallet",
      "outputs": [
        {
          "internalType": "address",
          "name": "",
          "type": "address"
        }
      ],
      "stateMutability": "view",
      "type": "function"
    },
    {
      "inputs": [],
      "name": "priceFeed",
      "outputs": [
        {
          "internalType": "contract AggregatorV3Interface",
          "name": "",
          "type": "address"
        }
      ],
      "stateMutability": "view",
      "type": "function"
    },
    {
      "inputs": [],
      "name": "renounceOwnership",
      "outputs": [],
      "stateMutability": "nonpayable",
      "type": "function"
    },
    {
      "inputs": [
        {
          "internalType": "uint256",
          "name": "tokensIn",
          "type": "uint256"
        },
        {
          "internalType": "uint256",
          "name": "minEthOut",
          "type": "uint256"
        }
      ],
      "name": "sell",
      "outputs": [],
      "stateMutability": "nonpayable",
      "type": "function"
    },
    {
      "inputs": [
        {
          "internalType": "uint256",
          "name": "newLimitUsd",
          "type": "uint256"
        }
      ],
      "name": "setDailySellLimit",
      "outputs": [],
      "stateMutability": "nonpayable",
      "type": "function"
    },
    {
      "inputs": [],
      "name": "symbol",
      "outputs": [
        {
          "internalType": "string",
          "name": "",
          "type": "string"
        }
      ],
      "stateMutability": "view",
      "type": "function"
    },
    {
      "inputs": [
        {
          "internalType": "address",
          "name": "",
          "type": "address"
        }
      ],
      "name": "teamVested",
      "outputs": [
        {
          "internalType": "uint256",
          "name": "",
          "type": "uint256"
        }
      ],
      "stateMutability": "view",
      "type": "function"
    },
    {
      "inputs": [],
      "name": "tokensInCurve",
      "outputs": [
        {
          "internalType": "uint256",
          "name": "",
          "type": "uint256"
        }
      ],
      "stateMutability": "view",
      "type": "function"
    },
    {
      "inputs": [],
      "name": "tokensSold",
      "outputs": [
        {
          "internalType": "uint256",
          "name": "",
          "type": "uint256"
        }
      ],
      "stateMutability": "view",
      "type": "function"
    },
    {
      "inputs": [],
      "name": "totalAirdropVested",
      "outputs": [
        {
          "internalType": "uint256",
          "name": "",
          "type": "uint256"
        }
      ],
      "stateMutability": "view",
      "type": "function"
    },
    {
      "inputs": [],
      "name": "totalSupply",
      "outputs": [
        {
          "internalType": "uint256",
          "name": "",
          "type": "uint256"
        }
      ],
      "stateMutability": "view",
      "type": "function"
    },
    {
      "inputs": [],
      "name": "totalTeamVested",
      "outputs": [
        {
          "internalType": "uint256",
          "name": "",
          "type": "uint256"
        }
      ],
      "stateMutability": "view",
      "type": "function"
    },
    {
      "inputs": [],
      "name": "totalVolumeTraded",
      "outputs": [
        {
          "internalType": "uint256",
          "name": "",
          "type": "uint256"
        }
      ],
      "stateMutability": "view",
      "type": "function"
    },
    {
      "inputs": [
        {
          "internalType": "address",
          "name": "to",
          "type": "address"
        },
        {
          "internalType": "uint256",
          "name": "value",
          "type": "uint256"
        }
      ],
      "name": "transfer",
      "outputs": [
        {
          "internalType": "bool",
          "name": "",
          "type": "bool"
        }
      ],
      "stateMutability": "nonpayable",
      "type": "function"
    },
    {
      "inputs": [
        {
          "internalType": "address",
          "name": "from",
          "type": "address"
        },
        {
          "internalType": "address",
          "name": "to",
          "type": "address"
        },
        {
          "internalType": "uint256",
          "name": "value",
          "type": "uint256"
        }
      ],
      "name": "transferFrom",
      "outputs": [
        {
          "internalType": "bool",
          "name": "",
          "type": "bool"
        }
      ],
      "stateMutability": "nonpayable",
      "type": "function"
    },
    {
      "inputs": [
        {
          "internalType": "address",
          "name": "newOwner",
          "type": "address"
        }
      ],
      "name": "transferOwnership",
      "outputs": [],
      "stateMutability": "nonpayable",
      "type": "function"
    },
    {
      "inputs": [],
      "name": "uniswapPair",
      "outputs": [
        {
          "internalType": "address",
          "name": "",
          "type": "address"
        }
      ],
      "stateMutability": "view",
      "type": "function"
    },
    {
      "inputs": [],
      "name": "uniswapRouter",
      "outputs": [
        {
          "internalType": "contract IUniswapV2Router02",
          "name": "",
          "type": "address"
        }
      ],
      "stateMutability": "view",
      "type": "function"
    },
    {
      "inputs": [],
      "name": "vestingStart",
      "outputs": [
        {
          "internalType": "uint256",
          "name": "",
          "type": "uint256"
        }
      ],
      "stateMutability": "view",
      "type": "function"
    },
    {
      "stateMutability": "payable",
      "type": "receive"
    }
  ],
  "bytecode": "0x608060405265048c273950006006553480156200001b57600080fd5b5060405162003be138038062003be18339810160408190526200003e91620007fb565b33868660036200004f83826200093d565b5060046200005e82826200093d565b5050506001600160a01b0381166200009157604051631e4fbdf760e01b8152600060048201526024015b60405180910390fd5b6200009c8162000556565b50600780546001600160a01b038085166001600160a01b03199283161790925560088054848416908316179055600a8054928616929091169190911790556200010c306064620000fa6b033b2e3c9fd0803ce8000000605062000a1f565b62000106919062000a55565b620005a8565b6200012c306064620000fa6b033b2e3c9fd0803ce8000000600a62000a1f565b6200014c306064620000fa6b033b2e3c9fd0803ce8000000600562000a1f565b6200016c836064620000fa6b033b2e3c9fd0803ce8000000600562000a1f565b42600b5560646200018b6b033b2e3c9fd0803ce8000000600a62000a1f565b62000197919062000a55565b6001600160a01b0385166000908152600c60205260409020556064620001cb6b033b2e3c9fd0803ce8000000600a62000a1f565b620001d7919062000a55565b600e556064620001f56b033b2e3c9fd0803ce8000000600562000a1f565b62000201919062000a55565b600f556001600160a01b03811615620003a7576008546040805163c45a015560e01b815290516000926001600160a01b03169163c45a01559160048083019260209291908290030181865afa1580156200025f573d6000803e3d6000fd5b505050506040513d601f19601f8201168201806040525081019062000285919062000a6c565b9050806001600160a01b031663c9c6539630600860009054906101000a90046001600160a01b03166001600160a01b031663ad5c46486040518163ffffffff1660e01b8152600401602060405180830381865afa158015620002eb573d6000803e3d6000fd5b505050506040513d601f19601f8201168201806040525081019062000311919062000a6c565b6040516001600160e01b031960e085901b1681526001600160a01b039283166004820152911660248201526044016020604051808303816000875af11580156200035f573d6000803e3d6000fd5b505050506040513d601f19601f8201168201806040525081019062000385919062000a6c565b600980546001600160a01b0319166001600160a01b0392909216919091179055505b60006011819055601055620003c0620151804262000a55565b6015556040805161010081018252603c815261012c6020820152610384918101919091526107086060820152610e10608082015261384060a08201526201518060c082015262093a8060e082015260005b60088110156200054857600082826008811062000432576200043262000a91565b60200201519050600062000447824262000aa7565b62000453904262000abe565b6000838152601660209081526040808320815160c08082018452868252818501868152828501878152606080850189815260808087018b815260a08089018d81528a5460018082018d559b8f528d8f209a516006909102909a01998a55965199890199909955935160028801559051600387015591516004860155915160059094019390935584518a8152958601889052938501869052928401859052830184905282018390528101919091529091507f0a6c631b67056f9b60b6c373fdb9dd5bc434cdac6594093a678b17c1f4eb70c09060e00160405180910390a1505080806200053f9062000ad4565b91505062000411565b505050505050505062000b06565b600580546001600160a01b038381166001600160a01b0319831681179093556040519116919082907f8be0079c531659141344cd1fd0a4f28419497f9722a3daafe3b4186f6b6457e090600090a35050565b6001600160a01b038216620005d45760405163ec442f0560e01b81526000600482015260240162000088565b620005e260008383620005e6565b5050565b6001600160a01b0383166200061557806002600082825462000609919062000af0565b90915550620006899050565b6001600160a01b038316600090815260208190526040902054818110156200066a5760405163391434e360e21b81526001600160a01b0385166004820152602481018290526044810183905260640162000088565b6001600160a01b03841660009081526020819052604090209082900390555b6001600160a01b038216620006a757600280548290039055620006c6565b6001600160a01b03821660009081526020819052604090208054820190555b816001600160a01b0316836001600160a01b03167fddf252ad1be2c89b69c2b068fc378daa952ba7f163c4a11628f55a4df523b3ef836040516200070c91815260200190565b60405180910390a3505050565b634e487b7160e01b600052604160045260246000fd5b600082601f8301126200074157600080fd5b81516001600160401b03808211156200075e576200075e62000719565b604051601f8301601f19908116603f0116810190828211818310171562000789576200078962000719565b81604052838152602092508683858801011115620007a657600080fd5b600091505b83821015620007ca5785820183015181830184015290820190620007ab565b600093810190920192909252949350505050565b80516001600160a01b0381168114620007f657600080fd5b919050565b60008060008060008060c087890312156200081557600080fd5b86516001600160401b03808211156200082d57600080fd5b6200083b8a838b016200072f565b975060208901519150808211156200085257600080fd5b506200086189828a016200072f565b9550506200087260408801620007de565b93506200088260608801620007de565b92506200089260808801620007de565b9150620008a260a08801620007de565b90509295509295509295565b600181811c90821680620008c357607f821691505b602082108103620008e457634e487b7160e01b600052602260045260246000fd5b50919050565b601f8211156200093857600081815260208120601f850160051c81016020861015620009135750805b601f850160051c820191505b8181101562000934578281556001016200091f565b5050505b505050565b81516001600160401b0381111562000959576200095962000719565b62000971816200096a8454620008ae565b84620008ea565b602080601f831160018114620009a95760008415620009905750858301515b600019600386901b1c1916600185901b17855562000934565b600085815260208120601f198616915b82811015620009da57888601518255948401946001909101908401620009b9565b5085821015620009f95787850151600019600388901b60f8161c191681555b5050505050600190811b01905550565b634e487b7160e01b600052601160045260246000fd5b808202811582820484141762000a395762000a3962000a09565b92915050565b634e487b7160e01b600052601260045260246000fd5b60008262000a675762000a6762000a3f565b500490565b60006020828403121562000a7f57600080fd5b62000a8a82620007de565b9392505050565b634e487b7160e01b600052603260045260246000fd5b60008262000ab95762000ab962000a3f565b500690565b8181038181111562000a395762000a3962000a09565b60006001820162000ae95762000ae962000a09565b5060010190565b8082018082111562000a395762000a3962000a09565b6130cb8062000b166000396000f3fe6080604052600436106105415760003560e01c806379f1f08d116102af578063b202be4311610179578063d1d21cb4116100d6578063dd62ed3e1161008a578063e7664af91161006f578063e7664af914610d59578063f2fde38b14610d6f578063fa2af9da14610d8f57600080fd5b8063dd62ed3e14610cf3578063dfe100d414610d3957600080fd5b8063d79875eb116100bb578063d79875eb14610ca7578063d969be1814610cc7578063d96a094a14610ce057600080fd5b8063d1d21cb414610c73578063d206d32214610c9257600080fd5b8063bde8d2621161012d578063c816841b11610112578063c816841b14610c3e578063c9808e3614610a32578063cd08462514610c5e57600080fd5b8063bde8d26214610c13578063c6675f0214610c2957600080fd5b8063b497ab921161015e578063b497ab9214610bd3578063b607958714610be8578063b9c3a81814610bfe57600080fd5b8063b202be4314610b91578063b44b4b8014610ba657600080fd5b806395d89b4111610227578063a0a8045e116101db578063a3aabeab116101c0578063a3aabeab14610b3b578063a9059cbb14610b51578063ab56ff9314610b7157600080fd5b8063a0a8045e14610b11578063a3544a7914610b2657600080fd5b8063972759671161020c5780639727596714610ad157806397cadba214610ae75780639867a3e014610afc57600080fd5b806395d89b4114610aa657806396d2e24014610abb57600080fd5b8063867508ad1161027e5780638da5cb5b116102635780638da5cb5b14610a48578063902d55a514610a665780639299aa4e14610a8657600080fd5b8063867508ad14610a325780638a857bc1146105f557600080fd5b806379f1f08d146109b95780637c55a405146109cf5780637f6c1d7f146109e55780638294dec114610a0557600080fd5b8063332c4cf81161040b578063664f54fb11610368578063725ffad71161031c578063735de9f711610301578063735de9f71461094c578063741bef1a1461098457806376a813ae146109a457600080fd5b8063725ffad71461090a57806372648e381461091f57600080fd5b806370a082311161034d57806370a082311461089f578063715018a6146108d55780637185c677146108ea57600080fd5b8063664f54fb1461086a5780636cd64ccb1461087f57600080fd5b80634cfc4d30116103bf5780635510ccba116103a45780635510ccba146108275780635adc19c71461083d5780635e1775581461085357600080fd5b80634cfc4d30146107f9578063518ab2a81461081157600080fd5b8063411e314e116103f0578063411e314e146107c15780634329a3451461054d57806347598d2f146107d757600080fd5b8063332c4cf81461077a5780633d589c041461079457600080fd5b8063184106c7116104b957806323b872dd1161046d5780632736e888116104525780632736e888146106fc57806327b9bb9c14610749578063313ce5671461075e57600080fd5b806323b872dd146106c6578063254800d4146106e657600080fd5b80631e7bace01161049e5780631e7bace01461067757806320689fe51461068c57806320f1b912146106ac57600080fd5b8063184106c71461064b578063190572dd1461066157600080fd5b80630abccffc116105105780631259a5c8116104f55780631259a5c81461060a578063126d42b01461062057806318160ddd1461063657600080fd5b80630abccffc146105de5780630eab3322146105f557600080fd5b806306d825a21461054d57806306fdde0314610576578063095ea7b314610598578063096beaf2146105c857600080fd5b3661054857005b600080fd5b34801561055957600080fd5b50610563610e1081565b6040519081526020015b60405180910390f35b34801561058257600080fd5b5061058b610daf565b60405161056d9190612ca9565b3480156105a457600080fd5b506105b86105b3366004612d0e565b610e41565b604051901515815260200161056d565b3480156105d457600080fd5b50610563600e5481565b3480156105ea57600080fd5b5061056362093a8081565b34801561060157600080fd5b50610563610e5b565b34801561061657600080fd5b5061056360155481565b34801561062c57600080fd5b506105636102bc81565b34801561064257600080fd5b50600254610563565b34801561065757600080fd5b5061056361070881565b34801561066d57600080fd5b50610563600f5481565b34801561068357600080fd5b50610563602481565b34801561069857600080fd5b506105636106a7366004612d38565b610e81565b3480156106b857600080fd5b506012546105b89060ff1681565b3480156106d257600080fd5b506105b86106e1366004612d51565b610f1c565b3480156106f257600080fd5b50610563600b5481565b34801561070857600080fd5b5061071c610717366004612d8d565b610f40565b604080519687526020870195909552938501929092526060840152608083015260a082015260c00161056d565b34801561075557600080fd5b50610563603281565b34801561076a57600080fd5b506040516012815260200161056d565b34801561078657600080fd5b50610563650646880c880081565b3480156107a057600080fd5b506105636107af366004612daf565b60136020526000908152604090205481565b3480156107cd57600080fd5b5061056361019081565b3480156107e357600080fd5b506107f76107f2366004612d38565b610f94565b005b34801561080557600080fd5b506105636305a39a8081565b34801561081d57600080fd5b5061056360105481565b34801561083357600080fd5b5061056361012c81565b34801561084957600080fd5b5061056360175481565b34801561085f57600080fd5b506105636201518081565b34801561087657600080fd5b50610563606481565b34801561088b57600080fd5b5061056361089a366004612d38565b611036565b3480156108ab57600080fd5b506105636108ba366004612daf565b6001600160a01b031660009081526020819052604090205490565b3480156108e157600080fd5b506107f76110a5565b3480156108f657600080fd5b506107f7610905366004612d0e565b6110b9565b34801561091657600080fd5b50610563600881565b34801561092b57600080fd5b5061056361093a366004612daf565b600d6020526000908152604090205481565b34801561095857600080fd5b5060085461096c906001600160a01b031681565b6040516001600160a01b03909116815260200161056d565b34801561099057600080fd5b5060075461096c906001600160a01b031681565b3480156109b057600080fd5b506105636111da565b3480156109c557600080fd5b5061056361035281565b3480156109db57600080fd5b5061056360065481565b3480156109f157600080fd5b50610563610a00366004612daf565b6111f8565b348015610a1157600080fd5b50610563610a20366004612daf565b600c6020526000908152604090205481565b348015610a3e57600080fd5b5061056361025881565b348015610a5457600080fd5b506005546001600160a01b031661096c565b348015610a7257600080fd5b506105636b033b2e3c9fd0803ce800000081565b348015610a9257600080fd5b50610563610aa1366004612d38565b6112e7565b348015610ab257600080fd5b5061058b61142c565b348015610ac757600080fd5b506105636103e881565b348015610add57600080fd5b5061056360115481565b348015610af357600080fd5b5061056361143b565b348015610b0857600080fd5b50610563611452565b348015610b1d57600080fd5b506105636114b1565b348015610b3257600080fd5b5061056361154a565b348015610b4757600080fd5b506105636101f481565b348015610b5d57600080fd5b506105b8610b6c366004612d0e565b611554565b348015610b7d57600080fd5b50610563610b8c366004612d38565b611562565b348015610b9d57600080fd5b50610563603c81565b348015610bb257600080fd5b50610563610bc1366004612daf565b60146020526000908152604090205481565b348015610bdf57600080fd5b506105636115ff565b348015610bf457600080fd5b5061056361384081565b348015610c0a57600080fd5b50610563611632565b348015610c1f57600080fd5b5061056361038481565b348015610c3557600080fd5b5061056361164b565b348015610c4a57600080fd5b5060095461096c906001600160a01b031681565b348015610c6a57600080fd5b506107f7611664565b348015610c7f57600080fd5b506105636a52b7d2dcc80cd2e400000081565b348015610c9e57600080fd5b50610563603481565b348015610cb357600080fd5b506107f7610cc2366004612d8d565b61170d565b348015610cd357600080fd5b5061056364e8d4a5100081565b6107f7610cee366004612d38565b611c0b565b348015610cff57600080fd5b50610563610d0e366004612dca565b6001600160a01b03918216600090815260016020908152604080832093909416825291909152205490565b348015610d4557600080fd5b50610563610d54366004612d38565b611e90565b348015610d6557600080fd5b5061056361016d81565b348015610d7b57600080fd5b506107f7610d8a366004612daf565b61202c565b348015610d9b57600080fd5b50600a5461096c906001600160a01b031681565b606060038054610dbe90612dfd565b80601f0160208091040260200160405190810160405280929190818152602001828054610dea90612dfd565b8015610e375780601f10610e0c57610100808354040283529160200191610e37565b820191906000526020600020905b815481529060010190602001808311610e1a57829003601f168201915b5050505050905090565b600033610e4f818585612080565b60019150505b92915050565b6064610e746b033b2e3c9fd0803ce80000006005612e4d565b610e7e9190612e7a565b81565b3360009081526020819052604081205480600003610ea25750606492915050565b600081610eb0856064612e4d565b610eba9190612e7a565b9050600060058211610ecd576000610eee565b610ed8600583612e8e565b610ee3906064612e4d565b610eee906002612e4d565b90506000610efd826064612ea1565b90506102588111610f0e5780610f12565b6102585b9695505050505050565b600033610f2a858285612092565b610f3585858561212a565b506001949350505050565b60166020528160005260406000208181548110610f5c57600080fd5b600091825260209091206006909102018054600182015460028301546003840154600485015460059095015493965091945092909186565b610f9c6121bb565b64e8d4a51000811015610ff65760405162461bcd60e51b815260206004820152600760248201527f546f6f206c6f770000000000000000000000000000000000000000000000000060448201526064015b60405180910390fd5b6006819055604080518281524260208201527ff9edd5c2d813614b88262f52d57ff8f470e13704de180f350eeeec375f2e8f83910160405180910390a150565b6000811580611047575060125460ff165b80611053575060105482115b1561106057506000919050565b6000826010546110709190612e8e565b905080600003611084575050601154919050565b6010546011546110949085612e4d565b61109e9190612e7a565b9392505050565b6110ad6121bb565b6110b76000612201565b565b6110c16121bb565b6110d381670de0b6b3a7640000612e4d565b905060006110df611452565b9050808211156111315760405162461bcd60e51b815260206004820152601260248201527f4e6f7420656e6f7567682061697264726f7000000000000000000000000000006044820152606401610fed565b60125460ff16156111755760405162461bcd60e51b815260206004820152600e60248201526d437572766520636f6d706c65746560901b6044820152606401610fed565b61118030848461212a565b81600f60008282546111929190612e8e565b90915550506040518281526001600160a01b038416907fef90046b8142ea9ef9fbd7a5569b220918264e0b4a07f0103e11e3c21f999da69060200160405180910390a2505050565b60006305f5e1006111e961154a565b6111f39190612e7a565b905090565b6000600b54421015611235576001600160a01b0382166000908152600c602052604090205460649061122b906014612e4d565b610e559190612e7a565b6000600b54426112459190612e8e565b6001600160a01b0384166000908152600c602052604081205491925090606490611270906050612e4d565b61127a9190612e7a565b905060006305a39a8061128d8484612e4d565b6112979190612e7a565b6001600160a01b0386166000908152600c6020526040812054919250906064906112c2906014612e4d565b6112cc9190612e7a565b90508282116112db57816112dd565b825b610f129082612ea1565b60008115806112f8575060125460ff165b1561130557506000919050565b60105460009060646113246b033b2e3c9fd0803ce80000006050612e4d565b61132e9190612e7a565b6113389190612e8e565b905080831115611346578092505b60115483600082810361139b5761136364e8d4a510006002612e4d565b61136d8380612e4d565b6113779190612e7a565b90508060000361139657611393670de0b6b3a764000083612e7a565b90505b6113fc565b60006113a8846002612e4d565b9050806000036113bf575060009695505050505050565b6000836113cd866002612e4d565b6113d79190612e4d565b6113e18580612e4d565b6113eb9190612ea1565b90506113f78282612e7a565b925050505b600061140b6032612710612e8e565b61141783612710612e4d565b6114219190612e7a565b979650505050505050565b606060048054610dbe90612dfd565b610e7e60146b033b2e3c9fd0803ce8000000612e7a565b6000600b544210156114645750600090565b6000600b54426114749190612e8e565b905060006305a39a8082600f5461148b9190612e4d565b6114959190612e7a565b9050600f5481116114a657806114aa565b600f545b9250505090565b600080600760009054906101000a90046001600160a01b03166001600160a01b031663feaf968c6040518163ffffffff1660e01b815260040160a060405180830381865afa158015611507573d6000803e3d6000fd5b505050506040513d601f19601f8201168201806040525081019061152b9190612ece565b505050915050600081136115455764517da02c0091505090565b919050565b60006111f361226b565b600033610e4f81858561212a565b60125460009060ff161561157857506000919050565b6000826010541161158a576000611598565b826010546115989190612e8e565b9050806000036115ab5750600092915050565b60008160115464e8d4a510006115c19190612e4d565b6115cb9190612e7a565b905060006115d76114b1565b9050670de0b6b3a76400006115ec8284612e4d565b6115f69190612e7a565b95945050505050565b601054600090606461161e6b033b2e3c9fd0803ce80000006050612e4d565b6116289190612e7a565b6111f39190612e8e565b6064610e746b033b2e3c9fd0803ce8000000600a612e4d565b6064610e746b033b2e3c9fd0803ce80000006050612e4d565b600061166f336111f8565b9050600081116116c15760405162461bcd60e51b815260206004820152600e60248201527f4e6f7468696e67207665737465640000000000000000000000000000000000006044820152606401610fed565b336000908152600c6020526040812080548392906116e0908490612e8e565b9250508190555080600e60008282546116f99190612e8e565b9091555061170a905030338361212a565b50565b60125460ff16156117515760405162461bcd60e51b815260206004820152600e60248201526d437572766520636f6d706c65746560901b6044820152606401610fed565b600082116117a15760405162461bcd60e51b815260206004820152600b60248201527f5a65726f20616d6f756e740000000000000000000000000000000000000000006044820152606401610fed565b6117aa336122d8565b60006117b461154a565b905060006117c184611036565b905060646117ce85611562565b6117d990605f612e4d565b6117e39190612e7a565b8210156118325760405162461bcd60e51b815260206004820152600a60248201527f3e352520696d70616374000000000000000000000000000000000000000000006044820152606401610fed565b6000670de0b6b3a76400006118478487612e4d565b6118519190612e7a565b90506006548111156118a55760405162461bcd60e51b815260206004820152601760248201527f45786365656473206461696c7920555344206c696d69740000000000000000006044820152606401610fed565b6118bc60146b033b2e3c9fd0803ce8000000612e7a565b336000908152601360205260409020546118d7908790612ea1565b11156119255760405162461bcd60e51b815260206004820152600f60248201527f4461696c7920746f6b656e2063617000000000000000000000000000000000006044820152606401610fed565b3360009081526014602052604090205461194290610e1090612ea1565b4210156119915760405162461bcd60e51b815260206004820152600860248201527f436f6f6c646f776e0000000000000000000000000000000000000000000000006044820152606401610fed565b600061199c86610e81565b905060006127106119ad8386612e4d565b6119b79190612e7a565b905060006119c58286612e8e565b905086811015611a025760405162461bcd60e51b8152602060048201526008602482015267536c69707061676560c01b6044820152606401610fed565b601154811115611a545760405162461bcd60e51b815260206004820152601760248201527f4e6f7420656e6f7567682045544820696e2063757276650000000000000000006044820152606401610fed565b611a5f33308a61212a565b8060116000828254611a719190612e8e565b925050819055508760106000828254611a8a9190612e8e565b9091555060009050611a9d600284612e7a565b600a549091506001600160a01b03166108fc611ab98386612e8e565b6040518115909202916000818181858888f19350505050158015611ae1573d6000803e3d6000fd5b5060405161dead9082156108fc029083906000818181858888f19350505050158015611b11573d6000803e3d6000fd5b50604051339083156108fc029084906000818181858888f19350505050158015611b3f573d6000803e3d6000fd5b5033600090815260136020526040812080548b9290611b5f908490612ea1565b9091555050336000908152601460205260408120429055601780548b9290611b88908490612ea1565b90915550611ba79050611ba1611b9c61154a565b612316565b8a612339565b611baf612755565b337fb3ceb42a32f3ca5e34d391e95bb615024463c833a09fc7f107311636234cf7618a611bda61226b565b60408051928352602083019190915242908201526060810185905260800160405180910390a2505050505050505050565b60125460ff1615611c4f5760405162461bcd60e51b815260206004820152600e60248201526d437572766520636f6d706c65746560901b6044820152606401610fed565b60003411611c9f5760405162461bcd60e51b815260206004820152600660248201527f4e6f2045544800000000000000000000000000000000000000000000000000006044820152606401610fed565b6000612710611caf603234612e4d565b611cb99190612e7a565b90506000611cc78234612e8e565b90506000611cd482611e90565b905083811015611d115760405162461bcd60e51b8152602060048201526008602482015267536c69707061676560c01b6044820152606401610fed565b6064611d2a6b033b2e3c9fd0803ce80000006050612e4d565b611d349190612e7a565b81601054611d429190612ea1565b1115611d905760405162461bcd60e51b815260206004820152600d60248201527f45786365656473206375727665000000000000000000000000000000000000006044820152606401610fed565b8160116000828254611da29190612ea1565b925050819055508060106000828254611dbb9190612ea1565b9091555050600a546040516001600160a01b039091169084156108fc029085906000818181858888f19350505050158015611dfa573d6000803e3d6000fd5b50611e0630338361212a565b8060176000828254611e189190612ea1565b90915550611e329050611e2c611b9c61154a565b82612339565b611e3a612755565b337f966579f10296a735f34b6c2e9343145a54d1de09636beb75f65ac19ca8eabc7382611e6561226b565b604080519283526020830191909152429082015234606082015260800160405180910390a250505050565b6000811580611ea1575060125460ff165b15611eae57506000919050565b6010546000906064611ecd6b033b2e3c9fd0803ce80000006050612e4d565b611ed79190612e7a565b611ee19190612e8e565b905080600003611ef45750600092915050565b601154836000828103611f7257600082611f1464e8d4a510006002612e4d565b611f1e9190612e4d565b611f3090670de0b6b3a7640000612e4d565b90506000611f3d82612963565b905080925082600003611f6b576001611f5e85670de0b6b3a7640000612e4d565b611f689190612e7a565b92505b505061201a565b600064e8d4a5100083611f86866002612e4d565b611f909190612e4d565b611f9a9190612e4d565b611fa48580612e4d565b611fae9190612ea1565b90506000611fbb82612963565b9050611fc78582612e8e565b92508260000361201757601054611fe38664e8d4a51000612e4d565b611fed9190612e7a565b611ff8906001612ea1565b61200a85670de0b6b3a7640000612e4d565b6120149190612e7a565b92505b50505b838111156115f6575091949350505050565b6120346121bb565b6001600160a01b038116612077576040517f1e4fbdf700000000000000000000000000000000000000000000000000000000815260006004820152602401610fed565b61170a81612201565b61208d83838360016129c4565b505050565b6001600160a01b038381166000908152600160209081526040808320938616835292905220546000198110156121245781811015612115576040517ffb8f41b20000000000000000000000000000000000000000000000000000000081526001600160a01b03841660048201526024810182905260448101839052606401610fed565b612124848484840360006129c4565b50505050565b6001600160a01b03831661216d576040517f96c6fd1e00000000000000000000000000000000000000000000000000000000815260006004820152602401610fed565b6001600160a01b0382166121b0576040517fec442f0500000000000000000000000000000000000000000000000000000000815260006004820152602401610fed565b61208d838383612acb565b6005546001600160a01b031633146110b7576040517f118cdaa7000000000000000000000000000000000000000000000000000000008152336004820152602401610fed565b600580546001600160a01b038381167fffffffffffffffffffffffff0000000000000000000000000000000000000000831681179093556040519116919082907f8be0079c531659141344cd1fd0a4f28419497f9722a3daafe3b4186f6b6457e090600090a35050565b6000806122766114b1565b90506000601154652d79883d200061228e9190612ea1565b9050600060105468056bc75e2d631000006122a99190612ea1565b905060006122be82662386f26fc10000612e4d565b846122ce8564e8d4a51000612e4d565b6115ec9190612e4d565b60006122e76201518042612e7a565b9050601554811115612312576001600160a01b03821660009081526013602052604081205560158190555b5050565b60006123246008600a613002565b61232f906064612e4d565b610e559083612e7a565b6040805161010081018252603c815261012c6020820152610384918101919091526107086060820152610e10608082015261384060a08201526201518060c082015262093a8060e082015260005b60088110156121245760008282600881106123a4576123a461300e565b6020020151905060006123b78242613024565b6123c19042612e8e565b6000838152601660205260408120805492935091158061241257508154839083906123ee90600190612e8e565b815481106123fe576123fe61300e565b906000526020600020906006020160000154105b905080156124f6578154600090612429578861245c565b8254839061243990600190612e8e565b815481106124495761244961300e565b9060005260206000209060060201600401545b9050826040518060c001604052808681526020018381526020018b81526020018b81526020018b8152602001670de0b6b3a76400008b61249c9190612e7a565b905281546001818101845560009384526020938490208351600690930201918255928201519281019290925560408101516002830155606081015160038301556080810151600483015560a0015160059091015550612584565b8154600090839061250990600190612e8e565b815481106125195761251961300e565b90600052602060002090600602019050806002015489111561253d57600281018990555b806003015489101561255157600381018990555b6004810189905561256a670de0b6b3a764000089612e7a565b81600501600082825461257d9190612ea1565b9091555050505b600061258f85612c0e565b90505b82548110156126955760015b8354811015612645578381815481106125b9576125b961300e565b9060005260206000209060060201846001836125d59190612e8e565b815481106125e5576125e561300e565b9060005260206000209060060201600082015481600001556001820154816001015560028201548160020155600382015481600301556004820154816004015560058201548160050155905050808061263d90613038565b91505061259e565b508280548061265657612656613051565b60008281526020812060066000199093019283020181815560018101829055600281018290556003810182905560048101829055600501559055612592565b825460009084906126a890600190612e8e565b815481106126b8576126b861300e565b60009182526020918290206001600690920201908101546002820154600383015460048401546005850154604080518e81529788018d90528701949094526060860192909252608085015260a084015260c083015291507f0a6c631b67056f9b60b6c373fdb9dd5bc434cdac6594093a678b17c1f4eb70c09060e00160405180910390a1505050505050808061274d90613038565b915050612387565b60125460ff161561276257565b6000612782670de0b6b3a76400006b033b2e3c9fd0803ce8000000612e7a565b61278a61154a565b6127949190612e4d565b9050650646880c880081101580156127b957506a52b7d2dcc80cd2e400000060105410155b1561170a576012805460ff1916600117905560105460009060646127ea6b033b2e3c9fd0803ce80000006050612e4d565b6127f49190612e7a565b6127fe9190612e8e565b9050600060026011546128119190612e7a565b60085490915061282c9030906001600160a01b031684612080565b6008546001600160a01b031663f305d7198230856000806128556005546001600160a01b031690565b6128614261012c612ea1565b60405160e089901b7fffffffff000000000000000000000000000000000000000000000000000000001681526001600160a01b039687166004820152602481019590955260448501939093526064840191909152909216608482015260a481019190915260c40160606040518083038185885af11580156128e6573d6000803e3d6000fd5b50505050506040513d601f19601f8201168201806040525081019061290b9190613067565b50505080601160008282546129209190612e8e565b909155505060408051828152602081018490527f654e1d49372e305713e05ff2ed090670dd8683b365ce33618c15e187b875d21d910160405180910390a1505050565b60008160000361297557506000919050565b60006002612984846001612ea1565b61298e9190612e7a565b9050825b8082101561109e5750806002816129a98187612e7a565b6129b39190612ea1565b6129bd9190612e7a565b9150612992565b6001600160a01b038416612a07576040517fe602df0500000000000000000000000000000000000000000000000000000000815260006004820152602401610fed565b6001600160a01b038316612a4a576040517f94280d6200000000000000000000000000000000000000000000000000000000815260006004820152602401610fed565b6001600160a01b038085166000908152600160209081526040808320938716835292905220829055801561212457826001600160a01b0316846001600160a01b03167f8c5be1e5ebec7d5bd14f71427d1e84f3dd0314c0f7b2291e5b200ac8c7c3b92584604051612abd91815260200190565b60405180910390a350505050565b6001600160a01b038316612af6578060026000828254612aeb9190612ea1565b90915550612b819050565b6001600160a01b03831660009081526020819052604090205481811015612b62576040517fe450d38c0000000000000000000000000000000000000000000000000000000081526001600160a01b03851660048201526024810182905260448101839052606401610fed565b6001600160a01b03841660009081526020819052604090209082900390555b6001600160a01b038216612b9d57600280548290039055612bbc565b6001600160a01b03821660009081526020819052604090208054820190555b816001600160a01b0316836001600160a01b03167fddf252ad1be2c89b69c2b068fc378daa952ba7f163c4a11628f55a4df523b3ef83604051612c0191815260200190565b60405180910390a3505050565b6000603c8203612c2157506103e8919050565b61012c8203612c335750610352919050565b6103848203612c4557506102bc919050565b6107088203612c575750610258919050565b610e108203612c6957506101f4919050565b6138408203612c7b5750610190919050565b620151808203612c8e575061016d919050565b62093a808203612ca057506034919050565b506101f4919050565b600060208083528351808285015260005b81811015612cd657858101830151858201604001528201612cba565b506000604082860101526040601f19601f8301168501019250505092915050565b80356001600160a01b038116811461154557600080fd5b60008060408385031215612d2157600080fd5b612d2a83612cf7565b946020939093013593505050565b600060208284031215612d4a57600080fd5b5035919050565b600080600060608486031215612d6657600080fd5b612d6f84612cf7565b9250612d7d60208501612cf7565b9150604084013590509250925092565b60008060408385031215612da057600080fd5b50508035926020909101359150565b600060208284031215612dc157600080fd5b61109e82612cf7565b60008060408385031215612ddd57600080fd5b612de683612cf7565b9150612df460208401612cf7565b90509250929050565b600181811c90821680612e1157607f821691505b602082108103612e3157634e487b7160e01b600052602260045260246000fd5b50919050565b634e487b7160e01b600052601160045260246000fd5b8082028115828204841417610e5557610e55612e37565b634e487b7160e01b600052601260045260246000fd5b600082612e8957612e89612e64565b500490565b81810381811115610e5557610e55612e37565b80820180821115610e5557610e55612e37565b805169ffffffffffffffffffff8116811461154557600080fd5b600080600080600060a08688031215612ee657600080fd5b612eef86612eb4565b9450602086015193506040860151925060608601519150612f1260808701612eb4565b90509295509295909350565b600181815b80851115612f59578160001904821115612f3f57612f3f612e37565b80851615612f4c57918102915b93841c9390800290612f23565b509250929050565b600082612f7057506001610e55565b81612f7d57506000610e55565b8160018114612f935760028114612f9d57612fb9565b6001915050610e55565b60ff841115612fae57612fae612e37565b50506001821b610e55565b5060208310610133831016604e8410600b8410161715612fdc575081810a610e55565b612fe68383612f1e565b8060001904821115612ffa57612ffa612e37565b029392505050565b600061109e8383612f61565b634e487b7160e01b600052603260045260246000fd5b60008261303357613033612e64565b500690565b60006001820161304a5761304a612e37565b5060010190565b634e487b7160e01b600052603160045260246000fd5b60008060006060848603121561307c57600080fd5b835192506020840151915060408401519050925092509256fea2646970667358221220d91f1043809c117ed22122544056e60bfc96e3f0c24eadd57b45a47b1ab0436764736f6c63430008140033",
  "linkReferences": {},
  "deployedLinkReferences": {}
}