{
  "_format": "hh-sol-artifact-1",
  "contractName": "ArtistSharesFactory",
  "sourceName": "contracts/ArtistSharesFactory.sol",
  "abi": [
    {
      "inputs": [
        {
          "internalType": "address",
          "name": "_platformAddress",
          "type": "address"
        },
        {
          "internalType": "address",
          "name": "_priceFeedAddress",
          "type": "address"
        },
        {
          "internalType": "address",
          "name": "_uniswapRouterAddress",
          "type": "address"
        }
      ],
      "stateMutability": "nonpayable",
      "type": "constructor"
    },
    {
      "anonymous": false,
      "inputs": [
        {
          "indexed": false,
          "internalType": "address",
          "name": "tokenAddress",
          "type": "address"
        },
        {
          "indexed": false,
          "internalType": "string",
          "name": "artistId",
          "type": "string"
        },
        {
          "indexed": false,
          "internalType": "string",
          "name": "artistName",
          "type": "string"
        }
      ],
      "name": "ArtistTokenCreated",
      "type": "event"
    },
    {
      "inputs": [
        {
          "internalType": "string",
          "name": "",
          "type": "string"
        }
      ],
      "name": "artistToToken",
      "outputs": [
        {
          "internalType": "address",
          "name": "",
          "type": "address"
        }
      ],
      "stateMutability": "view",
      "type": "function"
    },
    {
      "inputs": [
        {
          "internalType": "string",
          "name": "artistId",
          "type": "string"
        },
        {
          "internalType": "string",
          "name": "name",
          "type": "string"
        },
        {
          "internalType": "string",
          "name": "symbol",
          "type": "string"
        },
        {
          "internalType": "address",
          "name": "teamWallet",
          "type": "address"
        }
      ],
      "name": "createArtistToken",
      "outputs": [
        {
          "internalType": "address",
          "name": "",
          "type": "address"
        }
      ],
      "stateMutability": "nonpayable",
      "type": "function"
    },
    {
      "inputs": [
        {
          "internalType": "uint256",
          "name": "",
          "type": "uint256"
        }
      ],
      "name": "deployedTokens",
      "outputs": [
        {
          "internalType": "address",
          "name": "",
          "type": "address"
        }
      ],
      "stateMutability": "view",
      "type": "function"
    },
    {
      "inputs": [],
      "name": "getDeployedTokens",
      "outputs": [
        {
          "internalType": "address[]",
          "name": "",
          "type": "address[]"
        }
      ],
      "stateMutability": "view",
      "type": "function"
    },
    {
      "inputs": [],
      "name": "getPlatformAddress",
      "outputs": [
        {
          "internalType": "address",
          "name": "",
          "type": "address"
        }
      ],
      "stateMutability": "view",
      "type": "function"
    },
    {
      "inputs": [
        {
          "internalType": "string",
          "name": "artistId",
          "type": "string"
        }
      ],
      "name": "getTokenByArtistId",
      "outputs": [
        {
          "internalType": "address",
          "name": "",
          "type": "address"
        }
      ],
      "stateMutability": "view",
      "type": "function"
    },
    {
      "inputs": [],
      "name": "platformAddress",
      "outputs": [
        {
          "internalType": "address",
          "name": "",
          "type": "address"
        }
      ],
      "stateMutability": "view",
      "type": "function"
    },
    {
      "inputs": [],
      "name": "priceFeedAddress",
      "outputs": [
        {
          "internalType": "address",
          "name": "",
          "type": "address"
        }
      ],
      "stateMutability": "view",
      "type": "function"
    },
    {
      "inputs": [],
      "name": "uniswapRouterAddress",
      "outputs": [
        {
          "internalType": "address",
          "name": "",
          "type": "address"
        }
      ],
      "stateMutability": "view",
      "type": "function"
    }
  ],
  "bytecode": "0x608060405234801561001057600080fd5b5060405161464e38038061464e83398101604081905261002f9161008d565b600180546001600160a01b039485166001600160a01b0319918216179091556002805493851693821693909317909255600380549190931691161790556100d0565b80516001600160a01b038116811461008857600080fd5b919050565b6000806000606084860312156100a257600080fd5b6100ab84610071565b92506100b960208501610071565b91506100c760408501610071565b90509250925092565b61456f806100df6000396000f3fe60806040523480156200001157600080fd5b5060043610620000b05760003560e01c8063cef0b260116200007f578063dbe55e561162000062578063dbe55e561462000176578063e0abca0b146200018a578063ec81aadb146200019e57600080fd5b8063cef0b2601462000128578063d24c9aa1146200013f57600080fd5b80630804f14e14620000b557806320ca3c7f14620000e95780633c0c456614620000fd578063622ae7aa146200010f575b600080fd5b620000cc620000c63660046200053d565b620001b5565b6040516001600160a01b0390911681526020015b60405180910390f35b600354620000cc906001600160a01b031681565b6001546001600160a01b0316620000cc565b62000119620003a9565b604051620000e09190620005ef565b620000cc620001393660046200063e565b6200040d565b620000cc620001503660046200063e565b80516020818301810180516004825292820191909301209152546001600160a01b031681565b600154620000cc906001600160a01b031681565b600254620000cc906001600160a01b031681565b620000cc620001af3660046200067f565b62000440565b6000806001600160a01b0316600486604051620001d39190620006bf565b908152604051908190036020019020546001600160a01b03161462000258576040517f08c379a000000000000000000000000000000000000000000000000000000000815260206004820152601960248201527f41727469737420616c7265616479207265676973746572656400000000000000604482015260640160405180910390fd5b6001546002546003546040516000938893889388936001600160a01b039384169392831692909116906200028c906200046b565b6200029d969594939291906200070b565b604051809103906000f080158015620002ba573d6000803e3d6000fd5b50600080546001810182559080527f290decd9548b62a8d60345a988386fc84ba6bc95484008f6362f93160ef3e56301805473ffffffffffffffffffffffffffffffffffffffff19166001600160a01b038316179055604051909150819060049062000328908990620006bf565b90815260405190819003602001812080546001600160a01b039390931673ffffffffffffffffffffffffffffffffffffffff19909316929092179091557f960b76257dfac4eb2914f47ddd2c449dfa01a195f10313f0aaa5b08d9c26972e90620003989083908990899062000768565b60405180910390a195945050505050565b606060008054806020026020016040519081016040528092919081815260200182805480156200040357602002820191906000526020600020905b81546001600160a01b03168152600190910190602001808311620003e4575b5050505050905090565b6000600482604051620004219190620006bf565b908152604051908190036020019020546001600160a01b031692915050565b600081815481106200045157600080fd5b6000918252602090912001546001600160a01b0316905081565b613d8f80620007ab83390190565b7f4e487b7100000000000000000000000000000000000000000000000000000000600052604160045260246000fd5b600082601f830112620004ba57600080fd5b813567ffffffffffffffff80821115620004d857620004d862000479565b604051601f8301601f19908116603f0116810190828211818310171562000503576200050362000479565b816040528381528660208588010111156200051d57600080fd5b836020870160208301376000602085830101528094505050505092915050565b600080600080608085870312156200055457600080fd5b843567ffffffffffffffff808211156200056d57600080fd5b6200057b88838901620004a8565b955060208701359150808211156200059257600080fd5b620005a088838901620004a8565b94506040870135915080821115620005b757600080fd5b50620005c687828801620004a8565b92505060608501356001600160a01b0381168114620005e457600080fd5b939692955090935050565b6020808252825182820181905260009190848201906040850190845b81811015620006325783516001600160a01b0316835292840192918401916001016200060b565b50909695505050505050565b6000602082840312156200065157600080fd5b813567ffffffffffffffff8111156200066957600080fd5b6200067784828501620004a8565b949350505050565b6000602082840312156200069257600080fd5b5035919050565b60005b83811015620006b65781810151838201526020016200069c565b50506000910152565b60008251620006d381846020870162000699565b9190910192915050565b60008151808452620006f781602086016020860162000699565b601f01601f19169290920160200192915050565b60c0815260006200072060c0830189620006dd565b8281036020840152620007348189620006dd565b6001600160a01b03978816604085015295871660608401525050918416608083015290921660a09092019190915292915050565b6001600160a01b03841681526060602082015260006200078c6060830185620006dd565b8281036040840152620007a08185620006dd565b969550505050505056fe6080604052620f424060125565048c273950006013553480156200002257600080fd5b5060405162003d8f38038062003d8f8339810160408190526200004591620009bc565b338686600362000056838262000afe565b50600462000065828262000afe565b5050506001600160a01b0381166200009857604051631e4fbdf760e01b8152600060048201526024015b60405180910390fd5b620000a38162000642565b50600680546001600160a01b038085166001600160a01b03199283161790925560078054848416908316179055600980549286169290911691909117905562000113306064620001016b033b2e3c9fd0803ce8000000605062000be0565b6200010d919062000c16565b62000694565b60646200012e6b033b2e3c9fd0803ce8000000605062000be0565b6200013a919062000c16565b600f556200015d306064620001016b033b2e3c9fd0803ce8000000600a62000be0565b6200017d306064620001016b033b2e3c9fd0803ce8000000600562000be0565b6200019d836064620001016b033b2e3c9fd0803ce8000000600562000be0565b42600a908155606490620001bf906b033b2e3c9fd0803ce80000009062000be0565b620001cb919062000c16565b6001600160a01b0385166000908152600b60205260409020556064620001ff6b033b2e3c9fd0803ce8000000600a62000be0565b6200020b919062000c16565b600d556064620002296b033b2e3c9fd0803ce8000000600562000be0565b62000235919062000c16565b600e556001600160a01b03811615620003db576007546040805163c45a015560e01b815290516000926001600160a01b03169163c45a01559160048083019260209291908290030181865afa15801562000293573d6000803e3d6000fd5b505050506040513d601f19601f82011682018060405250810190620002b9919062000c2d565b9050806001600160a01b031663c9c6539630600760009054906101000a90046001600160a01b03166001600160a01b031663ad5c46486040518163ffffffff1660e01b8152600401602060405180830381865afa1580156200031f573d6000803e3d6000fd5b505050506040513d601f19601f8201168201806040525081019062000345919062000c2d565b6040516001600160e01b031960e085901b1681526001600160a01b039283166004820152911660248201526044016020604051808303816000875af115801562000393573d6000803e3d6000fd5b505050506040513d601f19601f82011682018060405250810190620003b9919062000c2d565b600880546001600160a01b0319166001600160a01b0392909216919091179055505b6001601055620003ef620151804262000c16565b6016556040805161010081018252603c815261012c6020820152610384918101919091526107086060820152610e10608082015261384060a08201526201518060c082015262093a8060e08201526000670de0b6b3a764000062000452620006d2565b6200046290633b9aca0062000be0565b6200046e919062000c16565b905060005b60088110156200063357600083826008811062000494576200049462000c52565b602002015190506000620004a9824262000c68565b620004b5904262000c7f565b6000838152601760209081526040808320815160c0810183528581528084018a81528184018b8152606083018c8152608084018d815260a08501898152865460018181018955978b52988a2095516006909902909501978855925194870194909455516002860155915160038501559051600484015551600590920191909155519192507f0a6c631b67056f9b60b6c373fdb9dd5bc434cdac6594093a678b17c1f4eb70c0916200059d9185918591899182918291829190968752602087019590955260408601939093526060850191909152608084015260a083015260c082015260e00190565b60405180910390a16040805160808082526016908201527f496e697469616c2063616e646c6520637265617465640000000000000000000060a082015260208101849052908101829052606081018590527f642e664bea9ee78301be12e9bc0aa41edc30a395961aefab2f62ea99d82703f29060c00160405180910390a1505080806200062a9062000c95565b91505062000473565b50505050505050505062000d34565b600580546001600160a01b038381166001600160a01b0319831681179093556040519116919082907f8be0079c531659141344cd1fd0a4f28419497f9722a3daafe3b4186f6b6457e090600090a35050565b6001600160a01b038216620006c05760405163ec442f0560e01b8152600060048201526024016200008f565b620006ce60008383620007ac565b5050565b600080600660009054906101000a90046001600160a01b03166001600160a01b031663feaf968c6040518163ffffffff1660e01b815260040160a060405180830381865afa15801562000729573d6000803e3d6000fd5b505050506040513d601f19601f820116820180604052508101906200074f919062000cc9565b50505091505060008113620007a75760405162461bcd60e51b815260206004820152601760248201527f496e76616c696420436861696e6c696e6b20707269636500000000000000000060448201526064016200008f565b919050565b6001600160a01b038316620007db578060026000828254620007cf919062000d1e565b909155506200084f9050565b6001600160a01b03831660009081526020819052604090205481811015620008305760405163391434e360e21b81526001600160a01b038516600482015260248101829052604481018390526064016200008f565b6001600160a01b03841660009081526020819052604090209082900390555b6001600160a01b0382166200086d576002805482900390556200088c565b6001600160a01b03821660009081526020819052604090208054820190555b816001600160a01b0316836001600160a01b03167fddf252ad1be2c89b69c2b068fc378daa952ba7f163c4a11628f55a4df523b3ef83604051620008d291815260200190565b60405180910390a3505050565b634e487b7160e01b600052604160045260246000fd5b600082601f8301126200090757600080fd5b81516001600160401b0380821115620009245762000924620008df565b604051601f8301601f19908116603f011681019082821181831017156200094f576200094f620008df565b816040528381526020925086838588010111156200096c57600080fd5b600091505b8382101562000990578582018301518183018401529082019062000971565b600093810190920192909252949350505050565b80516001600160a01b0381168114620007a757600080fd5b60008060008060008060c08789031215620009d657600080fd5b86516001600160401b0380821115620009ee57600080fd5b620009fc8a838b01620008f5565b9750602089015191508082111562000a1357600080fd5b5062000a2289828a01620008f5565b95505062000a3360408801620009a4565b935062000a4360608801620009a4565b925062000a5360808801620009a4565b915062000a6360a08801620009a4565b90509295509295509295565b600181811c9082168062000a8457607f821691505b60208210810362000aa557634e487b7160e01b600052602260045260246000fd5b50919050565b601f82111562000af957600081815260208120601f850160051c8101602086101562000ad45750805b601f850160051c820191505b8181101562000af55782815560010162000ae0565b5050505b505050565b81516001600160401b0381111562000b1a5762000b1a620008df565b62000b328162000b2b845462000a6f565b8462000aab565b602080601f83116001811462000b6a576000841562000b515750858301515b600019600386901b1c1916600185901b17855562000af5565b600085815260208120601f198616915b8281101562000b9b5788860151825594840194600190910190840162000b7a565b508582101562000bba5787850151600019600388901b60f8161c191681555b5050505050600190811b01905550565b634e487b7160e01b600052601160045260246000fd5b808202811582820484141762000bfa5762000bfa62000bca565b92915050565b634e487b7160e01b600052601260045260246000fd5b60008262000c285762000c2862000c00565b500490565b60006020828403121562000c4057600080fd5b62000c4b82620009a4565b9392505050565b634e487b7160e01b600052603260045260246000fd5b60008262000c7a5762000c7a62000c00565b500690565b8181038181111562000bfa5762000bfa62000bca565b60006001820162000caa5762000caa62000bca565b5060010190565b80516001600160501b0381168114620007a757600080fd5b600080600080600060a0868803121562000ce257600080fd5b62000ced8662000cb1565b945060208601519350604086015192506060860151915062000d126080870162000cb1565b90509295509295909350565b8082018082111562000bfa5762000bfa62000bca565b61304b8062000d446000396000f3fe60806040526004361061050b5760003560e01c806379f1f08d11610294578063b202be431161015e578063d206d322116100d6578063e7664af91161008a578063f24bed041161006f578063f24bed0414610cf5578063f2fde38b14610d0b578063fa2af9da14610d2b57600080fd5b8063e7664af914610cca578063eb91d37e14610ce057600080fd5b8063d79875eb116100bb578063d79875eb14610c44578063dd62ed3e14610c64578063dfe100d414610caa57600080fd5b8063d206d32214610c1c578063d6febde814610c3157600080fd5b8063b9c3a8181161012d578063c816841b11610112578063c816841b14610be7578063c9808e3614610a04578063cd08462514610c0757600080fd5b8063b9c3a81814610bbc578063bde8d26214610bd157600080fd5b8063b202be4314610b4e578063b44b4b8014610b63578063b497ab9214610b90578063b607958714610ba657600080fd5b80639299aa4e1161020c5780639867a3e0116101c0578063a3aabeab116101a5578063a3aabeab14610af8578063a9059cbb14610b0e578063ab56ff9314610b2e57600080fd5b80639867a3e014610ace578063a0a8045e14610ae357600080fd5b806396d2e240116101f157806396d2e24014610a8d5780639727596714610aa357806397cadba214610ab957600080fd5b80639299aa4e14610a5857806395d89b4114610a7857600080fd5b80638294dec1116102635780638a857bc1116102485780638a857bc1146105bf5780638da5cb5b14610a1a578063902d55a514610a3857600080fd5b80638294dec1146109d7578063867508ad14610a0457600080fd5b806379f1f08d146109735780637c55a405146109895780637c5e27951461099f5780637f6c1d7f146109b757600080fd5b8063313ce567116103d55780635adc19c71161034d578063715018a61161030157806372648e38116102e657806372648e38146108ee578063735de9f71461091b578063741bef1a1461095357600080fd5b8063715018a6146108b95780637185c677146108ce57600080fd5b8063664f54fb11610332578063664f54fb1461084e5780636cd64ccb1461086357806370a082311461088357600080fd5b80635adc19c7146108215780635e1775581461083757600080fd5b80634329a345116103a45780634cfc4d30116103895780634cfc4d30146107da5780634fd0d4eb146107f25780635510ccba1461080b57600080fd5b80634329a3451461051757806347598d2f146107b857600080fd5b8063313ce5671461073d578063352c22bb146107595780633d589c0414610775578063411e314e146107a257600080fd5b8063184106c71161048357806320f1b91211610437578063254800d41161041c578063254800d4146106c55780632736e888146106db57806327b9bb9c1461072857600080fd5b806320f1b9121461068b57806323b872dd146106a557600080fd5b80631e4c7292116104685780631e4c7292146106415780631e7bace01461065657806320689fe51461066b57600080fd5b8063184106c714610615578063190572dd1461062b57600080fd5b80630abccffc116104da5780631259a5c8116104bf5780631259a5c8146105d4578063126d42b0146105ea57806318160ddd1461060057600080fd5b80630abccffc146105a85780630eab3322146105bf57600080fd5b806306d825a21461051757806306fdde0314610540578063095ea7b314610562578063096beaf21461059257600080fd5b3661051257005b600080fd5b34801561052357600080fd5b5061052d610e1081565b6040519081526020015b60405180910390f35b34801561054c57600080fd5b50610555610d4b565b6040516105379190612d18565b34801561056e57600080fd5b5061058261057d366004612d7d565b610ddd565b6040519015158152602001610537565b34801561059e57600080fd5b5061052d600d5481565b3480156105b457600080fd5b5061052d62093a8081565b3480156105cb57600080fd5b5061052d610df7565b3480156105e057600080fd5b5061052d60165481565b3480156105f657600080fd5b5061052d6102bc81565b34801561060c57600080fd5b5060025461052d565b34801561062157600080fd5b5061052d61070881565b34801561063757600080fd5b5061052d600e5481565b34801561064d57600080fd5b5061052d610e1d565b34801561066257600080fd5b5061052d602481565b34801561067757600080fd5b5061052d610686366004612da7565b610e36565b34801561069757600080fd5b506011546105829060ff1681565b3480156106b157600080fd5b506105826106c0366004612dc0565b610ebb565b3480156106d157600080fd5b5061052d600a5481565b3480156106e757600080fd5b506106fb6106f6366004612dfc565b610edf565b604080519687526020870195909552938501929092526060840152608083015260a082015260c001610537565b34801561073457600080fd5b5061052d603281565b34801561074957600080fd5b5060405160128152602001610537565b34801561076557600080fd5b5061052d670de0b6b3a764000081565b34801561078157600080fd5b5061052d610790366004612e1e565b60146020526000908152604090205481565b3480156107ae57600080fd5b5061052d61019081565b3480156107c457600080fd5b506107d86107d3366004612da7565b610f33565b005b3480156107e657600080fd5b5061052d6305a39a8081565b3480156107fe57600080fd5b5061052d64e8d4a5100081565b34801561081757600080fd5b5061052d61012c81565b34801561082d57600080fd5b5061052d60185481565b34801561084357600080fd5b5061052d6201518081565b34801561085a57600080fd5b5061052d606481565b34801561086f57600080fd5b5061052d61087e366004612da7565b610fd5565b34801561088f57600080fd5b5061052d61089e366004612e1e565b6001600160a01b031660009081526020819052604090205490565b3480156108c557600080fd5b506107d86110b9565b3480156108da57600080fd5b506107d86108e9366004612d7d565b6110cd565b3480156108fa57600080fd5b5061052d610909366004612e1e565b600c6020526000908152604090205481565b34801561092757600080fd5b5060075461093b906001600160a01b031681565b6040516001600160a01b039091168152602001610537565b34801561095f57600080fd5b5060065461093b906001600160a01b031681565b34801561097f57600080fd5b5061052d61035281565b34801561099557600080fd5b5061052d60135481565b3480156109ab57600080fd5b5061052d633b9aca0081565b3480156109c357600080fd5b5061052d6109d2366004612e1e565b61120e565b3480156109e357600080fd5b5061052d6109f2366004612e1e565b600b6020526000908152604090205481565b348015610a1057600080fd5b5061052d61025881565b348015610a2657600080fd5b506005546001600160a01b031661093b565b348015610a4457600080fd5b5061052d6b033b2e3c9fd0803ce800000081565b348015610a6457600080fd5b5061052d610a73366004612da7565b6112fd565b348015610a8457600080fd5b506105556113c3565b348015610a9957600080fd5b5061052d6103e881565b348015610aaf57600080fd5b5061052d60105481565b348015610ac557600080fd5b5061052d6113d2565b348015610ada57600080fd5b5061052d6113e9565b348015610aef57600080fd5b5061052d611448565b348015610b0457600080fd5b5061052d6101f481565b348015610b1a57600080fd5b50610582610b29366004612d7d565b61151d565b348015610b3a57600080fd5b5061052d610b49366004612da7565b61152b565b348015610b5a57600080fd5b5061052d603c81565b348015610b6f57600080fd5b5061052d610b7e366004612e1e565b60156020526000908152604090205481565b348015610b9c57600080fd5b5061052d600f5481565b348015610bb257600080fd5b5061052d61384081565b348015610bc857600080fd5b5061052d6115f3565b348015610bdd57600080fd5b5061052d61038481565b348015610bf357600080fd5b5060085461093b906001600160a01b031681565b348015610c1357600080fd5b506107d861160c565b348015610c2857600080fd5b5061052d603481565b6107d8610c3f366004612dfc565b6116b3565b348015610c5057600080fd5b506107d8610c5f366004612dfc565b611928565b348015610c7057600080fd5b5061052d610c7f366004612e40565b6001600160a01b03918216600090815260016020908152604080832093909416825291909152205490565b348015610cb657600080fd5b5061052d610cc5366004612da7565b611e51565b348015610cd657600080fd5b5061052d61016d81565b348015610cec57600080fd5b5061052d611f28565b348015610d0157600080fd5b5061052d60125481565b348015610d1757600080fd5b506107d8610d26366004612e1e565b611fe2565b348015610d3757600080fd5b5060095461093b906001600160a01b031681565b606060038054610d5a90612e73565b80601f0160208091040260200160405190810160405280929190818152602001828054610d8690612e73565b8015610dd35780601f10610da857610100808354040283529160200191610dd3565b820191906000526020600020905b815481529060010190602001808311610db657829003601f168201915b5050505050905090565b600033610deb818585612036565b60019150505b92915050565b6064610e106b033b2e3c9fd0803ce80000006005612ebd565b610e1a9190612eea565b81565b6064610e106b033b2e3c9fd0803ce80000006050612ebd565b33600090815260208190526040812054600081610e54856064612ebd565b610e5e9190612eea565b905060006005821115610e8f57610e76600583612efe565b610e81906064612ebd565b610e8c906002612ebd565b90505b6000610e9c826064612f11565b90506102588111610ead5780610eb1565b6102585b9695505050505050565b600033610ec9858285612048565b610ed48585856120e0565b506001949350505050565b60176020528160005260406000208181548110610efb57600080fd5b600091825260209091206006909102018054600182015460028301546003840154600485015460059095015493965091945092909186565b610f3b612171565b64e8d4a51000811015610f955760405162461bcd60e51b815260206004820152600d60248201527f4c696d697420746f6f206c6f770000000000000000000000000000000000000060448201526064015b60405180910390fd5b6013819055604080518281524260208201527ff9edd5c2d813614b88262f52d57ff8f470e13704de180f350eeeec375f2e8f83910160405180910390a150565b60115460009060ff1615610feb57506000919050565b6000611000670de0b6b3a76400006064612ebd565b90506000600f5460646b033b2e3c9fd0803ce800000060506110229190612ebd565b61102c9190612eea565b6110369190612efe565b9050600061104964e8d4a5100083612eea565b9050600061105f670de0b6b3a764000087612eea565b6110699083612efe565b905061107b64e8d4a510006064612ebd565b816110868187612ebd565b6110909190612ebd565b8361109b8188612ebd565b6110a59190612ebd565b6110af9190612efe565b610eb19190612eea565b6110c1612171565b6110cb60006121b7565b565b6110d5612171565b6110e781670de0b6b3a7640000612ebd565b905060006110f36113e9565b90508082111561116b5760405162461bcd60e51b815260206004820152602260248201527f4e6f7420656e6f75676820756e6c6f636b65642061697264726f7020746f6b6560448201527f6e730000000000000000000000000000000000000000000000000000000000006064820152608401610f8c565b60115460ff16156111af5760405162461bcd60e51b815260206004820152600e60248201526d437572766520636f6d706c65746560901b6044820152606401610f8c565b6111ba3084846120e0565b81600e546111c89190612efe565b600e556040518281526001600160a01b038416907fef90046b8142ea9ef9fbd7a5569b220918264e0b4a07f0103e11e3c21f999da69060200160405180910390a2505050565b6000600a5442101561124b576001600160a01b0382166000908152600b6020526040902054606490611241906014612ebd565b610df19190612eea565b6000600a544261125b9190612efe565b6001600160a01b0384166000908152600b602052604081205491925090606490611286906050612ebd565b6112909190612eea565b905060006305a39a806112a38484612ebd565b6112ad9190612eea565b6001600160a01b0386166000908152600b6020526040812054919250906064906112d8906014612ebd565b6112e29190612eea565b90508282116112f157816112f3565b825b610eb19082612f11565b60115460009060ff161561131357506000919050565b6000611328670de0b6b3a76400006064612ebd565b90506000600f5460646b033b2e3c9fd0803ce8000000605061134a9190612ebd565b6113549190612eea565b61135e9190612efe565b9050600061137164e8d4a5100083612eea565b90506000611387670de0b6b3a764000087612eea565b6113919083612f11565b90506113a364e8d4a510006064612ebd565b826113ae8187612ebd565b6113b89190612ebd565b8261109b8188612ebd565b606060048054610d5a90612e73565b610e1a60146b033b2e3c9fd0803ce8000000612eea565b6000600a544210156113fb5750600090565b6000600a544261140b9190612efe565b905060006305a39a8082600e546114229190612ebd565b61142c9190612eea565b9050600e54811161143d5780611441565b600e545b9250505090565b600080600660009054906101000a90046001600160a01b03166001600160a01b031663feaf968c6040518163ffffffff1660e01b815260040160a060405180830381865afa15801561149e573d6000803e3d6000fd5b505050506040513d601f19601f820116820180604052508101906114c29190612f3e565b505050915050600081136115185760405162461bcd60e51b815260206004820152601760248201527f496e76616c696420436861696e6c696e6b2070726963650000000000000000006044820152606401610f8c565b919050565b600033610deb8185856120e0565b60115460009060ff161561154157506000919050565b6000611556670de0b6b3a76400006064612ebd565b90506000600f5460646b033b2e3c9fd0803ce800000060506115789190612ebd565b6115829190612eea565b61158c9190612efe565b9050600064e8d4a510006115a08684612efe565b6115aa9190612eea565b9050633b9aca006115c164e8d4a510006064612ebd565b826115cc8187612ebd565b6115d69190612ebd565b6115e09190612eea565b6115ea9190612f11565b95945050505050565b6064610e106b033b2e3c9fd0803ce8000000600a612ebd565b60006116173361120e565b9050600081116116695760405162461bcd60e51b815260206004820152601060248201527f4e6f2076657374656420746f6b656e73000000000000000000000000000000006044820152606401610f8c565b336000908152600b6020526040902054611684908290612efe565b336000908152600b6020526040902055600d546116a2908290612efe565b600d556116b03033836120e0565b50565b60115460ff16156116f75760405162461bcd60e51b815260206004820152600e60248201526d437572766520636f6d706c65746560901b6044820152606401610f8c565b803410156117475760405162461bcd60e51b815260206004820152601560248201527f496e73756666696369656e74204554482073656e7400000000000000000000006044820152606401610f8c565b6000612710611757603284612ebd565b6117619190612eea565b9050600061176f8284612efe565b9050600061177c82611e51565b9050848110156117ce5760405162461bcd60e51b815260206004820152601160248201527f536c69707061676520746f6f20686967680000000000000000000000000000006044820152606401610f8c565b600f548111156118205760405162461bcd60e51b815260206004820152601360248201527f496e73756666696369656e7420746f6b656e73000000000000000000000000006044820152606401610f8c565b8160105461182e9190612f11565b601055600f5461183f908290612efe565b600f556009546040516001600160a01b039091169084156108fc029085906000818181858888f1935050505015801561187c573d6000803e3d6000fd5b506118883033836120e0565b806018546118969190612f11565b6018556118cf670de0b6b3a76400006118ad611448565b6118b5611f28565b6118bf9190612ebd565b6118c99190612eea565b82612221565b6118d7612739565b337f849165c18b9d0fb161bcb145e4ab523d350e5c98f1dbbb1960331e7ee3ca676782611902611f28565b604080519283526020830191909152429082015260600160405180910390a25050505050565b60115460ff161561196c5760405162461bcd60e51b815260206004820152600e60248201526d437572766520636f6d706c65746560901b6044820152606401610f8c565b600082116119bc5760405162461bcd60e51b815260206004820152600e60248201527f496e76616c696420616d6f756e740000000000000000000000000000000000006044820152606401610f8c565b6119c533612986565b60006119cf611f28565b905060006119dc84610fd5565b905060006119e98561152b565b905060646119f8826069612ebd565b611a029190612eea565b831115611a515760405162461bcd60e51b815260206004820152601c60248201527f53656c6c206578636565647320352520707269636520696d70616374000000006044820152606401610f8c565b6000611a6a60146b033b2e3c9fd0803ce8000000612eea565b90506000613840611a79611448565b611a838785612ebd565b611a8d9190612ebd565b611a979190612eea565b9050601354811115611aeb5760405162461bcd60e51b815260206004820152601a60248201527f53656c6c206c696d6974206578636565647320555344206361700000000000006044820152606401610f8c565b336000908152601460205260409020548290611b08908990612f11565b1115611b565760405162461bcd60e51b815260206004820152601860248201527f45786365656473206461696c792073656c6c206c696d697400000000000000006044820152606401610f8c565b33600090815260156020526040902054611b7390610e1090612f11565b421015611bc25760405162461bcd60e51b815260206004820152600f60248201527f436f6f6c646f776e2061637469766500000000000000000000000000000000006044820152606401610f8c565b6000612710611bd089610e36565b611bda9087612ebd565b611be49190612eea565b90506000611bf28287612efe565b905087811015611c445760405162461bcd60e51b815260206004820152601160248201527f536c69707061676520746f6f20686967680000000000000000000000000000006044820152606401610f8c565b601054811115611c965760405162461bcd60e51b815260206004820152601060248201527f496e73756666696369656e7420455448000000000000000000000000000000006044820152606401610f8c565b611ca133308b6120e0565b80601054611caf9190612efe565b601055600f54611cc0908a90612f11565b600f556000611cd0600284612eea565b6009549091506001600160a01b03166108fc611cec8386612efe565b6040518115909202916000818181858888f19350505050158015611d14573d6000803e3d6000fd5b5060405161dead9082156108fc029083906000818181858888f19350505050158015611d44573d6000803e3d6000fd5b50604051339083156108fc029084906000818181858888f19350505050158015611d72573d6000803e3d6000fd5b5033600090815260146020526040902054611d8e908b90612f11565b336000908152601460209081526040808320939093556015905220429055601854611dba908b90612f11565b601855611df3670de0b6b3a7640000611dd1611448565b611dd9611f28565b611de39190612ebd565b611ded9190612eea565b8b612221565b611dfb612739565b337f019eed797248695407e185a0977fa0dba8bbaaba6c2f6f4a8bdf6fb32e62ba238b611e26611f28565b604080519283526020830191909152429082015260600160405180910390a250505050505050505050565b60115460009060ff1615611e6757506000919050565b6000611e7c670de0b6b3a76400006064612ebd565b90506000600f5460646b033b2e3c9fd0803ce80000006050611e9e9190612ebd565b611ea89190612eea565b611eb29190612efe565b90506000611ec564e8d4a5100083612eea565b90506000611f0a611ed68380612ebd565b85611ee664e8d4a510008a612ebd565b611ef1906064612ebd565b611efb9190612eea565b611f059190612f11565b6129c4565b9050611f168282612efe565b610eb190670de0b6b3a7640000612ebd565b60115460009060ff1615611f3c5750600090565b6000611f51670de0b6b3a76400006064612ebd565b90506000600f5460646b033b2e3c9fd0803ce80000006050611f739190612ebd565b611f7d9190612eea565b611f879190612efe565b90506000611f9a64e8d4a5100083612eea565b9050633b9aca00611fb164e8d4a510006064612ebd565b82611fbc8187612ebd565b611fc69190612ebd565b611fd09190612eea565b611fda9190612f11565b935050505090565b611fea612171565b6001600160a01b03811661202d576040517f1e4fbdf700000000000000000000000000000000000000000000000000000000815260006004820152602401610f8c565b6116b0816121b7565b6120438383836001612a33565b505050565b6001600160a01b038381166000908152600160209081526040808320938616835292905220546000198110156120da57818110156120cb576040517ffb8f41b20000000000000000000000000000000000000000000000000000000081526001600160a01b03841660048201526024810182905260448101839052606401610f8c565b6120da84848484036000612a33565b50505050565b6001600160a01b038316612123576040517f96c6fd1e00000000000000000000000000000000000000000000000000000000815260006004820152602401610f8c565b6001600160a01b038216612166576040517fec442f0500000000000000000000000000000000000000000000000000000000815260006004820152602401610f8c565b612043838383612b3a565b6005546001600160a01b031633146110cb576040517f118cdaa7000000000000000000000000000000000000000000000000000000008152336004820152602401610f8c565b600580546001600160a01b038381167fffffffffffffffffffffffff0000000000000000000000000000000000000000831681179093556040519116919082907f8be0079c531659141344cd1fd0a4f28419497f9722a3daafe3b4186f6b6457e090600090a35050565b6040805161010081018252603c815261012c6020820152610384918101919091526107086060820152610e10608082015261384060a08201526201518060c082015262093a8060e082015260005b60088110156120da57600082826008811061228c5761228c612f8e565b60200201519050600061229f8242612fa4565b6122a99042612efe565b600083815260176020526040812080549293509115806122fa57508154839083906122d690600190612efe565b815481106122e6576122e6612f8e565b906000526020600020906006020160000154105b905080156124575781546000906123115788612344565b8254839061232190600190612efe565b8154811061233157612331612f8e565b9060005260206000209060060201600401545b9050826040518060c001604052808681526020018381526020018b81526020018b81526020018b8152602001670de0b6b3a76400008b6123849190612eea565b905281546001808201845560009384526020938490208351600690930201918255828401519082015560408083015160028301556060808401516003840155608080850151600485015560a09485015160059094019390935581518381526012938101939093527f4e65772063616e646c65206372656174656400000000000000000000000000009383019390935292810188905291820186905281018990527f642e664bea9ee78301be12e9bc0aa41edc30a395961aefab2f62ea99d82703f29060c00160405180910390a150612568565b8154600090839061246a90600190612efe565b8154811061247a5761247a612f8e565b906000526020600020906006020190508060020154891161249f5780600201546124a1565b885b6002820155600381015489106124bb5780600301546124bd565b885b6003820155600481018990556124db670de0b6b3a764000089612eea565b81600501546124ea9190612f11565b600582018190556040805160808082526017908201527f4578697374696e672063616e646c65207570646174656400000000000000000060a0820152602081018890528082018790526060810192909252517f642e664bea9ee78301be12e9bc0aa41edc30a395961aefab2f62ea99d82703f29181900360c00190a1505b600061257385612c7d565b90505b82548110156126795760015b83548110156126295783818154811061259d5761259d612f8e565b9060005260206000209060060201846001836125b99190612efe565b815481106125c9576125c9612f8e565b9060005260206000209060060201600082015481600001556001820154816001015560028201548160020155600382015481600301556004820154816004015560058201548160050155905050808061262190612fb8565b915050612582565b508280548061263a5761263a612fd1565b60008281526020812060066000199093019283020181815560018101829055600281018290556003810182905560048101829055600501559055612576565b8254600090849061268c90600190612efe565b8154811061269c5761269c612f8e565b60009182526020918290206001600690920201908101546002820154600383015460048401546005850154604080518e81529788018d90528701949094526060860192909252608085015260a084015260c083015291507f0a6c631b67056f9b60b6c373fdb9dd5bc434cdac6594093a678b17c1f4eb70c09060e00160405180910390a1505050505050808061273190612fb8565b91505061226f565b60115460ff161561274657565b60006305f5e100612755611448565b670de0b6b3a7640000806b033b2e3c9fd0803ce8000000612774611f28565b61277e9190612ebd565b6127889190612eea565b6127929190612eea565b61279c9190612ebd565b6127a69190612eea565b905060125481106116b0576011805460ff19166001179055600f546010546000906127d390600290612eea565b6007549091506127ee9030906001600160a01b031684612036565b6007546001600160a01b031663f305d7198230856000806128176005546001600160a01b031690565b60405160e088901b7fffffffff000000000000000000000000000000000000000000000000000000001681526001600160a01b03958616600482015260248101949094526044840192909252606483015290911660848201524260a482015260c40160606040518083038185885af1158015612897573d6000803e3d6000fd5b50505050506040513d601f19601f820116820180604052508101906128bc9190612fe7565b505050806010546128cd9190612efe565b60105560408051828152602081018490527f654e1d49372e305713e05ff2ed090670dd8683b365ce33618c15e187b875d21d910160405180910390a1601254604080516080808252600b908201527f437572766520636865636b00000000000000000000000000000000000000000060a0820152602081018690528082019290925260006060830152517f642e664bea9ee78301be12e9bc0aa41edc30a395961aefab2f62ea99d82703f29181900360c00190a1505050565b60006129956201518042612eea565b90506016548111156129c0576001600160a01b03821660009081526014602052604081205560168190555b5050565b60006003821115612a2557508060006129de600283612eea565b6129e9906001612f11565b90505b81811015612a1f57905080600281612a048186612eea565b612a0e9190612f11565b612a189190612eea565b90506129ec565b50919050565b811561151857506001919050565b6001600160a01b038416612a76576040517fe602df0500000000000000000000000000000000000000000000000000000000815260006004820152602401610f8c565b6001600160a01b038316612ab9576040517f94280d6200000000000000000000000000000000000000000000000000000000815260006004820152602401610f8c565b6001600160a01b03808516600090815260016020908152604080832093871683529290522082905580156120da57826001600160a01b0316846001600160a01b03167f8c5be1e5ebec7d5bd14f71427d1e84f3dd0314c0f7b2291e5b200ac8c7c3b92584604051612b2c91815260200190565b60405180910390a350505050565b6001600160a01b038316612b65578060026000828254612b5a9190612f11565b90915550612bf09050565b6001600160a01b03831660009081526020819052604090205481811015612bd1576040517fe450d38c0000000000000000000000000000000000000000000000000000000081526001600160a01b03851660048201526024810182905260448101839052606401610f8c565b6001600160a01b03841660009081526020819052604090209082900390555b6001600160a01b038216612c0c57600280548290039055612c2b565b6001600160a01b03821660009081526020819052604090208054820190555b816001600160a01b0316836001600160a01b03167fddf252ad1be2c89b69c2b068fc378daa952ba7f163c4a11628f55a4df523b3ef83604051612c7091815260200190565b60405180910390a3505050565b6000603c8203612c9057506103e8919050565b61012c8203612ca25750610352919050565b6103848203612cb457506102bc919050565b6107088203612cc65750610258919050565b610e108203612cd857506101f4919050565b6138408203612cea5750610190919050565b620151808203612cfd575061016d919050565b62093a808203612d0f57506034919050565b506101f4919050565b600060208083528351808285015260005b81811015612d4557858101830151858201604001528201612d29565b506000604082860101526040601f19601f8301168501019250505092915050565b80356001600160a01b038116811461151857600080fd5b60008060408385031215612d9057600080fd5b612d9983612d66565b946020939093013593505050565b600060208284031215612db957600080fd5b5035919050565b600080600060608486031215612dd557600080fd5b612dde84612d66565b9250612dec60208501612d66565b9150604084013590509250925092565b60008060408385031215612e0f57600080fd5b50508035926020909101359150565b600060208284031215612e3057600080fd5b612e3982612d66565b9392505050565b60008060408385031215612e5357600080fd5b612e5c83612d66565b9150612e6a60208401612d66565b90509250929050565b600181811c90821680612e8757607f821691505b602082108103612a1f57634e487b7160e01b600052602260045260246000fd5b634e487b7160e01b600052601160045260246000fd5b8082028115828204841417610df157610df1612ea7565b634e487b7160e01b600052601260045260246000fd5b600082612ef957612ef9612ed4565b500490565b81810381811115610df157610df1612ea7565b80820180821115610df157610df1612ea7565b805169ffffffffffffffffffff8116811461151857600080fd5b600080600080600060a08688031215612f5657600080fd5b612f5f86612f24565b9450602086015193506040860151925060608601519150612f8260808701612f24565b90509295509295909350565b634e487b7160e01b600052603260045260246000fd5b600082612fb357612fb3612ed4565b500690565b600060018201612fca57612fca612ea7565b5060010190565b634e487b7160e01b600052603160045260246000fd5b600080600060608486031215612ffc57600080fd5b835192506020840151915060408401519050925092509256fea264697066735822122097333f20af376e9c39b90108c7cd6b9fadf6495dac659a0c28702c2b35441eb664736f6c63430008140033a2646970667358221220b00a43ef0960434585af893350b623517c377ea64547057b1b4726b09dc34ebb64736f6c63430008140033",
  "linkReferences": {},
  "deployedLinkReferences": {}
}